:100000000C940F060C942C060C942C060C942C06C5
:100010000C942C060C942C060C942C060C942C0698
:100020000C942C060C942C060C942C060C942C0688
:100030000C942C060C942C060C942C060C942C0678
:100040000C942C060C942C060C942C060C942C0668
:100050000C942E060C942C060C942C060C942C0656
:100060000C942C060C942C060C942C060C942C0648
:100070000C942C060C942C060C942C06293A200087
:10008000746F6F206D616E7920617267756D656E3A
:100090007473280045786974696E670A0078000AED
:1000A000000A4E756D626572206F6620657363612C
:1000B00070652063686172616374657273206E6538
:1000C000656465643A2000456E746572206E756DD6
:1000D000626572206F662065736361706520636876
:1000E000617261637465727320746F206C6F6F6BE3
:1000F00020666F723A200036000A000A4E657720AB
:1001000065736361706520636861726163746572B1
:100110003A2000456E7465722061206E6577206517
:100120007363617065206368617261637465723ABC
:10013000200035004E65772066696C65206E756D10
:1001400062657220726573657420746F207A6572BF
:100150006F0A003400436F6D6D616E642070726FC2
:100160006D70740A003300417070656E64206669BA
:100170006C65206C6F6767696E670A0032004E65B8
:10018000772066696C65206C6F6767696E670A0027
:100190003100782920457869740A003629204E7587
:1001A0006D626572206F66206573636170652063A0
:1001B0006861726163746572730A003529204E6547
:1001C0007720657363617065206368617261637431
:1001D00065720A003429205265736574206E657754
:1001E0002066696C65206E756D6265720A00332940
:1001F00020436F6D6D616E642070726F6D70740A54
:1002000000322920417070656E642066696C65203B
:100210006C6F6767696E670A003129204E65772029
:1002200066696C65206C6F6767696E670A00436872
:10023000616E676520746F3A0A000A00207820001A
:1002400043757272656E74206573636170652063B7
:10025000686172616374657220616E6420616D6FA4
:10026000756E743A20000A00436F6D6D616E640014
:10027000417070656E642066696C65004E6577201C
:1002800066696C650043757272656E7420626F6F8B
:1002900074206D6F64653A20000A53797374656D3C
:1002A00020436F6E66696775726174696F6E0A00CC
:1002B0000A45786974696E670A0078000A476F69B1
:1002C0006E6720746F203131353230306270732E9A
:1002D0002E2E0A0037000A476F696E6720746F2060
:1002E00035373630306270732E2E2E0A0036000AF3
:1002F000476F696E6720746F203338343030627016
:10030000732E2E2E0A0035000A476F696E6720741F
:100310006F2031393230306270732E2E2E0A003445
:10032000000A476F696E6720746F2039363030627B
:1003300070732E2E2E0A0033000A476F696E6720F5
:10034000746F20343830306270732E2E2E0A0032D3
:10035000000A476F696E6720746F20323430306254
:1003600070732E2E2E0A003100782920457869748A
:100370000A00372920313135323030206270730A5B
:10038000003629203537363030206270730A003548
:1003900029203338343030206270730A0034292029
:1003A0003139323030206270730A003329203936F7
:1003B0003030206270730A00322920343830302007
:1003C0006270730A00312920323430302062707339
:1003D0000A004368616E676520746F3A0A00303026
:1003E000206270730A003131353200353736003300
:1003F00038340031393200393600323400343800B4
:1004000043757272656E743A20000A426175642009
:10041000436F6E66696775726174696F6E3A0A0040
:10042000626175640909093A204D656E7520746F23
:1004300020636F6E666967757265206261756420FE
:10044000726174650A007365740909093A204D6583
:100450006E7520746F20636F6E66696775726520B4
:1004600073797374656D20626F6F74206D6F64654E
:100470000A000A4D656E75733A0A0073796E630956
:1004800009093A20456E737572657320616C6C20A2
:100490006275666665726564206461746120697363
:1004A000207772697474656E20746F20746865209B
:1004B000636172640A00696E69740909093A20521D
:1004C00065696E697469616C697A657320616E64CF
:1004D0002072656F70656E7320746865206D656D40
:1004E0006F727920636172640A006469736B090931
:1004F000093A2053686F77732063617264206D61DD
:100500006E7566616374757265722C2073746174A4
:1005100075732C2066696C6573797374656D2063DF
:100520006170616369747920616E642066726565CB
:100530002073746F726167652073706163650A0070
:1005400073697A65203C66696C653E09093A2057F3
:10055000726974652073697A65206F662066696CBC
:100560006520746F207465726D696E616C0A00722B
:10057000656164203C66696C653E203C7374617201
:10058000743E203C6C656E6774683E09093A2057DA
:100590007269746573204153434949203C6C656E10
:1005A0006774683E207061727473206F66203C66C9
:1005B000696C653E20746F20746865207465726D87
:1005C000696E616C207374617274696E6720617406
:1005D000203C73746172743E2E204F6D6D697420DF
:1005E0003C73746172743E20616E64203C6C656E75
:1005F0006774683E20746F20726561642077686F4D
:100600006C652066696C650A00636174203C6669EC
:100610006C653E09093A2057726974657320612040
:1006200068657864756D70206F66203C66696C65DE
:100630003E20746F20746865207465726D696E6108
:100640006C0A006C730909093A2053686F777320AC
:1006500074686520636F6E74656E74206F662074B5
:1006600068652063757272656E7420646972656373
:10067000746F72792E205573652077696C6463619D
:10068000726420746F20646F20612077696C6463EA
:10069000617264206C697374696E67206F6620668E
:1006A000696C657320696E2063757272656E742063
:1006B0006469726563746F72790A006364202E2E18
:1006C00009093A204368616E67657320746F206C76
:1006D0006F776572206469726563746F72792069DF
:1006E0006E20747265650A006364203C64697265FB
:1006F00063746F72793E09093A204368616E6765D9
:10070000732063757272656E7420776F726B696E99
:1007100067206469726563746F727920746F203C1E
:100720006469726563746F72793E0A006D64203C7F
:100730006469726563746F72793E093A2043726529
:10074000617465732061206469726563746F727986
:100750002063616C6C6564203C6469726563746FCE
:1007600072793E0A00726D203C66696C653E09092B
:100770003A2044656C65746573203C66696C653E1F
:100780002E205573652077696C64636172642074F0
:100790006F20646F20612077696C646361726420EC
:1007A00072656D6F76616C206F662066696C65732B
:1007B0000A007772697465203C66696C653E203C6E
:1007C0006F66667365743E093A2057726974657383
:1007D000207465787420746F203C66696C653E2CCB
:1007E000207374617274696E672066726F6D203C4D
:1007F0006F66667365743E2E205468652074657854
:100800007420697320726561642066726F6D207454
:10081000686520554152542C206C696E65206279C0
:10082000206C696E652E2046696E69736820776951
:10083000746820616E20656D707479206C696E65D6
:100840000A00617070656E64203C66696C653E09E3
:10085000093A20417070656E647320746578742065
:10086000746F20656E64206F66203C66696C653E1F
:100870002E20546865207465787420697320726531
:1008800061642066726F6D20746865205541525412
:1008900020696E20612073747265616D20616E64E1
:1008A000206973206E6F74206563686F65642E2005
:1008B00046696E6973682062792073656E64696E3B
:1008C00067204374726C2B7A202841534349492096
:1008D0003236290A006E6577203C66696C653E09F0
:1008E000093A2043726561746573203C66696C65E2
:1008F0003E0A00417661696C61626C6520636F6DD0
:100900006D616E64733A0A000A4F70656E4C6F67D2
:100910002076312E36310A007E006572726F7220A9
:1009200077726974696E6720746F2066696C650AF6
:10093000006572726F722077726974696E672074D5
:100940006F2066696C650A006572726F722077723B
:100950006974696E6720746F2066696C650A00654A
:1009600072726F722077726974696E6720746F207B
:1009700066696C650A006572726F722077726974BD
:10098000696E6720746F2066696C650A0065727213
:100990006F722077726974696E6720746F20666960
:1009A0006C650A00216572726F72207365656B69F0
:1009B0006E67206F6E2000216572726F72206F70FB
:1009C000656E696E672000756E6B6E6F776E206363
:1009D0006F6D6D616E643A20006572726F72207384
:1009E000796E63696E67206469736B0A0073796E50
:1009F00063006572726F72206372656174696E67FD
:100A0000206469726563746F72793A20006D6400C6
:100A1000617070656E64006572726F7220777269C2
:100A200074696E6720746F2066696C650A00657270
:100A3000726F72207365656B696E67206F6E200040
:100A40006572726F72206F70656E696E67200077D5
:100A500072697465006572726F7220637265617489
:100A6000696E672066696C653A20006E657700657F
:100A700072726F722064656C6574696E6720666956
:100A80006C653A2000726D0073697A650065727258
:100A90006F722072656164696E67206469736B2090
:100AA000696E666F0A006469736B006572726F72BB
:100AB000207365656B696E67206F6E2000657272CA
:100AC0006F72206F70656E696E6720007265616479
:100AD000006572726F72206F70656E696E672000BC
:100AE000636174006C73006469726563746F72791A
:100AF000206E6F7420666F756E643A200063640028
:100B000073657400626175640068656C70003F0015
:100B100046696C652073797374656D20696E6974BC
:100B200069616C697A65640A00436C6F73696E670A
:100B300020646F776E2066696C65207379737465C5
:100B40006D0A00696E697400667265653A2020203E
:100B500000666F726D61743A200077722E70722E8B
:100B60003A2000636F70793A202020004D420A003D
:100B700073697A653A20202000646174653A202008
:100B8000200073657269616C3A2030780072657676
:100B90003A202020200070726F643A202020006FDD
:100BA000656D3A20202020006D616E75663A202028
:100BB00030780021546F6F206D616E79206C6F6703
:100BC000733A32210021546F6F206D616E79206C71
:100BD0006F67733A3121004572726F7220637265DC
:100BE0006174696E67205345514C4F470A00437248
:100BF000656174696E67205345514C4F470A006523
:100C000072726F72206F70656E696E6720636F6EAF
:100C10006669672066696C65003200310000112446
:100C20001FBECFEFD0E1DEBFCDBF11E0A0E0B1E04D
:100C3000EEE3F4E902C005900D92A43BB107D9F7A9
:100C400018E0A4EBB1E001C01D92A13EB107E1F7AD
:100C50000E94B4160C941D4A0C9400001F920F922F
:100C60000FB60F9211242F938F939F93EF93FF93BF
:100C7000E091BD04F091BE048091C600EB53FB4FA0
:100C800080838091BD049091BE0401969093BE0430
:100C90008093BD0485B191E0892785B98091BD0419
:100CA0009091BE048050944021F41092BE041092A2
:100CB000BD04FF91EF919F918F912F910F900FBEE7
:100CC0000F901F901895F999FECF12BC81E081BD5D
:100CD00080BDFA9AF99AF999FECF12BC82E081BDE3
:100CE00010BCFA9AF99AF999FECF12BC85E081BD41
:100CF0008AE180BDFA9AF99AF999FECF12BC86E092
:100D000081BD83E080BDFA9AF99A0895F999FECFE2
:100D100012BC91E091BDF89A80B58093C2048B30EB
:100D200050F09093C204F999FECF12BC81E081BDCE
:100D300080BDFA9AF99AF999FECF12BC82E081BD82
:100D4000F89A80B58093BC04863050F01092BC04B1
:100D5000F999FECF12BC82E081BD10BCFA9AF99AD3
:100D6000F999FECF12BC85E081BDF89A80B58093D9
:100D7000C70881508E3F60F08AE18093C708F999D7
:100D8000FECF12BC85E081BD8AE180BDFA9AF99A56
:100D9000F999FECF12BC86E081BDF89A80B58093A8
:100DA000BF0481508E3F60F083E08093BF04F999C7
:100DB000FECF12BC86E081BD83E080BDFA9AF99A2D
:100DC0000895F999FECF92BD81BD60BDFA9AF99A56
:100DD0000895F999FECF92BD81BDF89A80B5089526
:100DE0009C01220F331F91E084E106C095BB86BDB4
:100DF000A89BFECF2050314041E021303407B0F7AE
:100E000081E085BB822F819586BDA89BFECF08958A
:100E1000CF93DF93EC0105C088EE93E00E94F006CB
:100E200021972097C9F7DF91CF9108950F931F93D2
:100E3000CF93DF93C0E0D0E0082F10E00BC0289ADA
:100E400084E690E00E940807289884E690E00E94DB
:100E500008072196C017D10794F380ED97E00E9410
:100E60000807C0E0D0E0F6CFFF920F931F93509A8F
:100E7000589A48991CC0299A10E0FF24F39402E084
:100E800089E190E00E94080785B18F2585B94899CE
:100E90000EC089E190E00E94080785B1802785B9DE
:100EA000489905C01F5F183259F781E001C080E002
:100EB0001F910F91FF900895E4EBF1E020E0808115
:100EC0009181892B19F0828181112F5F339681E006
:100ED000E03CF807A1F7822F0895AC01E4EBF1E0C4
:100EE00020E080819181892B19F0828181112F5F0F
:100EF000339681E0E03CF807A1F7243060F4822FBC
:100F000090E0FC01EE0FFF1FE80FF91FEC54FE4FBD
:100F10005183408362830895AC0120E030E070E0AB
:100F20000DC0FA01E20FF31F808190E0C0970A978D
:100F300018F040E050E005C02F5F3F4F26173707FD
:100F400084F3CA010895FC01DB0108C0891721F070
:100F50008F3311F080E00895319611969C9199237A
:100F6000F1F080818A3291F71AC080818A3259F477
:100F700031968081882311F481E008959D012F5FCF
:100F80003F4FAF0110C0891711F08F3319F431961C
:100F9000119609C0FA01D9012F5F3F4F04C020E02C
:100FA00030E040E050E09C919923F9F601C0319681
:100FB00090819A32E1F380E0992309F481E0089569
:100FC00088E099E00E94194483EF98E00E94194458
:100FD00085ED98E00E94194482E498E00E9419444B
:100FE00082EB97E00E94194485E697E00E9419443D
:100FF0008CE297E00E94194488EE96E00E94194422
:101000008BEB96E00E94194483E496E00E94194419
:1010100089E096E00E9419448FE695E00E94194409
:1010200080E495E00E9419448AEE94E00E941944FD
:1010300086EB94E00E9419448BE794E00E941944E7
:1010400082E794E00E94194486E494E00E941944E7
:1010500080E294E00E94194408951F93CF93DF9398
:10106000282FEB01E4EBF1E010E080819181892BE6
:1010700019F0828181111F5F339681E0E03CF8070F
:10108000A1F7211710F080E013C080E890E00E94E3
:101090001944812F90E00E9465438CE790E00E9404
:1010A0001944CE010E940C448AE00E941D4381E055
:1010B000DF91CF911F910895CF93DF93EC018CE0E6
:1010C000E4EBF1E0DF011D928A95E9F750E041E0A1
:1010D000A62FB0E039C0242F30E0FE01E20FF31F4D
:1010E0008081803229F02F5F3F4F2A173B0759F547
:1010F000842F90E001968A179B0709F4462FE4EBB2
:10110000F1E020E080819181892B19F082818111A9
:101110002F5F339681E0E03CF807A1F7243088F494
:10112000822F90E0FC01EE0FFF1FE80FF91FEC5437
:10113000FE4FCE01850F911D91838083842F851BE7
:1011400082834F5F542F4F5F461728F2E4EBF1E0A4
:1011500020E080819181892B19F0828181112F5F9C
:101160003396A1E0E03CFA07A1F7822FDF91CF91FF
:101170000895982F89E1E8ECF8E0DF011D928A9547
:10118000E9F79430E8F4892F90E0FC01EE0FFF1F9F
:10119000E80FF91FEC54FE4F6081718161157105F4
:1011A00079F04281442361F04A3118F049E150E07E
:1011B00001C050E088EC98E00E94BB469C0102C050
:1011C00020E030E0C9010895BF92CF92DF92EF9204
:1011D000FF920F931F93CF93DF93EC01B62E60E045
:1011E00070E04B2D50E00E94804600E0CB2CDD24C7
:1011F0000894C108D10823C00E942744182F8830C2
:1012000011F08F3789F40023D1F00150FE01E00F77
:10121000F11D108288E00E941D4380E20E941D4360
:1012200088E00E941D430BC00E941D43FE01EE0D8D
:10123000FF1D1A3011F4108207C010830F5FE02EDB
:10124000FF24EC14FD04C4F2CE016B2D0E945C0857
:10125000802FDF91CF911F910F91FF90EF90DF9042
:10126000CF90BF900895CF92DF92EF92FF920F93AD
:101270001F93CF93DF93EC01162F60E070E0412FB6
:1012800050E00E94804600E0C12EDD240894C10891
:10129000D10823C00E942744182F883011F08F37BF
:1012A00089F40023D1F00150FE01E00FF11D1082FE
:1012B00088E00E941D4380E20E941D4388E00E9456
:1012C0001D430BC00E941D43FE01EE0DFF1D1A3190
:1012D00011F4108207C010830F5FE02EFF24EC147E
:1012E000FD04C4F2802FDF91CF911F910F91FF90E9
:1012F000EF90DF90CF9008950F931F93DF93CF93DC
:10130000CDB7DEB7E1970FB6F894DEBF0FBECDBF05
:101310000E94F51D882319F483E00E9416070E949D
:10132000292D88E79BE167E27DE146E759E120E36B
:101330003FE100E00E94CF169093C4048093C30461
:10134000892B79F488E79BE167E27DE146E759E183
:1013500020E33FE10FEF0E94CF169093C4048093E7
:10136000C3048091C3049091C4040E94B62F90934B
:10137000BB048093BA0460E071E08E010F5F1F4FE1
:10138000A8010E945D428091BA049091BB04B8010B
:101390000E94D4419093C6088093C508E1960FB689
:1013A000F894DEBF0FBECDBFCF91DF911F910F919B
:1013B0000895CF92DF92FF920F931F93CF93DF9305
:1013C0006B01EA01F22E132F15C08F2D912FBE0154
:1013D0000E949D46009749F0013061F4CE016F2DC7
:1013E000712F0E94A307813029F4C6010E9473293E
:1013F00081E007C0C6016F2D712F0E941D2E88232A
:1014000021F7DF91CF911F910F91FF90DF90CF9047
:101410000895CF92DF92EF92FF920F93DF93CF93D5
:10142000CDB7DEB7E1970FB6F894DEBF0FBECDBFE4
:101430007C016E010894C11CD11C960100E00E9441
:10144000D909882319F420E030E005C0C701B601AE
:101450000E9415429C01C901E1960FB6F894DEBFC7
:101460000FBECDBFCF91DF910F91FF90EF90DF9036
:10147000CF900895DF92EF92FF920F931F93DF9327
:10148000CF9300D000D0CDB7DEB78C016091C508F6
:101490007091C6088091BA049091BB04A8010E9483
:1014A000090A7C01009759F487EB99E00E941944DE
:1014B000C8010E940C448AE00E941D4319C0198291
:1014C0001A821B821C82BE016F5F7F4F42E00E9426
:1014D0009F3D882379F484EA99E00E941944C80169
:1014E0000E940C448AE00E941D43C7010E94072607
:1014F00080E06AC18CE30E941D43289A1092BE04CA
:101500001092BD041092C1041092C00480E090E0DB
:10151000FC01EB53FB4F1082019624E080309207D0
:10152000B9F78091C10080688093C1007894DD2470
:1015300000E010E0A5C00F5F1F4F83E109381807D6
:1015400008F49AC08091C0049091C104892B09F4D9
:101550007BC08091C0049091C1048050924009F4F6
:1015600073C08091C0049091C1048050924098F45F
:101570004091C0045091C104C70165EC74E00E9421
:10158000073E2091C0043091C10482179307D9F01F
:101590008DE899E016C04091C0045091C1044050BC
:1015A0005240C70165EC76E00E94073E2091C004DE
:1015B0003091C104205032408217930721F086E712
:1015C00099E00E9419448091C0049091C104815017
:1015D000924018F460E070E002C060E072E0F894BD
:1015E000AB011EC08091C0049091C104FC01EB537B
:1015F000FB4F2081FA01EB53FB4F20830196909320
:10160000C1048093C0048091C0049091C1048050B3
:10161000944020F01092C1041092C0044F5F5F4FBD
:101620002091C0043091C1048091BD049091BE040A
:1016300028173907B9F65093BE044093BD04709340
:10164000C1046093C00478940E944D1B08C0289880
:1016500083B7816083BF889583B78E7F83BF2091D6
:10166000C0043091C1048091BD049091BE0428173C
:10167000390769F300E010E081E090E00E9408077C
:101680002091C0043091C1048091BD049091BE04AA
:101690002817390709F44FCFE091C004F091C10435
:1016A000EB53FB4F90818091C708981761F4D39456
:1016B0008091BF04D81641F4F8948091C1008F77CF
:1016C0008093C10039C0DD248091C0049091C10491
:1016D00001969093C1048093C0048091C0049091BE
:1016E000C1048050924069F4C70165EC74E040E0A9
:1016F00052E00E94073E8050924019F08FE599E039
:1017000019C08091C0049091C1048050944009F0A8
:101710000FCF1092C1041092C004C70165EC76E0AF
:1017200040E052E00E94073E8050924009F400CF12
:1017300088E499E00E9419448091C0049091C1040A
:10174000892BC9F18091C0049091C10480509240CE
:1017500091F18091C0049091C1048050924098F41E
:101760004091C0045091C104C70165EC74E00E942F
:10177000073E2091C0043091C10482179307D9F02D
:1017800081E399E016C04091C0045091C1044050DB
:101790005240C70165EC76E00E94073E2091C004EC
:1017A0003091C104205032408217930721F08AE122
:1017B00099E00E941944C7010E940726289888E1F1
:1017C00099E00E94194481E00F900F900F900F90C4
:1017D000CF91DF911F910F91FF90EF90DF900895CF
:1017E0009F92AF92BF92CF92DF92EF92FF920F93B0
:1017F0001F93DF93CF93CDB7DEB7E1970FB6F89481
:10180000DEBF0FBECDBFF999FECF12BC83E081BD14
:10181000F89A30B5F999FECF12BC84E081BDF89AF0
:1018200020B53F3FA9F42F3F99F4F999FECF12BCA0
:1018300083E081BD10BCFA9AF99AF999FECF12BCE7
:1018400084E081BD10BCFA9AF99ACC24DD240EC044
:10185000922F80E0C32EDD24C82AD92A8EEFC81625
:101860008FEFD80619F485EC9BE04CC000D000D077
:1018700000D0EDB7FEB7319608EC18E0ADB7BEB7B3
:1018800012961C930E93119752E0E52E51E0F52E1F
:10189000F382E282D582C4820E94DD468DB79EB774
:1018A00006960FB6F8949EBF0FBE8DBF902E012FE7
:1018B0005E010894A11CB11C1E2DEF2C26C06901ED
:1018C00000D000D000D0EDB7FEB73196ADB7BEB7AF
:1018D00011969C92119712960C931283E382358392
:1018E00024830E94DD468DB79EB706960FB6F89406
:1018F0009EBF0FBE8DBF9EEFC9169FEFD90628F081
:1019000083EB9BE00E9419442CC08091C508909104
:10191000C60868EC78E0A5010E94D73A96012F5FCF
:101920003F4F882361F2932FF999FECF12BC83E0D9
:1019300081BD20BDFA9AF99AF999FECF12BC84E0D4
:1019400081BDF89A80B5891741F0F999FECF12BC94
:1019500084E081BD90BDFA9AF99A88EC98E00E94E3
:101960003A0AE1960FB6F894DEBF0FBECDBFCF9115
:10197000DF911F910F91FF90EF90DF90CF90BF907C
:10198000AF909F900895EF92FF920F931F93DF9374
:10199000CF93CDB7DEB7EE970FB6F894DEBF0FBE8C
:1019A000CDBF8E010F5F1F4FC8016EE071E00E9436
:1019B000A6466091C5087091C6088091BA049091BE
:1019C000BB04A8010E94090A7C010097A9F48EEECD
:1019D0009BE00E9419448091C5089091C608B80107
:1019E000AE01425F5F4F0E94D73A882329F487ED0A
:1019F0009BE00E94194407C0C7010E940726CE0140
:101A000001960E943A0AEE960FB6F894DEBF0FBE1A
:101A1000CDBFCF91DF911F910F91FF90EF9008956F
:101A20007F928F929F92AF92BF92CF92DF92EF926E
:101A3000FF920F931F93DF93CF93CDB7DEB7C155BE
:101A4000D0400FB6F894DEBF0FBECDBF8E010C5F45
:101A50001F4FC80169E171E00E94A6466091C50868
:101A60007091C608E1E2EE2EF12CEC0EFD1E809185
:101A7000BA049091BB04A801970100E00E94D90923
:101A8000882339F08091BA049091BB04B7010E9479
:101A9000702A8E010C5F1F4F8091C5089091C60877
:101AA000B801AE014F5D5F4F0E94D73A882319F409
:101AB00084E291E010C06091C5087091C6088091E1
:101AC000BA049091BB04A8010E94090A5C01009726
:101AD00029F481E491E00E940C44E7C0F999FECF1B
:101AE00012BC81E081BDF89A90B5F999FECF12BC85
:101AF00082E081BDF89A70B4F999FECF12BC85E0FE
:101B000081BDF89A90B4F999FECF12BC86E081BDF0
:101B1000F89A80B4992329F4CE0141966DE571E0DD
:101B200029C0943029F4CE01419662E671E022C0CA
:101B3000913029F4CE01419667E671E01BC09530E3
:101B400029F4CE0141966CE671E014C0963029F478
:101B5000CE01419662E771E00DC0923029F4CE01CA
:101B6000419668E771E006C0933031F4CE014196AA
:101B70006EE771E00E94A6468E010F5E1F4FC801FE
:101B800065E871E00E94874600D000D000D0EDB734
:101B9000FEB731967E010894E11CF11CADB7BEB7CB
:101BA0001296FC92EE92119767E8C62E61E0D62E4F
:101BB000D382C282948215820E94DD468DB79EB781
:101BC00006960FB6F8949EBF0FBE8DBFC801B70131
:101BD0000E948746C80165E871E00E94874600D0F0
:101BE00000D000D0EDB7FEB73196ADB7BEB71296B4
:101BF000FC92EE921197D382C282848215820E9457
:101C0000DD468DB79EB706960FB6F8949EBF0FBE01
:101C10008DBFC801B7010E948746C80165E871E021
:101C20000E94874600D000D000D0EDB7FEB73196B5
:101C3000ADB7BEB71296FC92EE921197D382C282D4
:101C4000748215820E94DD468DB79EB706960FB648
:101C5000F8949EBF0FBE8DBFC801B7010E94874692
:101C600085EC94E0B8010E94A646F801019000209E
:101C7000E9F73197E01BF10BC50165EC74E0AF01AA
:101C80000E94073EF80101900020E9F73197E01B20
:101C9000F10B8E179F0721F08AE891E00E940C4417
:101CA000C5010E9407260E944D1BCF5ADF4F0FB679
:101CB000F894DEBF0FBECDBFCF91DF911F910F9182
:101CC000FF90EF90DF90CF90BF90AF909F908F905C
:101CD0007F900895FF920F931F93DF93CF9300D0CF
:101CE00000D00F92CDB7DEB7F999FECF12BC82E0DB
:101CF00081BDF89AF0B48E010F5F1F4F89E992E021
:101D00000E94194485E892E00E941944FF2019F4CA
:101D10008CE792E00BC081E0F81619F480E792E0BE
:101D200005C082E0F81621F488E692E00E9419448A
:101D300086E692E00E94194480E492E00E941944F1
:101D40006091C70870E080E090E00E94A3438CE3BC
:101D500092E00E9419446091BF0470E080E090E03E
:101D60000E94A3438AE392E00E9419448EE292E02B
:101D70000E94194489E192E00E94194481E092E0B6
:101D80000E9419448EEE91E00E94194484ED91E086
:101D90000E9419448BEB91E00E9419448BE991E079
:101DA0000E94194482E991E00E9419448EE30E9446
:101DB0001D43C80165E00E94E408882309F49ECF12
:101DC000C80160E971E00E946046892B59F48EE7F2
:101DD00091E00E941944F999FECF12BC82E081BDC6
:101DE00010BC12C0C8016CE771E00E946046892BEC
:101DF00081F487E691E00E941944F999FECF12BC64
:101E000082E081BD81E080BDFA9AF99A0E94100DAE
:101E10008CC0C80165E671E00E946046892B51F4D0
:101E200085E591E00E941944F999FECF12BC82E049
:101E300081BDE9CFC80163E571E00E946046892B4E
:101E4000A9F484E391E00E941944F999FECF12BCF1
:101E500083E081BD10BCFA9AF99AF999FECF12BCC1
:101E600084E081BD10BCFA9AF99A5FC0C80162E3B0
:101E700071E00E946046892B09F583E191E00E94A0
:101E800019440E942744982F8093C708F999FECFE0
:101E900012BC85E081BD90BDFA9AF99A0E94100D9E
:101EA0008BEF90E00E9419446091C70870E080E0D9
:101EB00090E00E94A34389EF90E035C0C80167EF2E
:101EC00070E00E946046892B21F587EC90E00E942B
:101ED00019440E942744982F90539A30B0F790935A
:101EE000BF04F999FECF12BC86E081BD90BDFA9A7D
:101EF000F99A0E94100D81EA90E00E9419446091C5
:101F0000BF0470E080E090E00E94A3438FE990E07E
:101F10000AC0C8016DE970E00E946046892B09F093
:101F2000EDCE84E990E00E9419440F900F900F903D
:101F30000F900F90CF91DF911F910F91FF90089517
:101F4000FF920F931F93DF93CF9300D000D00F9297
:101F5000CDB7DEB7F999FECF12BC81E081BDF89A0A
:101F6000F0B48E010F5F1F4F8AE094E00E94194485
:101F700080E094E00E94194484E0F81619F48DEF93
:101F800093E022C0FF2019F48AEF93E01DC081E0A6
:101F9000F81619F487EF93E017C085E0F81619F4E6
:101FA00083EF93E011C086E0F81619F48FEE93E00A
:101FB0000BC082E0F81619F48BEE93E005C083E0C5
:101FC000F81621F486EE93E00E9419448EED93E01A
:101FD0000E94194482ED93E00E94194485EC93E03D
:101FE0000E94194488EB93E00E9419448BEA93E025
:101FF0000E9419448DE993E00E9419448FE893E010
:102000000E94194481E893E00E94194482E793E01A
:102010000E94194489E693E00E9419448EE30E94CD
:102020001D43C80165E00E94E408882309F49CCFA1
:10203000C80167E673E00E946046892B59F481E588
:1020400093E00E941944F999FECF12BC81E081BD52
:1020500010BC6BC0C8016FE473E00E946046892B1E
:1020600059F489E393E00E941944F999FECF12BC18
:1020700081E081BD84E058C0C80167E373E00E943D
:102080006046892B51F481E293E00E941944F9994A
:10209000FECF12BC81E081BD47C0C8016FE173E093
:1020A0000E946046892B59F488E093E00E9419440D
:1020B000F999FECF12BC81E081BD85E035C0C80131
:1020C00066E073E00E946046892B59F48FEE92E03F
:1020D0000E941944F999FECF12BC81E081BD86E0CF
:1020E00023C0C8016DEE72E00E946046892B59F44E
:1020F00086ED92E00E941944F999FECF12BC81E06E
:1021000081BD82E011C0C80164ED72E00E946046AA
:10211000892B99F48CEB92E00E941944F999FECF37
:1021200012BC81E081BD83E080BDFA9AF99A0E94D9
:10213000100D85E00E9416070CC0C8016AEB72E022
:102140000E946046892B09F00FCF80EB92E00E943D
:1021500019440F900F900F900F900F90CF91DF9137
:102160001F910F91FF9008952F923F924F925F928F
:102170006F927F928F929F92AF92BF92CF92DF9297
:10218000EF92FF920F931F93DF93CF93CDB7DEB7FC
:10219000C357D0400FB6F894DEBF0FBECDBF1EE0D0
:1021A000412E512C4C0E5D1EB3E46B2E712C6C0E27
:1021B0007D1EA6E02A2E312C2C0E3D1E8EE30E94A1
:1021C0001D43C20168E10E94E4088823B9F380E05E
:1021D0000E94B9088C0163E47BE00E946046892B71
:1021E000A9F489E29BE00E9419448091BA0490917D
:1021F000BB040E94F71F8091C3049091C4040E9405
:10220000C7160E947C0980E19BE024C4C8016EE0EF
:102210007BE00E946046892B39F0C80169E07BE0D1
:102220000E946046892B19F40E94E007C7CFC801BD
:1022300064E07BE00E946046892B19F40E94A00FA5
:10224000BDCFC80160E07BE00E946046892B19F495
:102250000E946A0EB3CFC8016DEF7AE042E050E011
:102260000E946946892BC1F582E0B2010E942D08C7
:10227000882309F0A3CF81E00E94B9087C01009770
:1022800009F49CCF6091C5087091C6088091BA048A
:102290009091BB04A701930100E00E94D909882313
:1022A000A9F08091BA049091BB04B3010E94D4417B
:1022B0008C01009759F08091C5089091C6080E9442
:1022C0006D291093C6080093C50878CF87EE9AE071
:1022D0000E941944C701C6C3C80164EE7AE00E9497
:1022E0006046892B09F044C081E00E94B9087C0156
:1022F000F4E2DF2E33C0E114F10431F0C701B30181
:102300000E94A307882351F1D3010D900020E9F723
:102310008D010150104006191709C3010E940C4499
:10232000F30180A184FD02C080E201C08FE21D2D77
:10233000101B0E941D4304C080E20E941D431150E7
:102340001123D1F7D30195966D917D918D919C913B
:1023500098970E94A3438AE00E941D438091C5087C
:102360009091C608B3010E941D2E882321F626CF26
:10237000C80160EE7AE043E050E00E946946892B94
:1023800009F04DC082E0B2010E942D08882309F0B7
:1023900015CF81E00E94B9088C01009709F40ECF97
:1023A0006091C5087091C6088091BA049091BB04F1
:1023B000A8010E94090A5C01009721F0CC24DD24C9
:1023C000760122C081ED9AE04AC3C701B6010E949E
:1023D00052438AE30E941D43810180E20E941D4313
:1023E000F80181918F010E942C43802F8219891559
:1023F000A0F38AE00E941D4388E090E0A0E0B0E0F6
:10240000C80ED91EEA1EFB1EC501B10148E050E00E
:102410000E940D26982E8823C1F6C5017DC0C801F3
:102420006CEC7AE044E050E00E946946892B09F0A8
:10243000E2C081E00E94B9088C01009709F4BECE89
:102440006091C5087091C6088091BA049091BB0450
:10245000A8010E94090A4C01009719F48DEB9AE03B
:10246000FEC282E00E94B908AC01009709F457C08F
:10247000FC0101900020E9F73197E81B20E030E0F3
:102480006E2F70E00BC0FA01E20FF31F808190E025
:10249000C0970A9708F043C02F5F3F4F26173707B2
:1024A00094F38A0120E030E040E050E017C0CA0118
:1024B000B9012AE030E040E050E00E947E499B01F3
:1024C000AC018F2D90E0C097AA2797FDA095BA2F59
:1024D000280F391F4A1F5B1F0F5F1F4FD801FC9049
:1024E0008F2D80538A3018F32A833B834C835D837E
:1024F000C401BE016E5F7F4F40E00E949F3D882374
:1025000071F48BEA9AE00E941944C2010E940C44C3
:102510008AE00E941D43C4010E9407264FCE83E03B
:102520000E94B908AC010097E1F1FC010190002084
:10253000E9F73197E81B20E030E06E2F70E00AC029
:10254000FA01E20FF31F808190E0C0970A9748F5E7
:102550002F5F3F4F261737079CF36A01EE24FF24B5
:10256000870118C0C801B7012AE030E040E050E020
:102570000E947E497B018C018B2D90E0C097AA2799
:1025800097FDA095BA2FE80EF91E0A1F1B1F08948D
:10259000C11CD11CF601B0808B2D80538A3010F302
:1025A00018C0EE24EA94FE2C870113C09981892F6C
:1025B00080528F3510F4892F05C09A3011F48AE0CB
:1025C00001C08EE20E941D430894E108F108010950
:1025D0001109C401BE016F5F7F4F41E050E00E94CE
:1025E0000D26181619060CF093CFE114F10401051D
:1025F0001105E1F68DCFC80166EA7AE00E946046D7
:10260000892B09F0B4C0E090BA04F090BB04E11447
:10261000F10409F4A9C0CE0186960E9424188823EB
:1026200009F4A2C088EA9BE00E9419448EA10E948E
:102630002C438AE00E941D438FE99BE00E941944CD
:10264000CE0187960E940C448AE00E941D4386E9D1
:102650009BE00E941944CE018A960E940C448AE0B5
:102660000E941D438DE89BE00E94194488A90E94A6
:102670002C438AE00E941D4382E89BE00E9419449B
:1026800069A97AA98BA99CA90E9452438AE00E9459
:102690001D4389E79BE00E9419448EA990E00E94A7
:1026A00065438FE20E941D438DA990E00E9465431F
:1026B0008AE00E941D4380E79BE00E9419442FA9F5
:1026C00038AD49AD5AAD6BAD7CAD8DAD9EAD04E17D
:1026D0000E944445B901CA010E94A3438CE69BE0D5
:1026E0000E94194483E69BE00E9419448FAD90E05C
:1026F0000E9465438AE00E941D438AE59BE00E9498
:10270000194422968FAD229790E00E9465438FE294
:102710000E941D4321968FAD219790E00E94654352
:102720008AE00E941D4381E59BE00E9419442396A4
:102730008FAD239790E00E9465438AE00E941D437D
:1027400088E49BE00E941944C7010E94A22BB901B2
:10275000CA010E94A3438FE20E941D43C7010E9449
:10276000452BB901CA012FC08DE89AE073C1C80199
:1027700068E87AE044E050E00E946946892B59F508
:1027800082E0B2010E942D08882309F017CD81E074
:102790000E94B908AC01009709F410CD6091C508FA
:1027A0007091C6088091BA049091BB04930100E037
:1027B0000E94D909882351F0D30195966D917D919E
:1027C0008D919C9198970E94A3434EC183EA91E01A
:1027D0000E940C44F3CCC80165E87AE042E050E086
:1027E0000E946946892B89F583E0B2010E942D0879
:1027F000882309F0E3CC81E00E94B9087C010097AE
:10280000A1F4DCCC8091BA049091BB04B3010E9486
:10281000702A882351F48FE69AE00E941944C2017D
:102820000E940C448AE00E941D436091C50870918B
:10283000C6088091BA049091BB04A701930101E0FE
:102840000E94D9098823F1F6B9CCC8016BE67AE079
:1028500043E050E00E946946892BF1F482E0B20126
:102860000E942D08882309F0A9CC81E00E94B908B4
:10287000BC01009709F4A2CC8091C5089091C608CC
:10288000A3010E94D73A882309F098CC85E59AE005
:102890000E941944C201E6C0C8016FE47AE045E035
:1028A00050E00E946946892B09F08FC081E00E94A8
:1028B000B9085C01009709F481CC82E00E94B90854
:1028C0008C010097C9F0FC0101900020E9F73197D5
:1028D000E81B20E030E04E2F50E00BC0F801E20F83
:1028E000F31F808190E0C0970A9708F067CC2F5FB4
:1028F0003F4F2417350794F36091C5087091C608BF
:102900008091BA049091BB04A5010E94090A7C0140
:10291000009729F020E030E040E050E01DC080E466
:102920009AE00E941944C5019DC0CA01B9012AE07C
:1029300030E040E050E00E947E499B01AC018D2DCB
:1029400090E0C097AA2797FDA095BA2F280F391FAE
:102950004A1F5B1F0F5F1F4FF801D0808D2D8053E2
:102960008A3018F32A833B834C835D83C701BE0101
:102970006E5F7F4F40E00E949F3D882359F48EE2B6
:102980009AE00E941944C5010E940C448AE00E940A
:102990001D4319C08CE30E941D43C20168E10E94DF
:1029A000E408182F882379F0C701B201412F50E0C5
:1029B0000E94073E212F30E08217930759F387E1E9
:1029C0009AE00E941944C701A7CDC80160E17AE0EE
:1029D00046E050E00E946946892B81F482E0B20112
:1029E0000E942D08882309F0E9CB81E00E94B908F4
:1029F000009709F4E3CB0E943A0AE0CBC8016DE0EE
:102A00007AE042E050E00E946946892BA9F481E017
:102A10000E94B9088C01009709F4D0CB8091C508B9
:102A20009091C608B801A3010E94EE38882309F0EE
:102A3000C5CB82EF99E013C0C8016DEE79E00E942A
:102A40006046892B51F40E944D1B882309F0B6CBB8
:102A500089ED99E00E941944B1CB87EC99E00E947E
:102A60001944C8010E940C448AE00E941D43A6CB71
:102A70004F925F926F927F928F929F92AF92BF928E
:102A8000CF92DF92EF92FF920F931F93DF93CF933A
:102A9000CDB7DEB7C555D0400FB6F894DEBF0FBE38
:102AA000CDBF58E0E52EF12CEC0EFD1EC70169E10B
:102AB00071E00E94A6466091C5087091C608809199
:102AC000BA049091BB04A7019E012B5D3F4F00E02B
:102AD0000E94D909882309F4EEC06091C50870915D
:102AE000C6088091BA049091BB04A7010E94090A0C
:102AF0007C01009729F48FEF9BE00E941944DDC010
:102B000045E1A42EB12CAC0EBD1EB50140E150E054
:102B10000E940D26682EC7010E94072611E0992405
:102B20003AE1832E23E0722EDD24CC247E0108942A
:102B3000E11CF11C250197E0A92EB12CAC0EBD1EA5
:102B40007BC0ED93D3948A2F8E19F201ED0DF11D08
:102B5000E081EC3229F0D61418F4AA15BB0589F7E8
:102B6000F701E80FF11D1082CC20F1F5C7016DE5EA
:102B700071E00E949D46009711F410E05BC0C70110
:102B800062E671E00E949D46009711F414E052C085
:102B9000C70167E671E00E949D46009709F449C0AD
:102BA000C7016CE671E00E949D46009711F415E0A4
:102BB00041C0C70162E771E00E949D46009711F491
:102BC00016E038C0C70168E771E00E949D46009793
:102BD00011F412E02FC0C7016EE771E00E949D461C
:102BE000009739F513E026C081E0C81649F4C70103
:102BF0000E944246882E1816ECF08AE1882E1AC0F0
:102C000082E0C81651F4C7010E944246782E8150D6
:102C10008A3080F003E0702E0DC083E0C81681F486
:102C2000C7010E944246982E8150853018F09924A1
:102C300001C011E0C394D394D61410F4D70183CF0C
:102C40008091C204181769F0F999FECF12BC81E097
:102C500081BD10BDFA9AF99A1093C204812F0E9487
:102C6000EE428091BC04981651F09092BC04F99900
:102C7000FECF12BC82E081BD90BCFA9AF99A809195
:102C8000C708881651F08092C708F999FECF12BC88
:102C900085E081BD80BCFA9AF99A8091BF047816CC
:102CA00051F07092BF04F999FECF12BC86E081BD4D
:102CB00070BCFA9AF99A0E94100DCB5ADF4F0FB6EA
:102CC000F894DEBF0FBECDBFCF91DF911F910F9162
:102CD000FF90EF90DF90CF90BF90AF909F908F903C
:102CE0007F906F905F904F9008950F931F9382E0B5
:102CF00085BD80916400896C8093640083B7817F77
:102D000083BF83B7816083BF209A219A0E943407D2
:102D10008823A9F00E9463060E947C090E94100D7E
:102D2000289A299A01E012E084EF91E00E940807B6
:102D300085B1802785B985B1812785B9F5CF0E94F6
:102D400086068091C2040E94EE428BE19CE00E94C4
:102D500019440E947C0989E19CE00E9419440E9468
:102D600038151F910F9108950E9475168091BC042B
:102D7000882311F40E94F00B8091BC04813011F47F
:102D80000E94C30C0E94B41080E090E00895FC0102
:102D9000009711F480E00895108681E008954F9225
:102DA0005F926F927F928F929F92BF92CF92DF92AB
:102DB000EF92FF920F931F93DF93CF93CDB7DEB7C0
:102DC00060970FB6F894DEBF0FBECDBF6C014B010C
:102DD0003A012901B02E009709F49CC061157105D4
:102DE00009F498C083E080170CF494C007FD25C057
:102DF000802F992787FD9095B4E0880F991FBA9589
:102E0000E1F782549E4FFC01FF0FEE0BFE2F9C0159
:102E10004E2F5E2F6E2F7E2F8E2F9E2F8E010F5FD7
:102E20001F4FE0E1EE2EF12CF6010995882309F4FD
:102E300071C08D81882309F46DC08091C8018823F9
:102E400009F068C080C08D818093C8012A8530E078
:102E500040E050E0542F432F322F22278B8590E003
:102E6000A0E0B0E0DC0199278827282B392B4A2BDA
:102E70005B2B898590E0A0E0B0E0282B392B4A2B12
:102E80005B2B8C8590E0A0E0B0E0B82FAA279927B3
:102E90008827282B392B4A2B5B2B2093C901309391
:102EA000CA014093CB015093CC012E8530E040E025
:102EB00050E0542F432F322F22278F8590E0A0E03F
:102EC000B0E0DC0199278827282B392B4A2B5B2B74
:102ED0008D8590E0A0E0B0E0282B392B4A2B5B2BAE
:102EE000888990E0A0E0B0E0B82FAA27992788272A
:102EF000282B392B4A2B5B2B2093CD013093CE010D
:102F00004093CF015093D00103C08FEF8093C8014D
:102F10009F0102C020E030E0C90160960FB6F8942E
:102F2000DEBF0FBECDBFCF91DF911F910F91FF90FC
:102F3000EF90DF90CF90BF909F908F907F906F9099
:102F40005F904F900895E0ECF1E081E1DF011D9288
:102F50008A95E9F7D092C101C092C0019092C30155
:102F60008092C2017092C5016092C4015092C70163
:102F70004092C601B7FE67CFC8CF81E0089580E0D8
:102F80000895282F8FEF8EBD0DB407FEFDCF8DB5B0
:102F90008F778DBD8EB5822F80648EBD0DB407FEF8
:102FA000FDCF8DB58F778DBD872F9927AA27BB279A
:102FB0008EBD0DB407FEFDCF8DB58F778DBDCB01D6
:102FC000AA27BB278EBD0DB407FEFDCF8DB58F7729
:102FD0008DBDBB27A72F962F852F8EBD0DB407FE65
:102FE000FDCF8DB58F778DBD4EBD0DB407FEFDCFE6
:102FF0008DB58F778DBD222319F0283069F406C076
:1030000085E98EBD0DB407FEFDCF0BC087E88EBDF0
:103010000DB407FEFDCF05C08FEF8EBD0DB407FECA
:10302000FDCF8DB58F778DBD90E02FEF2EBD0DB408
:1030300007FEFDCF8DB58F778DBD8EB58F3F19F40F
:103040009F5F9A3099F708958F929F92AF92BF92A7
:10305000CF92DF92EF92FF920F931F93CF93DF9364
:10306000EC01009791F08DE1FE0111928A95E9F74C
:10307000299A2C988AE040E050E060E070E00E94DD
:10308000C117882321F029982C9A80E022C19FEF54
:103090009EBD0DB407FEFDCF8DB58F778DBD8EB56E
:1030A0008E3FB1F71C2FCE01FC0160E670E00FEF00
:1030B0009E2F911B0EBD0DB407FEFDCF8DB58F77F2
:1030C0008DBD2EB5983028F4933088F4992359F0AB
:1030D0000CC09D3018F4993070F40BC09D3019F17C
:1030E0009E3069F524C028832AC0208328C021830C
:1030F00026C02A8724C030E040E050E0062E04C0FD
:10310000220F331F441F551F0A94D2F78B859C85CD
:10311000AD85BE85822B932BA42BB52B8B879C87EB
:10312000AD87BE870CC02295207F2F8708C0922FC5
:1031300092959F708F85892B8F872F70288B319662
:10314000685070408FEF603D780709F0B1CF89E09B
:1031500040E050E060E070E00E94C117882309F071
:1031600092CF9FEF9EBD0DB407FEFDCF8DB58F773B
:103170008DBD8EB58E3FB1F78091DA03C82EDD2468
:10318000E2E0CE22DD249924BB24EE24FF2410E0CB
:1031900088248A94AA24A3948EBC0DB407FEFDCF84
:1031A0008DB58F778DBD2EB51E3081F4822F90E0C6
:1031B00026FDA98E85FDAA8E84FDAB8E8C70907045
:1031C00095958795959587958C8F7CC0C114D10472
:1031D00039F1173029F0173050F01A3040F401C09F
:1031E0002F739E2D8827E22EFF24E82AF92A193012
:1031F00009F068C00894E11CF11C970140E050E020
:1032000060E070E080E090E003E10E94C345298B1C
:103210003A8B4B8B5C8B6D8B7E8B8F8B988F52C0D8
:103220001730D9F0183030F4153061F0163009F04D
:1032300049C00CC0193031F11930C0F01A3009F012
:1032400041C025C07FE0972E92223CC0822F90E0A3
:1032500083709070F82EEE2435C0822F90E0E82A1B
:10326000F92AEE0CFF1CEE0CFF1C2CC022952695B3
:1032700026952370822F90E0E82AF92A0894E11C11
:10328000F11C20C043E0B42EB222BB0C1BC0221F95
:103290002227221FB22A970140E050E0E92DF0E0FA
:1032A0003296EB0DF11D04C0220F331F441F551F32
:1032B000EA95D2F7298B3A8B4B8B5C8B1D8A1E8A41
:1032C0001F8A188E1F5F123109F066CF29982C9A39
:1032D00081E0DF91CF911F910F91FF90EF90DF90F0
:1032E000CF90BF90AF909F908F9008952F923F9274
:1032F0004F925F926F927F928F929F92AF92BF9206
:10330000CF92DF92EF92FF920F931F93DF93CF93B1
:10331000CDB7DEB72C970FB6F894DEBF0FBECDBF8A
:1033200039014A015B016C011A830983FC82EB823B
:1033300093C1BFEF4B2EB1E05B2E46205720920188
:10334000A62DA419AA87E1E06A1608F0E0E0872D0F
:10335000831B21E0781608F020E0B82FBE1BBD8348
:1033600091E08B1708F090E0292BE82DE21BEE830B
:1033700031E08E1608F030E0F92DF31BFF8361E099
:103380009F1608F060E02A2D261B288771E0A21600
:1033900008F070E02B2C271A91E0B21408F090E0AE
:1033A0003C2C391A91E0C31408F090E03D2D391BF4
:1033B000398780E092E0841995099C878B87AB81DF
:1033C000BC81A817B90710F4BC87AB878091D103E3
:1033D000BA858B1709F58091D203ED818E17E1F440
:1033E0008091D303FE818F17B9F48091D4032F818C
:1033F000821791F48091D5033885831769F4809101
:10340000D603821549F48091D703831529F480915E
:10341000D80399858917A9F10E944D1B882309F4C7
:1034200022C14114510429F4AB85BC85A050B2409F
:1034300090F42A853D814E815F816885722D832DB0
:10344000998501ED11E0E12CA2E0FA2E0E94781B93
:10345000882309F408C1FA85F093D1032D812093C4
:10346000D2033E813093D3038F818093D403988518
:103470009093D5032092D6033092D703A985A093C9
:10348000D803E981FA81E15DF140A1F092012F5268
:103490003E4FC90169817A814B855C850E947746E0
:1034A0001092D9038B819C81AB85BC858A179B07C1
:1034B00009F4D7C0299A2C988091DA0382FF0FC0B3
:1034C0002A853D814E815F816885722D832D998586
:1034D00009E00E944445BA01A9019B0105C08A8503
:1034E0009D812E813F81AC0188E1B9010E94C11705
:1034F000882319F029982C9AB6C0BEEFBEBD0DB432
:1035000007FEFDCF8DB58F778DBDE1EDF1E08191A7
:103510008EBD0DB407FEFDCF8DB58F778DBD23E039
:10352000E13DF207A1F73FEF3EBD0DB407FEFDCF31
:103530008DB58F778DBD8FEF8EBD0DB407FEFDCF9E
:103540008DB58F778DBD9FEF9EBD0DB407FEFDCF6E
:103550008DB58F778DBD8EB58F3FA9F78EBD0DB41C
:1035600007FEFDCF8DB58F778DBD8EB529982C9A2E
:10357000A981BA81EB85FC85AE0FBF1FBA83A983F1
:103580009F0140E050E060E070E080E090E0462C79
:103590004E0EF1E0461408F0F0E0E72DE30FA1E055
:1035A000E71508F0A0E05F2E5E0EF1E05E1608F071
:1035B000F0E0AF2BE82DE40FB1E0E81508F0B0E043
:1035C000EA2EEE0EF1E0EE1608F0F0E0BF2BE92D4A
:1035D000E50FA1E0E91508F0A0E0FB2EFE0EF1E0FA
:1035E000FE1608F0F0E0AF2BEA2DE60FB1E0EA1589
:1035F00008F0B0E00A2F0E0FF1E00E1708F0F0E02F
:10360000BF2BEB2DE70FA1E0EB1508F0A0E01B2F7F
:103610001E0FF1E01E1708F0F0E0AF2BEC2DE80FC5
:10362000B1E0EC1508F0B0E0AE0FF1E0AE1708F035
:10363000F0E0BF2B8D2D890F3201470158016D013C
:10364000D80E2B813C818B859C85281B390B3C83B4
:103650002B8391E09093D903AB81BC81AB2B09F014
:1036600068CE81E001C080E02C960FB6F894DEBFF2
:103670000FBECDBFCF91DF911F910F91FF90EF90C3
:10368000DF90CF90BF90AF909F908F907F906F9082
:103690005F904F903F902F900895EF92FF920F937D
:1036A0001F938091D903882311F081E01CC02091E1
:1036B000D1033091D2034091D3035091D403609150
:1036C000D5037091D6038091D7039091D80301ED73
:1036D00011E0E12CE2E0FE2E0E947619882319F019
:1036E00081E08093D9031F910F91FF90EF9008958F
:1036F0002F923F924F925F926F927F928F929F9202
:10370000AF92BF92CF92DF92EF92FF920F931F93EF
:10371000DF93CF93CDB7DEB729970FB6F894DEBF0E
:103720000FBECDBF39014A015B016C012801FA824D
:10373000E9826EC1FFEFEF2EF1E0FF2EE620F720C9
:103740009701A62DAE19AF83E1E06A1608F0E0E01C
:10375000872D831B21E0781608F020E0B82FBE1BD0
:10376000BB8391E08B1708F090E0292B382C321A9C
:1037700031E0831408F030E0192D131B61E091163D
:1037800008F060E0EA2DE61BEC8371E0AE1608F06D
:1037900070E0FB2DF71BFD8391E0BF1608F090E071
:1037A0002C2C291A91E0C21408F090E02D2D291B31
:1037B0002E8380E092E08E199F0999878887A981DE
:1037C000BA81A817B90710F4B987A8878091D103E7
:1037D000BF818B1709F58091D203EB818E17E1F43D
:1037E0008091D3038315C1F48091D4038117A1F490
:1037F0008091D503FC818F1779F48091D6032D81B8
:10380000821751F48091D703821531F48091D80347
:103810003E81831709F486C00E944D1B882309F45A
:10382000FDC0299A2C988091DA0382FF0FC02F8166
:103830003B81432D512F6C817D81822D9E8109E03A
:103840000E944445BA01A9019B0105C08F819B815B
:10385000232D312FAC0181E1B9010E94C1178823CA
:1038600021F029982C9A80E0D9C08FEF8EBD0DB43D
:1038700007FEFDCF8DB58F778DBD8EB58E3FA9F735
:10388000E1EDF1E09FEF9EBD0DB407FEFDCF8DB5DC
:103890008F778DBD8EB58083A3E0E03DFA0711F0F0
:1038A0003196F0CFBF81B093D103EB81E093D20387
:1038B0003092D3031093D403FC81F093D5032D8170
:1038C0002093D6032092D7033E813093D8039701EB
:1038D0002F523E4FC201B901488559850E94774653
:1038E0008FEF8EBD0DB407FEFDCF8DB58F778DBDEB
:1038F0008EB59FEF9EBD0DB407FEFDCF8DB58F77C2
:103900008DBD8EB529982C9AAFEFAEBD0DB407FED4
:10391000FDCFE885F9854E0E5F1E8DB58F778DBD85
:103920008EB50DC097012F523E4FC201B901488597
:1039300059850E94774628853985420E531E898114
:103940009A81A885B9858A1B9B0B9A838983AD01CF
:1039500060E070E080E090E0A0E0B0E0262C240E73
:1039600031E0261408F030E0272D250FE1E027157F
:1039700008F0E0E0332E320E31E0321608F030E08D
:10398000E32B282D260FF1E0281508F0F0E0EE2EAD
:10399000E20E31E0E21608F030E0F32B292D270F7C
:1039A000E1E0291508F0E0E0FF2EF20E31E0F2161A
:1039B00008F030E0E32B2A2D280FF1E02A1508F05B
:1039C000F0E00E2F020F31E0021708F030E0F32B89
:1039D0002B2D290FE1E02B1508F0E0E01F2F120F2F
:1039E00031E0121708F030E0E32B2C2D2A0FF1E024
:1039F0002C1508F0F0E0E20F31E0E21708F030E0BB
:103A0000F32B8D2D8B0F3101470158016F01D80E1B
:103A1000E981FA81EF2B09F08DCE81E029960FB66E
:103A2000F894DEBF0FBECDBFCF91DF911F910F91F4
:103A3000FF90EF90DF90CF90BF90AF909F908F90CE
:103A40007F906F905F904F903F902F9008952F92AE
:103A50003F924F925F926F927F928F929F92AF921E
:103A6000BF92CF92DF92EF92FF920F931F93DF935B
:103A7000CF93CDB7DEB760970FB6F894DEBF0FBE19
:103A8000CDBF522E432E4B835C836D837E838F8309
:103A90009887180137019A8289820115110509F466
:103AA00088C0E114F10409F484C0CE14DF0408F4E2
:103AB00080C0A114B10409F47CC0882499248E1814
:103AC0009F08CE18DF08970140E050E060E070E00A
:103AD00080E090E0E9863A874B875C876D877E8738
:103AE0008F87988B252D342D4B815C816D817E8154
:103AF0008F819885810173010E94781B882309F4C6
:103B000058C0C101052D142D2B813C814D815E8152
:103B10006F817885E980FA80F5010995882309F499
:103B20004AC0C80CD91CC601860D971D861597057D
:103B300008F441C03985350D91E0351508F090E065
:103B40008A85840D21E0841508F020E0192F180FD4
:103B500091E0181708F090E0922B4B81940F81E0D0
:103B6000941708F080E06C81680F81E05C81651734
:103B700008F080E05D81580F81E07D81571708F0E3
:103B800080E04E81480F81E02E81421708F080E0EE
:103B90007F81870F21E0871708F020E0532E412E08
:103BA0009B836C835D834E838F838885820F888798
:103BB00099CF80E001C081E060960FB6F894DEBF37
:103BC0000FBECDBFCF91DF911F910F91FF90EF906E
:103BD000DF90CF90BF90AF909F908F907F906F902D
:103BE0005F904F903F902F9008958F929F92BF9239
:103BF000CF92DF92EF92FF920F931F93CF93DF93B9
:103C0000259A279A249A269829982C9A83E58CBD80
:103C10008DB58E7F8DBD1092DA0390E02FEF2EBD13
:103C20000DB407FEFDCF8DB58F778DBD8EB59F5F2F
:103C30009A30A9F7299A2C9800E010E080E040E043
:103C400050E060E070E00E94C117F82E81E0F816A5
:103C500041F081E00F3F180709F4C3C00F5F1F4F09
:103C6000EDCF88E04AEA51E060E070E00E94C117C1
:103C700082FD2DC08FEF8EBD0DB407FEFDCF8DB53B
:103C80008F778DBD8EB58FEF8EBD0DB407FEFDCF46
:103C90008DB58F778DBD8EB58FEF8EBD0DB407FEC0
:103CA000FDCF8DB58F778DBD0EB400FECCC08FEFEC
:103CB0008EBD0DB407FEFDCF8DB58F778DBD8EB552
:103CC0008A3A09F0C0C082E08093DA0312C087E329
:103CD00040E050E060E070E00E94C11789E240E0FF
:103CE00050E060E070E00E94C11782FD02C0F092D7
:103CF000DA03B090DA038B2D90E003E0802E912C54
:103D00008822992212E0C12ED12CC822D922C0E0EB
:103D1000D0E081149104B9F0C114D10431F0E12C48
:103D2000F12C012DB0E41B2F03C0EE24FF248701EA
:103D300087E340E050E060E070E00E94C11789E254
:103D4000B801A70105C081E040E050E060E070E00C
:103D50000E94C11780FF07C08FE7CF3FD80709F443
:103D600040C02196D6CFCD2899F18AE340E050E0BB
:103D700060E070E00E94C117882399F58FEF8EBD37
:103D80000DB407FEFDCF8DB58F778DBD0EB406FE49
:103D900004C084E0B82AB092DA038FEF8EBD0DB470
:103DA00007FEFDCF8DB58F778DBD8EB58FEF8EBDA4
:103DB0000DB407FEFDCF8DB58F778DBD8EB58FEF1E
:103DC0008EBD0DB407FEFDCF8DB58F778DBD8EB541
:103DD00080E140E052E060E070E00E94C11788237B
:103DE00019F029982C9A2FC029982C9A8CB58C7F81
:103DF0008CBD8DB581608DBD8FEF8093D103809395
:103E0000D2038093D3038093D4038093D50380930C
:103E1000D6038093D7038093D80381E08093D9039E
:103E200020E030E040E050E060E070E080E090E0D2
:103E300001ED11E0E12CA2E0FA2E0E94781B88230C
:103E400019F081E001C080E0DF91CF911F910F91C7
:103E5000FF90EF90DF90CF90BF909F908F9008954C
:103E60002F923F924F925F926F927F928F929F928A
:103E7000AF92BF92CF92DF92EF92FF920F931F9378
:103E8000DF93CF93CDB7DEB728970FB6F894DEBF98
:103E90000FBECDBF922E832E542E452E362E272EAA
:103EA0008D839E833801F886EF82DA82C982BC82D4
:103EB000AB820115110509F47EC0CD2809F47BC041
:103EC000BB24EF2809F06EC0BB24B3946BC0C301C0
:103ED000092D182D252D342D432D522D6D817E81D8
:103EE000EB80FC80A981BA81FD0109956C010097E6
:103EF00009F463C0BB2031F4EF81F885E817F907B6
:103F000008F459C0292D382D452D542D632D722DBF
:103F10008D819E81830176010E947619882309F4A0
:103F20004AC09601F92DFC0DE1E0F91508F0E0E03A
:103F3000882D830F21E0881508F020E01E2F180F30
:103F400091E0181708F090E0922B950D81E09515FF
:103F500008F080E0682F640D81E0641508F080E0CF
:103F6000582F530D81E0531508F080E0482F420D83
:103F700081E0421508F080E02D81820F21E03D8133
:103F8000831708F020E09F2E812E592E462E1A010D
:103F90008D838E81820F8E83AF81B885AC19BD0968
:103FA000B887AF83BB2009F092CFEF81F885EF2B64
:103FB00009F08DCF02C080E001C081E028960FB6E5
:103FC000F894DEBF0FBECDBFCF91DF911F910F914F
:103FD000FF90EF90DF90CF90BF90AF909F908F9029
:103FE0007F906F905F904F903F902F900895FC01CD
:103FF000009711F01182108208958F929F92AF92D4
:10400000BF92CF92DF92EF92FF920F931F93DF93B5
:10401000CF9300D000D000D0CDB7DEB7DC01009741
:1040200009F4F0C0423051056105710508F4EAC099
:10403000ED91FC91119780858B3009F09DC012E0C5
:10404000440F551F661F771F1A95D1F75A016B0150
:10405000EE24FF2487011A969C901A971B968C9148
:104060001B971C966C911C971D967C911D971E9614
:104070009C911E971F962C911F9750968C9050974D
:104080005196BC919A0C31E09A1408F030E08B0DF7
:1040900041E08B1508F040E0380F51E0381708F088
:1040A00050E0452B8C2D860F51E08C1508F050E028
:1040B000480F61E0481708F060E0562B8D2D870F00
:1040C00061E08D1508F060E0580F71E0581708F0B6
:1040D00070E0672B71E09E1508F070E0690F81E0D9
:1040E000691708F080E0782B81E02F1508F080E058
:1040F000720FA1E0721708F0A0E08A2B91E0801601
:1041000008F090E0880DA1E0881508F0A0E09A2B57
:104110000190F081E02D292D9B0F8E010D5F1F4F27
:10412000A4E0EA2EF12C0995882309F46BC02B81B9
:104130003C814D815E81211531054105510509F410
:1041400065C0273F8FEF38078FEF48078FE058078C
:1041500009F458C0DA01C901805F9F4FAF4FBF40DB
:104160000797A105B10508F44DC0DA01C901885FC0
:104170009F4FAF4FBF4042C0440F551F661F771F70
:104180001A96AD90BD90CD90DC901D97A40EB51EF3
:10419000C61ED71E0190F081E02D9501A60160E0BA
:1041A00070E080E090E08E010F5F1F4FA2E0EA2EEA
:1041B000F12C0995882331F189819A819C0140E095
:1041C00050E0211531054105510501F1273F8FEFE1
:1041D000380780E0480780E05807A1F0DA01C901FC
:1041E000805F9F4FA040B0400797A105B10550F0F8
:1041F000DA01C901885F9F4FA040B0400897A10530
:10420000B10520F420E030E040E050E0B901CA01FF
:1042100026960FB6F894DEBF0FBECDBFCF91DF91CB
:104220001F910F91FF90EF90DF90CF90BF90AF90D4
:104230009F908F9008952F923F924F925F926F922E
:104240007F928F929F92AF92BF92CF92DF92EF9226
:10425000FF920F931F93DF93CF93CDB7DEB7609795
:104260000FB6F894DEBF0FBECDBF4C01009709F426
:1042700082C1423051056105710508F47CC1DC0141
:104280001A96BC91B887FC01F385F987DC011C966E
:10429000BC91BA87FC01F585FB87DC011E96BC91B9
:1042A000BC87FC01F785FD87DC015096BC91BE8779
:1042B000FC01F189FF87DC01ED91FC9180858B3059
:1042C00009F0BAC012E0440F551F661F771F1A95F8
:1042D000D1F780E090E0A0E0B0E0E885E40FE88B63
:1042E00031E0E41708F030E02985250FE1E02517DB
:1042F00008F0E0E0320F3F8331E0FF81F21708F071
:1043000030E0E32B2A85260FF1E0261708F0F0E0D5
:104310002E2E220E31E0221608F030E0F32B2B85F2
:10432000270F31E0271708F030E03F2E320EE1E092
:10433000321608F0E0E03E2B21E0EC85E81708F0AB
:1043400020E04C84430E31E0FC854F1608F030E04D
:10435000232B31E0ED85E91708F030E05D84520E43
:1043600021E0FD855F1608F020E0322B21E0EE858C
:10437000EA1708F020E06E84630E91E0FE856F1668
:1043800008F090E0722E792A2F85720ED401ED91FB
:10439000FC910190F081E02D28893F81A101B201BB
:1043A000C3018E010D5F1F4FB4E0EB2EF12C099578
:1043B000882309F4E0C0AB80BC80CD80DE80A114EE
:1043C000B104C104D10409F4D8C0D601C501805F8D
:1043D0009F4FAF4FBF400897A105B10508F4CBC070
:1043E000D601C501885F9F4FAF4FBF400897A10519
:1043F000B10518F4AA24BB2465011B821C821D820E
:104400001E82D401ED91FC910480F581E02D288974
:104410003F81A101B201C3018E010D5F1F4FA4E0D6
:10442000EA2EF12C0995B601A501A114B104C1042D
:10443000D10409F047CFA1C0440F551F661F771F55
:1044400080E090E0A0E0B0E02884240E31E0241663
:1044500008F030E02985250FE1E0251708F0E0E0BD
:10446000332E320E31E0321608F030E0E32B2A858D
:10447000260FF1E0261708F0F0E04E2E420E31E054
:10448000421608F030E0F32B2B85270F31E0271779
:1044900008F030E05F2E520EE1E0521608F0E0E046
:1044A0003E2B21E0EC85E81708F020E06C84630ED9
:1044B00031E0FC856F1608F030E0232B31E0ED850C
:1044C000E91708F030E07D84720E21E0FD857F164B
:1044D00008F020E0322B21E0EE85EA1708F020E01A
:1044E000AE84A30E91E0FE85AF1608F090E0B22EE8
:1044F000B92A2F85B20ED401ED91FC910190F08183
:10450000E02D9101A201B301C5018E010F5F1F4F84
:10451000B2E0EB2EF12C0995882369F1C980DA808D
:10452000C114D10451F1C6014096089720F1B8EFAB
:10453000CB16BFEFDB0610F0CC24DD241A821982E3
:10454000D401ED91FC910480F581E02D9101A2014F
:10455000B301C5018E010F5F1F4FA2E0EA2EF12CBF
:104560000995A60160E070E04115510561057105EE
:1045700009F062CF02C080E001C081E060960FB612
:10458000F894DEBF0FBECDBFCF91DF911F910F9189
:10459000FF90EF90DF90CF90BF90AF909F908F9063
:1045A0007F906F905F904F903F902F9008952F9243
:1045B0003F924F925F926F927F928F929F92AF92B3
:1045C000BF92CF92DF92EF92FF920F931F93DF93F0
:1045D000CF93CDB7DEB7AD970FB6F894DEBF0FBE61
:1045E000CDBF9D8F8C8F3A014B01B901009709F423
:1045F000EDC2DC01ED91FC911197E080F180FB8E22
:10460000EA8E24813581398F288F1A963C911A972A
:104610003CA31B964C911B974DA31C965C911C9739
:104620005EA31D968C911D978FA31E969C911E973D
:1046300098A71F96AC91A9A7AC8DBD8D5096BC9143
:10464000BAA7AC8DBD8D5196BC91BBA71F86808546
:104650008B3011F4E1E0EF87EC8DFD8D8289938939
:10466000A489B589FF85FF2351F09C01AD0182E04B
:1046700056954795379527958A95D1F706C09C01A1
:10468000AD015695479537952795288B398B4A8BE1
:104690005B8BC801DB018C8B9D8BAE8BBF8BAA24FF
:1046A000BB24650182E090E0A0E0B0E08B879C87AE
:1046B000AD87BE87A4E0EA2EF12C012D112DEF82EB
:1046C000F88609871A8778C1FF84FF2009F47BC028
:1046D0008F819885A985BA85880F991FAA1FBB1F4E
:1046E0009C01AD0160E070E080E090E00CA1020F61
:1046F0000CA7F1E0021708F0F0E0EDA1E30FA1E054
:10470000E31708F0A0E0FE0FFE8FF1E01E8D1E17EC
:1047100008F0F0E0AF2BEEA1E40FB1E0E41708F0F1
:10472000B0E0AE0FAF8FF1E0AE1708F0F0E0BF2BB6
:10473000EFA1E50FF1E0E51708F0F0E0BE0FB8A338
:10474000A1E0BE1708F0A0E0FA2BE1E0A8A5A617AB
:1047500008F0E0E028A42F0EF1E0B8A52B1608F031
:10476000F0E0EF2BF1E0E9A4E71608F0F0E039A45F
:104770003E0EE1E0F9A43F1408F0E0E0FE2BE1E09A
:104780000AA5081708F0E0E04AA44F0E91E01AA528
:10479000411608F090E05E2E592A2BA5520E2CA54A
:1047A0003E8D4F8D58A1B101C2018E010D5F1F4F8B
:1047B000E4E0EE2EF12CAA8DBB8DFD010995882336
:1047C00009F07EC003C2EF80F88409851A85A8012C
:1047D000970160E070E080E090E0FCA0F20EFDA6A2
:1047E000F1E0F21608F0F0E0EDA1E30FA1E0E3172D
:1047F00008F0A0E0FE0FF9A3F1E009A10E1708F000
:10480000F0E0AF2BEEA1E40FB1E0E41708F0B0E068
:10481000AE0FAAA3F1E0AE1708F0F0E0BF2BEFA1B6
:10482000E50FA1E0E51708F0A0E0BE0FBBA3F1E0A3
:10483000BE1708F0F0E0AF2BE8A5E60FB1E0E617F1
:1048400008F0B0E02A2E2E0EF1E02E1608F0F0E06F
:10485000BF2BE9A5E70FA1E0E71708F0A0E03B2E8A
:104860003E0EF1E03E1608F0F0E0AF2BEAA5E80FAF
:10487000B1E0E81708F0B0E04A2E4E0EF1E04E1617
:1048800008F0F0E05B2E5F2A8BA5890F580E2DA54E
:1048900039A14AA15BA1B101C2018E010F5F1F4F77
:1048A000B2E0EB2EF12CAA8DBB8DFD01099588237A
:1048B00009F48CC189819A81892B09F066C02CC0CA
:1048C0008B819C81AD81BE810097A105B10509F066
:1048D0005CC0A114B104C104D10469F4AFEFEA2EA5
:1048E000AFEFFA2EAFEF0A2FAFE01A2FEB82FC8268
:1048F0000D831E8304C0AB82BC82CD82DE822CA5D8
:104900003E8D4F8D58A1B101C2018E010D5F1F4F29
:10491000F4E0EF2EF12C18C0A114B104C104D104AD
:1049200029F4EFEFFFEFFA83E98302C0BA82A9828C
:104930002DA539A14AA15BA1B101C2018E010F5F72
:104940001F4FE2E0EE2EF12CA88DB98DFD010995E7
:10495000882309F43FC00C891D892E893F890150A5
:104960001040204030400C8B1D8B2E8B3F8B01154F
:1049700011052105310529F4AB84BC84CD84DE8486
:1049800032C0AB84BC84CD84DE842B853C854D85D0
:104990005E852F5F3F4F4F4F5F4F2B873C874D8783
:1049A0005E878F819885A985BA850296A11DB11D64
:1049B0008F839887A987BA87EB84FC840D851E8531
:1049C000288939894A895B89E216F30604071507A5
:1049D00008F47ACE8C899D89AE89BF890097A1059C
:1049E000B10509F0EDC092E06916710481049104EB
:1049F00008F4EFC0AF85AA2309F471C0AB82BC8272
:104A0000CD82DE82B2E0660C771C881C991CBA95B8
:104A1000D1F7B401A30180E090E0A0E0B0E02CA1C8
:104A2000260D31E0261508F030E0EDA1E50F11E08C
:104A3000E51708F010E03E0FF1E03E1708F0F0E057
:104A40001F2BEEA1E60F01E0E61708F000E0912E23
:104A50009E0EF1E09E1608F0F0E00F2BEFA1E70F9D
:104A6000F1E0E71708F0F0E0E02EEE0E11E0EE16B0
:104A700008F010E0F12BE1E0F8A4F81608F0E0E00F
:104A8000F8A4FF0EF1E008A5F01608F0F0E0EF2B17
:104A9000F1E019A5191708F0F0E009A50E0FE1E003
:104AA00019A5011708F0E0E0FE2B11E0EAA5EA17CE
:104AB00008F010E08AA58F0FE1E0FAA58F1708F043
:104AC000E0E01E2B492D5E2D6F2D702F9BA5910FC1
:104AD0008E010D5F1F4FA4E0EA2EF12C6BC0BA824D
:104AE000A982660C771C881C991CB401A30180E084
:104AF00090E0A0E0B0E02CA1260D31E0261508F0F2
:104B000030E0EDA1E50F11E0E51708F010E03E0FF1
:104B1000F1E03E1708F0F0E01F2BEEA1E60F01E0F8
:104B2000E61708F000E0912E9E0EF1E09E1608F0C8
:104B3000F0E00F2BEFA1E70FF1E0E71708F0F0E04E
:104B4000E02EEE0E11E0EE1608F010E0F12BE1E0A1
:104B5000F8A4F81608F0E0E0F8A4FF0EF1E008A5CC
:104B6000F01608F0F0E0EF2BF1E019A5191708F0A6
:104B7000F0E009A50E0FE1E019A5011708F0E0E04B
:104B8000FE2B11E0EAA5EA1708F010E08AA58F0FC6
:104B9000E1E0FAA58F1708F0E0E01E2B492D5E2D0D
:104BA0006F2D702F9BA5910F8E010F5F1F4FE2E0BD
:104BB000EE2EF12CA88DB98DFD010995882349F4BD
:104BC0008C8D9D8DB601A5010E941B21AA24BB24BA
:104BD0006501B501C601AD960FB6F894DEBF0FBEF4
:104BE000CDBFCF91DF911F910F91FF90EF90DF909C
:104BF000CF90BF90AF909F908F907F906F905F907D
:104C00004F903F902F90089580E190E00895FC012F
:104C1000009711F01182108208952F923F924F92C7
:104C20005F926F927F928F929F92AF92BF92CF923C
:104C3000DF92EF92FF920F931F93DF93CF93CDB745
:104C4000DEB768970FB6F894DEBF0FBECDBF988F62
:104C50008F8B7E876D87588B4F87009709F41EC313
:104C6000672B09F41BC34115510509F417C3DC0177
:104C7000D396AC90D397D496BC90D497D596CC903D
:104C8000D597D696DC90D697D796EC90D797D896AE
:104C9000FC90D897D9960C91D997DA961C91DA970F
:104CA00097962D903D904D905C909A979A0140E098
:104CB00050E060E070E080E090E0B22FBA0DBA8B77
:104CC000F1E0B21708F0F0E0E32FEB0D9924939494
:104CD000E31708F09924FE0FF98BF1E0A989AE17CC
:104CE00008F0F0E09F2AE42FEC0DB1E0E41708F0A3
:104CF000B0E0692C6E0EF1E06E1608F0F0E0BF2B0C
:104D0000E52FED0DA1E0E51708F0A0E07B2E7E0E6B
:104D1000F1E07E1608F0F0E0AF2BE62FEE0DB1E0EB
:104D2000E61708F0B0E08A2E8E0EF1E08E1608F03D
:104D3000F0E0BF2BE72FEF0DA1E0E71708F0A0E0B0
:104D40009B2E9E0EF1E09E1608F0F0E0AF2BE82FB0
:104D5000E00FB1E0E81708F0B0E0AE0FF1E0AE17F9
:104D600008F0F0E0EB2FEF2B892F810FE80FA20165
:104D7000910160E070E080E090E09E17F0F0E917AC
:104D800021F58A17D0F0A81701F57915B0F097161C
:104D9000E1F4681590F08616C1F4571570F0751699
:104DA000A1F4461550F0641681F4B9893B1728F038
:104DB000B31759F4EA892E1640F491012A193B09D8
:104DC000388B2F87232B09F46CC2AF89B88DED91F6
:104DD000FC911197208D318D3C872B87DB968D912F
:104DE0009D910D90BC91A02D8F839887A987BA873C
:104DF0000097A105B10509F059C0AF89B88D939608
:104E00002D913D914D915C9196972F8338874987DD
:104E10005A87211531054105510559F48A2D8B29F1
:104E20008C298D298E298F29802B812B09F439C259
:104E300035C28A2D8B298C298D298E298F29802B8B
:104E4000812BA1F135014601EB85FC851F0144242E
:104E5000552422273327A90122193309440955096A
:104E60002B8B3C8B4D8B5E8B1CC0AF89B88D8D918D
:104E70009C914F81588569857A850E94FD1F6F83BB
:104E8000788789879A87611571058105910509F4ED
:104E900005C22B893C894D895E89620E731E841E72
:104EA000951E6214730484049504F8F64B855C85A2
:104EB000415050405C874B874A215B215C834B8388
:104EC0008B859C8501969C878B87AF85B889BE832F
:104ED000AD83EF89F88D0190F081E02DFA83E983AD
:104EE000309709F48EC02F81388549855A85223044
:104EF00031054105510508F484C02250304040403E
:104F0000504059016A012E5F3F4F4F4F5F4F2F8333
:104F1000388749875A87208C318C9501A60160E03B
:104F200070E080E090E05101CC24DD24EE24FF24E9
:104F300000E010E00E944944E981FA81A28DF38CDF
:104F4000B48D058DE68CD78CC0A011A1A20FF1E025
:104F5000A21708F0F0E0232F2F0DE1E0231708F04F
:104F6000E0E0FF2EF20E31E0F21608F030E0E32B25
:104F7000242F2B0FF1E0241708F0F0E0BE2FB20F22
:104F800031E0B21708F030E0F32B252F200F41E07D
:104F9000251708F040E0F20F31E0F21708F030E09A
:104FA000432B262F2E0D51E0261708F050E0E42F5A
:104FB000E20F31E0E21708F030E0532B272F2D0DE0
:104FC00041E0271708F040E0520F31E0521708F097
:104FD00030E0432B282F2C0D31E0281708F030E06B
:104FE000420F81E0421708F080E0732E782A190FF3
:104FF0002A2F9F2D6B2F7F2FAE2FB52F342E710EA2
:1050000008C020E090E060E070E0A0E0B0E0332471
:1050100077248B849C844B815C81841A950AED8172
:10502000FE81E815F90508F44F01E981FA81408015
:1050300051804B815C815A01CC24DD24EE24FF2475
:105040008701622E640E31E0621608F030E0892F8D
:105050008B0D41E0891708F040E0380F91E03817D8
:1050600008F090E0492B862F8C0D51E0861708F050
:1050700050E0480F91E0481708F090E0592B872F37
:105080008D0D61E0871708F060E0580F91E0581728
:1050900008F090E0692B8A2F8E0D71E08A1708F0D6
:1050A00070E0680F91E0681708F090E0792B9B2F73
:1050B0009F0D81E09B1708F080E0790FA1E0791740
:1050C00008F0A0E08A2BA32DA00F91E0A31508F013
:1050D00090E08A0FB1E08A1708F0B0E09B2B710EC8
:1050E000D201ED91FC91262D970D0D851E85740141
:1050F0000995882309F4AFC02D813E81281939090B
:105100003E832D83940140E050E060E070E080E059
:1051100090E0AF89B88DD3961C91D397D496DC904C
:10512000D497D596BC91EF89F88D06A9E7A8A0ACD5
:1051300071ACF2AC180DF1E0181508F0F0E0ED2DAF
:10514000E30FA1E0E31708F0A0E0BF2EBE0EF1E0F0
:10515000BE1608F0F0E0AF2BE42FEB0FB1E0E41740
:1051600008F0B0E0CA2ECE0EF1E0CE1608F0F0E066
:10517000BF2BE52FE00FA1E0E51708F0A0E0DB2E44
:10518000DE0EF1E0DE1608F0F0E0AF2BE62FEE0DBC
:10519000B1E0E61708F0B0E0EA2EEE0EF1E0EE1610
:1051A00008F0F0E0BF2BE72FEA0DA1E0E71708F0C9
:1051B000A0E00B2F0E0FF1E00E1708F0F0E0AF2B80
:1051C000E82FE70DF1E0E81708F0F0E0AA2EAE0EA8
:1051D000A1E0AE1608F0A0E0FA2BF90EFF0DAF89A2
:1051E000B88DD3961C93D397D496BC92D497D5966A
:1051F000CC92D597D696DC92D697D796EC92D79745
:10520000D8960C93D897D996AC92D997DA96FC9306
:10521000DA978B819C81880D991DEB85FC858E1713
:105220009F0710F18D919C914F81588569857A85F2
:105230000E94FD1F6F83788789879A8761157105A2
:105240008105910579F4AF89B88DDB961D921D9289
:105250001D921C92DE974F855889ED81FE814E1B71
:105260005F0B21C01C821B822F81388549855A859E
:10527000AF89B88DDB962D933D934D935C93DE976C
:10528000ED81FE81EF2B39F02D853E85280D391DEE
:105290003E872D871ECE4F85588905C04FEF5FEFA3
:1052A00002C040E050E0CA0168960FB6F894DEBF35
:1052B0000FBECDBFCF91DF911F910F91FF90EF9067
:1052C000DF90CF90BF90AF909F908F907F906F9026
:1052D0005F904F903F902F900895FC01009711F040
:1052E000118210820895FC01009711F480E0089566
:1052F00083A194A1A5A1B6A183AB94ABA5ABB6AB9A
:1053000010AE17AA81E00895CF92DF92EF92FF923C
:105310000F931F93CF93DF936C01FB01B701D7016C
:10532000CD91DC91119712968D919C911397809657
:1053300013969C938E931297D6018C91853E09F417
:10534000C3C0882309F4C0C089A59AA5892B9BA551
:10535000892B9CA5892B9DA5892B9EA5892B9FA573
:10536000892B98A9892B41F409A71AA72BA73CA739
:105370004DA75EA7EFA7F8AB209709F4A7C0C1140B
:10538000D10409F4A3C0F6019081992309F49EC0C9
:1053900083858F3029F5892F90E08F7390702DE0F1
:1053A00030E0829FA001839F500D929F500D1124E9
:1053B0004D505040A7EAB1E0C40FD51F0DC08D91EC
:1053C000F601E80FF11D808189934F5F5F4FF1E097
:1053D000A43BBF0709F478C04F31510580F374C076
:1053E0008881882309F04DC0A601DE01860120E0F6
:1053F000F8019081903299F09C93F601848583FFA7
:1054000008C0F8018081813420F08B3510F4905E63
:105410009C932F5F0F5F1F4F1196283049F78881AB
:10542000853011F485EE8883D60118968C918032F0
:1054300021F1FE01E20FF11D8EE28083322F3F5FEA
:105440002C5FFA0190859032B9F0FE01E30FF11D57
:105450009083D6011C968C9184FF09C0DA011896BE
:105460008C91813420F08B3510F4905E90833F5FF7
:105470004F5F5F4F321729F7232FFE01E20FF11D17
:105480001082F601838588A3228D338D40E050E0A1
:1054900084899589A0E0B0E0DC0199278827822BD8
:1054A000932BA42BB52B89A39AA3ABA3BCA3848D68
:1054B000958DA68DB78D8DA39EA3AFA3B8A781E0D0
:1054C000DB0114968C9302C081E001C080E0DF9183
:1054D000CF911F910F91FF90EF90DF90CF900895A3
:1054E0002F923F924F925F926F927F928F929F92F4
:1054F000AF92BF92CF92DF92EF92FF920F931F93E2
:10550000DF93CF93CDB7DEB72C970FB6F894DEBFFD
:105510000FBECDBF3C016B01009709F49CC0611523
:10552000710509F498C0DB019996BC9099979A96F9
:10553000AC909A979B969C909B979C968C909C97EE
:105540009D965C909D979E964C909E979F963C90C2
:105550009F97D0962C908B2D8A2989298829852977
:1055600084298329822909F476C0D301ED91FC9125
:105570000190F081E02D2B2D3A2D492D582D652DD0
:10558000742D832D922D8E010F5F1F4FACE0EA2EFC
:10559000F12C0995882309F45EC0B5EEB983D301D7
:1055A000ED91FC910480F581E02D2B2D3A2D492DB4
:1055B000582D652D742D832D922D8E010F5F1F4F59
:1055C0000995882309F447C08C858F3079F57B2DA8
:1055D000705E81E07B1508F080E0682F6A0D81E045
:1055E0006A1508F080E0582F590D81E0591508F030
:1055F00080E0482F480D81E0481508F080E0382F02
:10560000350D81E0351508F080E0282F240D81E06C
:10561000241508F080E0830D91E0831508F090E0F8
:105620005B014A012901382E290E9FCFF60141A1C5
:1056300052A163A174A1411551056105710539F0AD
:10564000C3010E941B2120E030E0882311F021E0FB
:1056500030E0822F01C080E02C960FB6F894DEBFB8
:105660000FBECDBFCF91DF911F910F91FF90EF90B3
:10567000DF90CF90BF90AF909F908F907F906F9072
:105680005F904F903F902F9008952F923F924F92AE
:105690005F926F927F928F929F92AF92BF92CF92C2
:1056A000DF92EF92FF920F931F93DC01009749F472
:1056B00020E030E040E050E060E070E080E090E02A
:1056C00030C0ED91FC911197808552962D913D91BE
:1056D0004D915C9155975896ED91FC9159978B306F
:1056E00041F412E056954795379527951A95D1F7CD
:1056F00004C0569547953795279522503040404035
:10570000504059016A01A60160E070E080E090E03D
:105710005F01CC24DD24EE24FF2400E010E00E9491
:1057200049441F910F91FF90EF90DF90CF90BF9071
:10573000AF909F908F907F906F905F904F903F9031
:105740002F9008952F923F924F925F926F927F9287
:105750008F929F92AF92BF92CF92DF92EF92FF9281
:105760000F931F93DF93CF93CDB7DEB7E0970FB6BC
:10577000F894DEBF0FBECDBF3C01009709F4F8C01E
:1057800019821A821B821C8280E290E09E838D83A4
:10579000D3011A96BC91B9A7F301F385FAA7D301F7
:1057A0001C96BC91BBA7F301F585FCA7D3011E96FF
:1057B000BC91BDA7F301F785FEA7D3015096BC911C
:1057C000BFA7F301F189F8ABD30152962D903D901C
:1057D0004D905C905597ADC0BEEF2B16BFEF3B06CA
:1057E000B0E04B06B0E05B0628F0EEEFFFEFF8A765
:1057F000EFA302C038A62FA2D301ED91FC91A281A4
:10580000B3818085863019F0EFEFFCE202C0E9ED4C
:10581000FCE229A53AA54BA55CA56DA57EA58FA5A3
:1058200098A98E01095F1F4FEE24FF246894E5F8C4
:10583000CFA0D8A45F014E010894811C911CFD01EA
:105840000995882309F494C0CFA0D8A45601CC248C
:10585000DD24EE24FF248701F9A5FA0D91E0B9A516
:10586000FB1708F090E08AA58B0D21E0EAA58E17C2
:1058700008F020E0392F380F91E0381708F090E059
:10588000292B8BA58C0D51E09BA5891708F050E0C2
:10589000422F480F91E0481708F090E0592B8CA553
:1058A0008D0D21E0ACA58A1708F020E0580F91E09B
:1058B000581708F090E0292B8DA58E0D71E0BDA53D
:1058C0008B1708F070E0622F680F91E0681708F0FE
:1058D00090E0792B8EA58F0D21E0EEA58E1708F0B4
:1058E00020E0780F91E0781708F090E0292B9FA531
:1058F000900FE1E08FA5981708F0E0E0822F890F64
:1059000021E0891708F020E0E22B98A9910FF9A770
:105910003AA74BA75CA76DA77EA78FA79E0F98AB52
:10592000EFA1F8A5CF01A0E0B0E0281A390A4A0A91
:105930005B0A211431044104510409F04DCFD30115
:1059400058964D915C91599729803A804B805C80A4
:105950009A0140E050E060E070E080E090E05101AA
:105960006201EE24FF2400E010E00E94494408C0D8
:1059700020E030E040E050E060E070E080E090E067
:10598000E0960FB6F894DEBF0FBECDBFCF91DF918A
:105990001F910F91FF90EF90DF90CF90BF90AF904D
:1059A0009F908F907F906F905F904F903F902F903F
:1059B0000895EF92FF92CF93DF93EC01F7014481BA
:1059C000558120E030E012C088819981892B59F4FB
:1059D00080819181A281B3810196A11DB11D808337
:1059E0009183A283B3832E5F3F4F229624173507FE
:1059F00058F381E0DF91CF91FF90EF900895EF92FF
:105A0000FF92CF93DF93EC01F7014481558120E0B1
:105A100030E016C088819981AA81BB810097A105D9
:105A2000B10559F480819181A281B3810196A11DB4
:105A3000B11D80839183A283B3832C5F3F4F249653
:105A40002417350738F381E0DF91CF91FF90EF9075
:105A500008958EE2EBEDF3E0DF011D928A95E9F700
:105A60008FE3E9E0F4E0DF011D928A95E9F782E730
:105A7000E8E4F4E0DF011D928A95E9F708952F929A
:105A80003F924F925F926F927F928F929F92AF92CE
:105A9000BF92CF92DF92EF92FF920F931F93DF930B
:105AA000CF93CDB7DEB762970FB6F894DEBF0FBEC7
:105AB000CDBF9A8B898B423051056105710510F479
:105AC00080E0A2C089899A89892B49F420E030E0DE
:105AD00040E050E060E070E010E090E07BC04250B9
