:100000000C946B060C9488060C9488060C94880655
:100010000C9488060C9488060C9488060C94880628
:100020000C9488060C9488060C9488060C94880618
:100030000C9488060C9488060C9488060C94880608
:100040000C9488060C9488060C9488060C948806F8
:100050000C948A060C9488060C9488060C948806E6
:100060000C9488060C9488060C9488060C948806D8
:100070000C9488060C9488060C948806293A200073
:10008000746F6F206D616E7920617267756D656E3A
:100090007473280045786974696E670A0078000AED
:1000A000000A4E756D626572206F6620657363612C
:1000B00070652063686172616374657273206E6538
:1000C000656465643A2000456E746572206E756DD6
:1000D000626572206F662065736361706520636876
:1000E000617261637465727320746F206C6F6F6BE3
:1000F00020666F723A200036000A000A4E657720AB
:1001000065736361706520636861726163746572B1
:100110003A2000456E7465722061206E6577206517
:100120007363617065206368617261637465723ABC
:10013000200035004E65772066696C65206E756D10
:1001400062657220726573657420746F207A6572BF
:100150006F0A003400436F6D6D616E642070726FC2
:100160006D70740A003300417070656E64206669BA
:100170006C65206C6F6767696E670A0032004E65B8
:10018000772066696C65206C6F6767696E670A0027
:100190003100782920457869740A003629204E7587
:1001A0006D626572206F66206573636170652063A0
:1001B0006861726163746572730A003529204E6547
:1001C0007720657363617065206368617261637431
:1001D00065720A003429205265736574206E657754
:1001E0002066696C65206E756D6265720A00332940
:1001F00020436F6D6D616E642070726F6D70740A54
:1002000000322920417070656E642066696C65203B
:100210006C6F6767696E670A003129204E65772029
:1002200066696C65206C6F6767696E670A00436872
:10023000616E676520746F3A0A000A00207820001A
:1002400043757272656E74206573636170652063B7
:10025000686172616374657220616E6420616D6FA4
:10026000756E743A20000A00436F6D6D616E640014
:10027000417070656E642066696C65004E6577201C
:1002800066696C650043757272656E7420626F6F8B
:1002900074206D6F64653A20000A53797374656D3C
:1002A00020436F6E66696775726174696F6E0A00CC
:1002B0000A45786974696E670A0078000A476F69B1
:1002C0006E6720746F203233303430306270732E9A
:1002D0002E2E0A0038000A476F696E6720746F205F
:1002E0003131353230306270732E2E2E0A003700D5
:1002F0000A476F696E6720746F2035373630306279
:1003000070732E2E2E0A0036000A476F696E672022
:10031000746F2033383430306270732E2E2E0A0002
:1003200035000A476F696E6720746F2031393230AB
:10033000306270732E2E2E0A0034000A476F696EE9
:100340006720746F20393630306270732E2E2E0A7B
:100350000033000A476F696E6720746F20343830AD
:10036000306270732E2E2E0A0032000A476F696EBB
:100370006720746F20323430306270732E2E2E0A54
:10038000003100782920457869740A003829203224
:100390003330343030206270730A00372920313115
:1003A00035323030206270730A00362920353736F6
:1003B0003030206270730A003529203338343030F1
:1003C000206270730A0034292031393230302062C3
:1003D00070730A0033292039363030206270730A76
:1003E0000032292034383030206270730A003129FD
:1003F0002032343030206270730A004368616E67C7
:100400006520746F3A0A003030206270730A00323F
:10041000333034003131353200353736003338343B
:100420000031393200393600323400343800437537
:100430007272656E743A20000A4261756420436FDF
:100440006E66696775726174696F6E3A0A006261FF
:1004500075640909093A204D656E7520746F206333
:100460006F6E66696775726520626175642072617E
:1004700074650A007365740909093A204D656E7543
:1004800020746F20636F6E6669677572652073797B
:100490007374656D20626F6F74206D6F64650A0000
:1004A0000A4D656E75733A0A0073796E630909091E
:1004B0003A20456E737572657320616C6C206275AD
:1004C0006666657265642064617461206973207773
:1004D00072697474656E20746F207468652063613E
:1004E00072640A00696E69740909093A20526569E3
:1004F0006E697469616C697A657320616E642072DB
:10050000656F70656E7320746865206D656D6F72C0
:100510007920636172640A006469736B0909093A9E
:100520002053686F77732063617264206D616E750C
:1005300066616374757265722C207374617475736F
:100540002C2066696C6573797374656D20636170C6
:10055000616369747920616E6420667265652073D9
:10056000746F726167652073706163650A007369F7
:100570007A65203C66696C653E09093A20577269C4
:1005800074652073697A65206F662066696C6520E2
:10059000746F207465726D696E616C0A00726561BA
:1005A00064203C66696C653E203C73746172743EE5
:1005B000203C6C656E6774683E09093A2057726981
:1005C000746573204153434949203C6C656E6774E0
:1005D000683E207061727473206F66203C66696C9F
:1005E000653E20746F20746865207465726D696E55
:1005F000616C207374617274696E67206174203C51
:1006000073746172743E2E204F6D6D6974203C735B
:10061000746172743E20616E64203C6C656E677418
:10062000683E20746F20726561642077686F6C6526
:100630002066696C650A00636174203C66696C65BC
:100640003E09093A20577269746573206120686514
:100650007864756D70206F66203C66696C653E201D
:10066000746F20746865207465726D696E616C0AC0
:10067000006C730909093A2053686F777320746816
:100680006520636F6E74656E74206F662074686594
:100690002063757272656E74206469726563746F2D
:1006A00072792E205573652077696C64636172647A
:1006B00020746F20646F20612077696C64636172BD
:1006C00064206C697374696E67206F662066696C5C
:1006D000657320696E2063757272656E742064693B
:1006E000726563746F72790A006364202E2E0909A3
:1006F0003A204368616E67657320746F206C6F7772
:100700006572206469726563746F727920696E2006
:10071000747265650A006364203C64697265637481
:100720006F72793E09093A204368616E67657320EC
:1007300063757272656E7420776F726B696E672075
:100740006469726563746F727920746F203C6469A8
:10075000726563746F72793E0A006D64203C64694F
:10076000726563746F72793E093A204372656174F1
:1007700065732061206469726563746F72792063A8
:10078000616C6C6564203C6469726563746F727936
:100790003E0A00726D203C66696C653E09093A208C
:1007A00044656C65746573203C66696C653E2E20FB
:1007B0005573652077696C646361726420746F207F
:1007C000646F20612077696C646361726420726574
:1007D0006D6F76616C206F662066696C65730A00C8
:1007E0007772697465203C66696C653E203C6F6673
:1007F000667365743E093A20577269746573207494
:1008000065787420746F203C66696C653E2C20739B
:1008100074617274696E672066726F6D203C6F66DA
:10082000667365743E2E2054686520746578742064
:10083000697320726561642066726F6D20746865EB
:1008400020554152542C206C696E65206279206CD1
:10085000696E652E2046696E6973682077697468D1
:1008600020616E20656D707479206C696E650A0078
:10087000617070656E64203C66696C653E09093A7A
:1008800020417070656E6473207465787420746F95
:1008900020656E64206F66203C66696C653E2E2084
:1008A000546865207465787420697320726561648A
:1008B0002066726F6D20746865205541525420691E
:1008C0006E20612073747265616D20616E642069B1
:1008D00073206E6F74206563686F65642E204669AF
:1008E0006E6973682062792073656E64696E672033
:1008F0004374726C2B7A2028415343494920323685
:10090000290A006E6577203C66696C653E09093AE4
:100910002043726561746573203C66696C653E0AAC
:1009200000417661696C61626C6520636F6D6D6119
:100930006E64733A0A000A53444C6F67676572200D
:1009400076312E310A007E006572726F72207772E6
:100950006974696E6720746F2066696C650A00654A
:1009600072726F722077726974696E6720746F207B
:1009700066696C650A006572726F722077726974BD
:10098000696E6720746F2066696C650A0065727213
:100990006F722077726974696E6720746F20666960
:1009A0006C650A006572726F722077726974696E85
:1009B0006720746F2066696C650A006572726F72D9
:1009C0002077726974696E6720746F2066696C6540
:1009D0000A006572726F722077726974696E67209F
:1009E000746F2066696C650A006572726F72207799
:1009F000726974696E6720746F2066696C650A009D
:100A00006572726F722077726974696E6720746F95
:100A10002066696C650A006572726F722077726970
:100A200074696E6720746F2066696C650A00657270
:100A3000726F722077726974696E6720746F2066B6
:100A4000696C650A006572726F72207772697469E9
:100A50006E6720746F2066696C650A00216572728A
:100A60006F72207365656B696E67206F6E20002161
:100A70006572726F72206F70656E696E67200075A7
:100A80006E6B6E6F776E20636F6D6D616E643A2072
:100A9000006572726F722073796E63696E6720648D
:100AA00069736B0A0073796E63006572726F7220EE
:100AB0006372656174696E67206469726563746FDF
:100AC00072793A20006D6400617070656E64006533
:100AD00072726F722077726974696E6720746F200A
:100AE00066696C650A006572726F72207365656B6A
:100AF000696E67206F6E20006572726F72206F7072
:100B0000656E696E67200077726974650065727240
:100B10006F72206372656174696E672066696C65C7
:100B20003A20006E6577006572726F722064656CA2
:100B30006574696E672066696C653A2000726D00A5
:100B400073697A65006572726F722072656164699B
:100B50006E67206469736B20696E666F0A00646952
:100B6000736B006572726F72207365656B696E6777
:100B7000206F6E20006572726F72206F70656E69F3
:100B80006E67200072656164006572726F72206F1B
:100B900070656E696E672000636174006C73006439
:100BA00069726563746F7279206E6F7420666F75F9
:100BB0006E643A200063640073657400626175645A
:100BC0000068656C70003F0046696C65207379733E
:100BD00074656D20696E697469616C697A65640A0F
:100BE00000436C6F73696E6720646F776E2066696F
:100BF0006C652073797374656D0A00696E697400A1
:100C0000667265653A20202000666F726D61743AE5
:100C1000200077722E70722E3A2000636F70793A3E
:100C2000202020004D420A0073697A653A20202076
:100C300000646174653A2020200073657269616CFC
:100C40003A203078007265763A20202020007072B9
:100C50006F643A202020006F656D3A20202020002C
:100C60006D616E75663A202030780021546F6F20D8
:100C70006D616E79206C6F67733A32210021546F79
:100C80006F206D616E79206C6F67733A312100457A
:100C900072726F72206372656174696E672053456A
:100CA000514C4F470A004372656174696E67205367
:100CB00045514C4F470A006572726F72206F706524
:100CC0006E696E6720636F6E6669672066696C6522
:100CD00000320031000011241FBECFEFD0E1DEBF93
:100CE000CDBF11E0A0E0B1E0E4EEF6E902C005906E
:100CF0000D92AC3BB107D9F71CE0ACEBB1E001C001
:100D00001D92A93EB107E1F70E9402180C94704BA6
:100D10000C9400001F920F920FB60F9211242F9384
:100D20008F939F93EF93FF93E091C504F091C604D6
:100D30008091C600E353FB4F80838091C50490915E
:100D4000C60401969093C6048093C50485B191E0D2
:100D5000892785B98091C5049091C6048050984038
:100D600021F41092C6041092C504FF91EF919F9157
:100D70008F912F910F900FBE0F901F901895F9999A
:100D8000FECF12BC81E081BD80BDFA9AF99AF99933
:100D9000FECF12BC82E081BD10BCFA9AF99AF99993
:100DA000FECF12BC85E081BD8AE180BDFA9AF99A36
:100DB000F999FECF12BC86E081BD83E080BDFA9A2E
:100DC000F99A0895F999FECF12BC91E091BDF89A75
:100DD00080B58093CA048B3050F09093CA04F9997F
:100DE000FECF12BC81E081BD80BDFA9AF99AF999D3
:100DF000FECF12BC82E081BDF89A80B58093C40416
:100E0000863050F01092C404F999FECF12BC82E0F3
:100E100081BD10BCFA9AF99AF999FECF12BC85E00F
:100E200081BDF89A80B58093CF0C81508E3F60F0E1
:100E30008AE18093CF0CF999FECF12BC85E081BD89
:100E40008AE180BDFA9AF99AF999FECF12BC86E040
:100E500081BDF89A80B58093C70481508E3F60F0C1
:100E600083E08093C704F999FECF12BC86E081BD70
:100E700083E080BDFA9AF99A0895F999FECF92BD60
:100E800081BD60BDFA9AF99A0895F999FECF92BD95
:100E900081BDF89A80B508959C01220F331F91E01F
:100EA00084E106C095BB86BDA89BFECF2050314093
:100EB00041E021303407B0F781E085BB822F819576
:100EC00086BDA89BFECF0895CF93DF93EC0105C0AC
:100ED00088EE93E00E944C0721972097C9F7DF9195
:100EE000CF9108950F931F93CF93DF93C0E0D0E08D
:100EF000082F10E00BC0289A84E690E00E94640757
:100F0000289884E690E00E9464072196C017D107D4
:100F100094F380ED97E00E946407C0E0D0E0F6CF44
:100F2000FF920F931F935098589A48991CC0299A82
:100F300010E0FF24F39402E089E190E00E9464074E
:100F400085B18F2585B948990EC089E190E00E944E
:100F5000640785B1802785B9489905C01F5F18329D
:100F600059F781E001C080E01F910F91FF90089533
:100F7000ECEBF1E020E080819181892B19F08281F6
:100F800081112F5F339681E0E83CF807A1F7822FAB
:100F90000895AC01ECEBF1E020E080819181892B98
:100FA00019F0828181112F5F339681E0E83CF807C8
:100FB000A1F7243060F4822F90E0FC01EE0FFF1FB8
:100FC000E80FF91FE454FE4F518340836283089574
:100FD000AC0120E030E070E00DC0FA01E20FF31F39
:100FE000808190E0C0970A9718F040E050E005C07B
:100FF0002F5F3F4F2617370784F3CA010895FC017E
:10100000DB0108C0891721F08F3311F080E00895CB
:10101000319611969C919923F1F080818A3291F753
:101020001AC080818A3259F431968081882311F464
:1010300081E008959D012F5F3F4FAF0110C08917D8
:1010400011F08F3319F43196119609C0FA01D901C4
:101050002F5F3F4F04C020E030E040E050E09C9123
:101060009923F9F601C0319690819A32E1F380E03C
:10107000992309F481E0089586E399E00E946C4584
:1010800081E299E00E946C4583E099E00E946C4502
:1010900080E798E00E946C4580EE97E00E946C45E6
:1010A00083E997E00E946C458AE597E00E946C45D1
:1010B00086E197E00E946C4589EE96E00E946C45BF
:1010C00081E796E00E946C4587E396E00E946C45BC
:1010D0008DE995E00E946C458EE695E00E946C4596
:1010E00088E195E00E946C4584EE94E00E946C4596
:1010F00089EA94E00E946C4580EA94E00E946C4585
:1011000084E794E00E946C458EE494E00E946C4574
:1011100008951F93CF93DF93282FEB01ECEBF1E0C1
:1011200010E080819181892B19F0828181111F5FEC
:10113000339681E0E83CF807A1F7211710F080E032
:1011400013C080E890E00E946C45812F90E00E94DF
:10115000B8448CE790E00E946C45CE010E945F4548
:101160008AE00E94704481E0DF91CF911F91089541
:10117000CF93DF93EC018CE0ECEBF1E0DF011D920B
:101180008A95E9F750E041E0A62FB0E039C0242F5E
:1011900030E0FE01E20FF31F8081803229F02F5FE3
:1011A0003F4F2A173B0759F5842F90E001968A1785
:1011B0009B0709F4462FECEBF1E020E08081918160
:1011C000892B19F0828181112F5F339681E0E83CF1
:1011D000F807A1F7243088F4822F90E0FC01EE0F8D
:1011E000FF1FE80FF91FE454FE4FCE01850F911D3C
:1011F00091838083842F851B82834F5F542F4F5FA1
:10120000461728F2ECEBF1E020E080819181892BF8
:1012100019F0828181112F5F3396A1E0E83CFA0733
:10122000A1F7822FDF91CF910895982F89E1E0ED0A
:10123000FCE0DF011D928A95E9F79430E8F4892FEC
:1012400090E0FC01EE0FFF1FE80FF91FE454FE4F82
:10125000608171816115710579F04281442361F0EB
:101260004A3118F049E150E001C050E080ED9CE0C7
:101270000E940E489C0102C020E030E0C9010895A0
:10128000BF92CF92DF92EF92FF920F931F93CF9373
:10129000DF93EC01B62E60E070E04B2D50E00E9431
:1012A000D34700E0CB2CDD240894C108D10823C02B
:1012B0000E947A45182F883011F08F3789F4002367
:1012C000D1F00150FE01E00FF11D108288E00E9474
:1012D000704480E20E94704488E00E9470440BC019
:1012E0000E947044FE01EE0DFF1D1A3011F41082B1
:1012F00007C010830F5FE02EFF24EC14FD04C4F23E
:10130000CE016B2D0E94B808802FDF91CF911F91E5
:101310000F91FF90EF90DF90CF90BF900895CF9204
:10132000DF92EF92FF920F931F93CF93DF93EC0125
:10133000162F60E070E0412F50E00E94D34700E09C
:10134000C12EDD240894C108D10823C00E947A452B
:10135000182F883011F08F3789F40023D1F0015015
:10136000FE01E00FF11D108288E00E94704480E2CF
:101370000E94704488E00E9470440BC00E94704438
:10138000FE01EE0DFF1D1A3111F4108207C010830B
:101390000F5FE02EFF24EC14FD04C4F2802FDF91D8
:1013A000CF911F910F91FF90EF90DF90CF90089514
:1013B0000F931F93DF93CF93CDB7DEB7E1970FB6AF
:1013C000F894DEBF0FBECDBF0E94431F882319F4DF
:1013D00083E00E9472070E94772E86EC9CE165E70D
:1013E0007EE144EC5AE12EE730E200E00E941D1855
:1013F0009093CC048093CB04892B79F486EC9CE108
:1014000065E77EE144EC5AE12EE730E20FEF0E94FF
:101410001D189093CC048093CB048091CB049091C1
:10142000CC040E9404319093C3048093C20460E012
:1014300071E08E010F5F1F4FA8010E94AB438091A6
:10144000C2049091C304B8010E9422439093CE0C31
:101450008093CD0CE1960FB6F894DEBF0FBECDBFE2
:10146000CF91DF911F910F910895CF92DF92FF925C
:101470000F931F93CF93DF936B01EA01F22E132F8B
:1014800015C08F2D912FBE010E94F047009749F0A3
:10149000013061F4CE016F2D712F0E94FF07813062
:1014A00029F4C6010E94C12A81E007C0C6016F2D40
:1014B000712F0E946B2F882321F7DF91CF911F910D
:1014C0000F91FF90DF90CF900895CF92DF92EF922F
:1014D000FF920F93DF93CF93CDB7DEB7E1970FB6AF
:1014E000F894DEBF0FBECDBF7C016E010894C11C15
:1014F000D11C960100E00E94350A882319F420E0EF
:1015000030E005C0C701B6010E9463439C01C901D8
:10151000E1960FB6F894DEBF0FBECDBFCF91DF913D
:101520000F91FF90EF90DF90CF900895DF92EF92B0
:10153000FF920F931F93DF93CF9300D000D0CDB7CE
:10154000DEB78C016091CD0C7091CE0C8091C204FD
:101550009091C304A8010E94650A7C01009759F488
:101560008FE69AE00E946C45C8010E945F458AE0C0
:101570000E94704419C019821A821B821C82BE010B
:101580006F5F7F4F42E00E94ED3E882379F48CE547
:101590009AE00E946C45C8010E945F458AE00E9463
:1015A0007044C7010E94552780E02FC28CE30E943F
:1015B0007044289A1092C6041092C5041092C9046F
:1015C0001092C80480E090E0FC01E353FB4F1082CE
:1015D000019628E080309207B9F78091C1008068B9
:1015E0008093C1007894DD2400E010E0F3C00F5F29
:1015F0001F4F83E10938180708F4E8C08091C80438
:101600009091C904892B09F4C9C08091C8049091B4
:10161000C9048050924009F4C1C08091C8049091DF
:10162000C9048050944009F4B9C08091C8049091D5
:10163000C9048050964009F4B1C08091C8049091CB
:10164000C90480509240B8F44091C8045091C90434
:10165000C7016DEC74E00E94553F2091C8043091A1
:10166000C9048217930721F085E49AE00E946C4533
:1016700040E050E05EC08091C8049091C904805061
:101680009440D8F44091C8045091C904405052404D
:10169000C7016DEC76E00E94553F2091C80430915F
:1016A000C904205032408217930721F08EE29AE05D
:1016B0000E946C4540E052E03CC08091C80490918B
:1016C000C90480509640D8F44091C8045091C90490
:1016D00040505440C7016DEC78E00E94553F209186
:1016E000C8043091C904205034408217930721F078
:1016F00087E19AE00E946C4540E054E01AC04091B6
:10170000C8045091C90440505640C7016DEC7AE0BE
:101710000E94553F2091C8043091C90420503640A2
:101720008217930721F080E09AE00E946C4540E028
:1017300056E0F894BA011EC08091C8049091C90483
:10174000FC01E353FB4F2081FB01E353FB4F20835C
:1017500001969093C9048093C8048091C804909125
:10176000C9048050984020F01092C9041092C80417
:101770006F5F7F4F2091C8043091C9048091C504E8
:101780009091C60428173907B9F67093C604609380
:10179000C5045093C9044093C80478940E949B1CCC
:1017A00008C0289883B7816083BF889583B78E7FF0
:1017B00083BF2091C8043091C9048091C5049091E1
:1017C000C6042817390769F300E010E081E090E0D3
:1017D0000E9464072091C8043091C9048091C50417
:1017E0009091C6042817390709F401CFE091C80485
:1017F000F091C904E353FB4F90818091CF0C98176F
:1018000061F4D3948091C704D81641F4F894809180
:10181000C1008F778093C10061C0DD248091C8042E
:101820009091C90401969093C9048093C804809153
:10183000C8049091C9048050924069F4C7016DECCE
:1018400074E040E052E00E94553F8050924019F011
:1018500089EE99E041C08091C8049091C9048050FC
:10186000944069F4C7016DEC76E040E052E00E94DC
:10187000553F8050924019F082ED99E02DC0809143
:10188000C8049091C9048050964069F4C7016DEC7A
:1018900078E040E052E00E94553F8050924019F0BD
:1018A0008BEB99E019C08091C8049091C9048050D5
:1018B000984009F099CE1092C9041092C804C7014B
:1018C0006DEC7AE040E052E00E94553F805092403B
:1018D00009F48ACE84EA99E00E946C458091C8049C
:1018E0009091C904892B09F487C08091C804909114
:1018F000C9048050924009F47FC08091C80490913F
:10190000C9048050944009F477C08091C804909134
:10191000C9048050964009F46FC08091C80490912A
:10192000C90480509240A0F44091C8045091C90469
:10193000C7016DEC74E00E94553F2091C8043091BE
:10194000C9048217930709F457C08DE899E052C083
:101950008091C8049091C90480509440B8F440919B
:10196000C8045091C90440505240C7016DEC76E064
:101970000E94553F2091C8043091C9042050324044
:1019800082179307C9F186E799E034C08091C804B3
:101990009091C90480509640B8F44091C804509189
:1019A000C90440505440C7016DEC78E00E94553F97
:1019B0002091C8043091C904205034408217930705
:1019C000D9F08FE599E016C04091C8045091C90440
:1019D00040505640C7016DEC7AE00E94553F20917F
:1019E000C8043091C904205036408217930721F073
:1019F00088E499E00E946C45C7010E945527289809
:101A000086E499E00E946C4581E00F900F900F9062
:101A10000F90CF91DF911F910F91FF90EF90DF908A
:101A200008959F92AF92BF92CF92DF92EF92FF9272
:101A30000F931F93DF93CF93CDB7DEB7E1970FB628
:101A4000F894DEBF0FBECDBFF999FECF12BC83E084
:101A500081BDF89A30B5F999FECF12BC84E081BD02
:101A6000F89A20B53F3FA9F42F3F99F4F999FECF9A
:101A700012BC83E081BD10BCFA9AF99AF999FECFA5
:101A800012BC84E081BD10BCFA9AF99ACC24DD2402
:101A90000EC0922F80E0C32EDD24C82AD92A8EEFF3
:101AA000C8168FEFD80619F48DE79CE04CC000D023
:101AB00000D000D0EDB7FEB7319600ED1CE0ADB719
:101AC000BEB712961C930E93119752E0E52E51E08B
:101AD000F52EF382E282D582C4820E9430488DB70F
:101AE0009EB706960FB6F8949EBF0FBE8DBF902E80
:101AF000012F5E010894A11CB11C1E2DEF2C26C0E5
:101B0000690100D000D000D0EDB7FEB73196ADB777
:101B1000BEB711969C92119712960C931283E38292
:101B2000358324830E9430488DB79EB706960FB642
:101B3000F8949EBF0FBE8DBF9EEFC9169FEFD906CA
:101B400028F08BE69CE00E946C452CC08091CD0C67
:101B50009091CE0C60ED7CE0A5010E94253C9601A1
:101B60002F5F3F4F882361F2932FF999FECF12BC6C
:101B700083E081BD20BDFA9AF99AF999FECF12BC93
:101B800084E081BDF89A80B5891741F0F999FECFBC
:101B900012BC84E081BD90BDFA9AF99A80ED9CE078
:101BA0000E94960AE1960FB6F894DEBF0FBECDBF35
:101BB000CF91DF911F910F91FF90EF90DF90CF9029
:101BC000BF90AF909F900895EF92FF920F931F9355
:101BD000DF93CF93CDB7DEB7EE970FB6F894DEBFA5
:101BE0000FBECDBF8E010F5F1F4FC8016EE071E0C9
:101BF0000E94F9476091CD0C7091CE0C8091C20487
:101C00009091C304A8010E94650A7C010097A9F481
:101C100086EA9CE00E946C458091CD0C9091CE0CA0
:101C2000B801AE01425F5F4F0E94253C882329F432
:101C30008FE89CE00E946C4507C0C7010E945527B1
:101C4000CE0101960E94960AEE960FB6F894DEBF7A
:101C50000FBECDBFCF91DF911F910F91FF90EF90FD
:101C600008957F928F929F92AF92BF92CF92DF9210
:101C7000EF92FF920F931F93DF93CF93CDB7DEB711
:101C8000C155D0400FB6F894DEBF0FBECDBF8E0158
:101C90000C5F1F4FC80169E171E00E94F947609134
:101CA000CD0C7091CE0CE1E2EE2EF12CEC0EFD1E6F
:101CB0008091C2049091C304A801970100E00E94A2
:101CC000350A882339F08091C2049091C304B7018A
:101CD0000E94BE2B8E010C5F1F4F8091CD0C909106
:101CE000CE0CB801AE014F5D5F4F0E94253C8823AA
:101CF00019F484E291E010C06091CD0C7091CE0C8B
:101D00008091C2049091C304A8010E94650A5C01FD
:101D1000009729F481E491E00E945F45EEC0F999B3
:101D2000FECF12BC81E081BDF89A90B5F999FECF43
:101D300012BC82E081BDF89A70B4F999FECF12BC52
:101D400085E081BDF89A90B4F999FECF12BC86E087
:101D500081BDF89A80B4992329F4CE0141966DE5AE
:101D600071E030C0943029F4CE01419662E671E012
:101D700029C0913029F4CE01419667E671E022C076
:101D8000953029F4CE0141966CE671E01BC0963087
:101D900029F4CE01419662E771E014C0923029F433
:101DA000CE01419668E771E00DC0933029F4CE0171
:101DB00041966EE771E006C0973031F4CE0141964E
:101DC00065E871E00E94F9478E010F5E1F4FC80160
:101DD0006CE871E00E94DA4700D000D000D0EDB787
:101DE000FEB731967E010894E11CF11CADB7BEB779
:101DF0001296FC92EE9211976EE8C62E61E0D62EF6
:101E0000D382C282948215820E9430488DB79EB7D9
:101E100006960FB6F8949EBF0FBE8DBFC801B701DE
:101E20000E94DA47C8016CE871E00E94DA4700D0EE
:101E300000D000D0EDB7FEB73196ADB7BEB7129661
:101E4000FC92EE921197D382C282848215820E9404
:101E500030488DB79EB706960FB6F8949EBF0FBE5A
:101E60008DBFC801B7010E94DA47C8016CE871E074
:101E70000E94DA4700D000D000D0EDB7FEB731960F
:101E8000ADB7BEB71296FC92EE921197D382C28282
:101E9000748215820E9430488DB79EB706960FB6A1
:101EA000F8949EBF0FBE8DBFC801B7010E94DA47EC
:101EB0008DEC94E0B8010E94F947F80101900020F0
:101EC000E9F73197E01BF10BC5016DEC74E0AF0150
:101ED0000E94553FF80101900020E9F73197E01B7F
:101EE000F10B8E179F0721F081E991E00E945F4579
:101EF000C5010E9455270E949B1CCF5ADF4F0FB689
:101F0000F894DEBF0FBECDBFCF91DF911F910F912F
:101F1000FF90EF90DF90CF90BF90AF909F908F9009
:101F20007F900895FF920F931F93DF93CF9300D07C
:101F300000D00F92CDB7DEB7F999FECF12BC82E088
:101F400081BDF89AF0B48E010F5F1F4F89E992E0CE
:101F50000E946C4585E892E00E946C45FF2019F4D0
:101F60008CE792E00BC081E0F81619F480E792E06C
:101F700005C082E0F81621F488E692E00E946C45E4
:101F800086E692E00E946C4580E492E00E946C45F7
:101F90006091CF0C70E080E090E00E94F6448CE30A
:101FA00092E00E946C456091C70470E080E090E090
:101FB0000E94F6448AE392E00E946C458EE292E031
:101FC0000E946C4589E192E00E946C4581E092E0BC
:101FD0000E946C458EEE91E00E946C4584ED91E08C
:101FE0000E946C458BEB91E00E946C458BE991E07F
:101FF0000E946C4582E991E00E946C458EE30E944C
:102000007044C80165E00E944009882309F49ECF0E
:10201000C80160E971E00E94B347892B59F48EE74B
:1020200091E00E946C45F999FECF12BC82E081BD1F
:1020300010BC12C0C8016CE771E00E94B347892B45
:1020400081F487E691E00E946C45F999FECF12BCBD
:1020500082E081BD81E080BDFA9AF99A0E94310E3A
:102060008CC0C80165E671E00E94B347892B51F42A
:1020700085E591E00E946C45F999FECF12BC82E0A3
:1020800081BDE9CFC80163E571E00E94B347892BA8
:10209000A9F484E391E00E946C45F999FECF12BC4B
:1020A00083E081BD10BCFA9AF99AF999FECF12BC6F
:1020B00084E081BD10BCFA9AF99A5FC0C80162E35E
:1020C00071E00E94B347892B09F583E191E00E94FA
:1020D0006C450E947A45982F8093CF0CF999FECFDA
:1020E00012BC85E081BD90BDFA9AF99A0E94310E2A
:1020F0008BEF90E00E946C456091CF0C70E080E027
:1021000090E00E94F64489EF90E035C0C80167EF87
:1021100070E00E94B347892B21F587EC90E00E9484
:102120006C450E947A45982F90539A30B0F790935F
:10213000C704F999FECF12BC86E081BD90BDFA9A22
:10214000F99A0E94310E81EA90E00E946C456091FC
:10215000C70470E080E090E00E94F6448FE990E0D0
:102160000AC0C8016DE970E00E94B347892B09F0ED
:10217000EDCE84E990E00E946C450F900F900F9097
:102180000F900F90CF91DF911F910F91FF900895C5
:10219000FF920F931F93DF93CF9300D000D00F9245
:1021A000CDB7DEB7F999FECF12BC81E081BDF89AB8
:1021B000F0B48E010F5F1F4F88E394E00E946C45DE
:1021C0008EE294E00E946C4584E0F81619F48BE2EC
:1021D00094E028C0FF2019F488E294E023C081E055
:1021E000F81619F485E294E01DC085E0F81619F49C
:1021F00081E294E017C086E0F81619F48DE194E0CE
:1022000011C082E0F81619F489E194E00BC083E074
:10221000F81619F484E194E005C087E0F81621F47B
:102220008FE094E00E946C4587E094E00E946C454A
:102230008BEF93E00E946C458EEE93E00E946C451C
:1022400081EE93E00E946C4584ED93E00E946C4522
:1022500086EC93E00E946C4588EB93E00E946C450D
:102260008AEA93E00E946C458BE993E00E946C45FA
:102270008CE893E00E946C4583E893E00E946C45F3
:102280008EE30E947044C80165E00E9440098823E3
:1022900009F492CFC80161E873E00E94B347892B2B
:1022A00059F48BE693E00E946C45F999FECF12BC7D
:1022B00081E081BD10BC7DC0C80169E673E00E9469
:1022C000B347892B59F483E593E00E946C45F99953
:1022D000FECF12BC81E081BD84E06AC0C80161E527
:1022E00073E00E94B347892B51F48BE393E00E9483
:1022F0006C45F999FECF12BC81E081BD59C0C8017F
:1023000069E373E00E94B347892B59F482E293E0BA
:102310000E946C45F999FECF12BC81E081BD85E039
:1023200047C0C80160E273E00E94B347892B59F4AB
:1023300089E093E00E946C45F999FECF12BC81E0E0
:1023400081BD86E035C0C80167E073E00E94B347F5
:10235000892B59F480EF92E00E946C45F999FECFE9
:1023600012BC81E081BD82E023C0C8016EEE72E044
:102370000E94B347892B59F486ED92E00E946C4588
:10238000F999FECF12BC81E081BD83E011C0C80184
:1023900064ED72E00E94B347892B99F48CEB92E0D4
:1023A0000E946C45F999FECF12BC81E081BD87E0A7
:1023B00080BDFA9AF99A0E94310E85E00E94720758
:1023C0000CC0C8016AEB72E00E94B347892B09F088
:1023D000F3CE80EB92E00E946C450F900F900F902F
:1023E0000F900F90CF91DF911F910F91FF90089563
:1023F0002F923F924F925F926F927F928F929F9215
:10240000AF92BF92CF92DF92EF92FF920F931F9302
:10241000DF93CF93CDB7DEB7C357D0400FB6F89454
:10242000DEBF0FBECDBF1EE0412E512C4C0E5D1EF7
:10243000B3E46B2E712C6C0E7D1EA6E02A2E312C7F
:102440002C0E3D1E8EE30E947044C20168E10E9482
:1024500040098823B9F380E00E9415098C016BEFD5
:102460007BE00E94B347892BA9F481EE9BE00E9498
:102470006C458091C2049091C3040E9445218091D3
:10248000CB049091CC040E9415180E94D80988ECC6
:102490009BE024C4C80166EC7BE00E94B347892B13
:1024A00039F0C80161EC7BE00E94B347892B19F435
:1024B0000E943C08C7CFC8016CEB7BE00E94B34789
:1024C000892B19F40E94C810BDCFC80168EB7BE0CE
:1024D0000E94B347892B19F40E94920FB3CFC80111
:1024E00065EB7BE042E050E00E94BC47892BC1F5E0
:1024F00082E0B2010E948908882309F0A3CF81E01D
:102500000E9415097C01009709F49CCF6091CD0CC5
:102510007091CE0C8091C2049091C304A7019301E5
:1025200000E00E94350A8823A9F08091C2049091AE
:10253000C304B3010E9422438C01009759F080919B
:10254000CD0C9091CE0C0E94BB2A1093CE0C009320
:10255000CD0C78CF8FE99BE00E946C45C701C6C3C4
:10256000C8016CE97BE00E94B347892B09F044C0A5
:1025700081E00E9415097C01F4E2DF2E33C0E114F2
:10258000F10431F0C701B3010E94FF07882351F124
:10259000D3010D900020E9F78D010150104006197C
:1025A0001709C3010E945F45F30180A184FD02C0A9
:1025B00080E201C08FE21D2D101B0E94704404C0F8
:1025C00080E20E94704411501123D1F7D3019596F7
:1025D0006D917D918D919C9198970E94F6448AE02F
:1025E0000E9470448091CD0C9091CE0CB3010E945A
:1025F0006B2F882321F626CFC80168E97BE043E0F2
:1026000050E00E94BC47892B09F04DC082E0B20126
:102610000E948908882309F015CF81E00E941509DE
:102620008C01009709F40ECF6091CD0C7091CE0C07
:102630008091C2049091C304A8010E94650A5C01C4
:10264000009721F0CC24DD24760122C089E89BE0AC
:102650004AC3C701B6010E94A5448AE30E947044A0
:10266000810180E20E947044F80181918F010E94F3
:102670007F44802F82198915A0F38AE00E9470445C
:1026800088E090E0A0E0B0E0C80ED91EEA1EFB1E74
:10269000C501B10148E050E00E945B27982E8823D5
:1026A000C1F6C5017DC0C80164E87BE044E050E0AC
:1026B0000E94BC47892B09F0E2C081E00E94150905
:1026C0008C01009709F4BECE6091CD0C7091CE0CB8
:1026D0008091C2049091C304A8010E94650A4C0134
:1026E000009719F485E79BE0FEC282E00E9415097D
:1026F000AC01009709F457C0FC0101900020E9F7F4
:102700003197E81B20E030E06E2F70E00BC0FA013B
:10271000E20FF31F808190E0C0970A9708F043C052
:102720002F5F3F4F2617370794F38A0120E030E0F0
:1027300040E050E017C0CA01B9012AE030E040E0B3
:1027400050E00E94D14A9B01AC018F2D90E0C097D0
:10275000AA2797FDA095BA2F280F391F4A1F5B1F84
:102760000F5F1F4FD801FC908F2D80538A3018F3D4
:102770002A833B834C835D83C401BE016E5F7F4F20
:1027800040E00E94ED3E882371F483E69BE00E94C6
:102790006C45C2010E945F458AE00E947044C401FA
:1027A0000E9455274FCE83E00E941509AC01009787
:1027B000E1F1FC0101900020E9F73197E81B20E0EE
:1027C00030E06E2F70E00AC0FA01E20FF31F808143
:1027D00090E0C0970A9748F52F5F3F4F26173707BD
:1027E0009CF36A01EE24FF24870118C0C801B701D9
:1027F0002AE030E040E050E00E94D14A7B018C01A9
:102800008B2D90E0C097AA2797FDA095BA2FE80ED0
:10281000F91E0A1F1B1F0894C11CD11CF601B080B1
:102820008B2D80538A3010F318C0EE24EA94FE2CCE
:10283000870113C09981892F80528F3510F4892F19
:1028400005C09A3011F48AE001C08EE20E94704403
:102850000894E108F10801091109C401BE016F5F84
:102860007F4F41E050E00E945B27181619060CF0DC
:1028700093CFE114F10401051105E1F68DCFC801F4
:102880006EE57BE00E94B347892B09F0B4C0E0906D
:10289000C204F090C304E114F10409F4A9C0CE010C
:1028A00086960E947219882309F4A2C080E69CE0F3
:1028B0000E946C458EA10E947F448AE00E94704471
:1028C00087E59CE00E946C45CE0187960E945F459B
:1028D0008AE00E9470448EE49CE00E946C45CE0128
:1028E0008A960E945F458AE00E94704485E49CE0DD
:1028F0000E946C4588A90E947F448AE00E9470442F
:102900008AE39CE00E946C4569A97AA98BA99CA9DD
:102910000E94A5448AE00E94704481E39CE00E94EA
:102920006C458EA990E00E94B8448FE20E947044EA
:102930008DA990E00E94B8448AE00E94704488E229
:102940009CE00E946C452FA938AD49AD5AAD6BADE6
:102950007CAD8DAD9EAD04E10E949746B901CA01E0
:102960000E94F64484E29CE00E946C458BE19CE06E
:102970000E946C458FAD90E00E94B8448AE00E94AE
:10298000704482E19CE00E946C4522968FAD2297B4
:1029900090E00E94B8448FE20E94704421968FAD6F
:1029A000219790E00E94B8448AE00E94704489E038
:1029B0009CE00E946C4523968FAD239790E00E9487
:1029C000B8448AE00E94704480E09CE00E946C451C
:1029D000C7010E94F02CB901CA010E94F6448FE29F
:1029E0000E947044C7010E94932CB901CA012FC0F4
:1029F00085E49BE073C1C80160E47BE044E050E003
:102A00000E94BC47892B59F582E0B2010E948908D7
:102A1000882309F017CD81E00E941509AC010097C9
:102A200009F410CD6091CD0C7091CE0C8091C20450
:102A30009091C304930100E00E94350A882351F06D
:102A4000D30195966D917D918D919C9198970E945F
:102A5000F6444EC18AEA91E00E945F45F3CCC8017A
:102A60006DE37BE042E050E00E94BC47892B89F592
:102A700083E0B2010E948908882309F0E3CC81E059
:102A80000E9415097C010097A1F4DCCC8091C2045E
:102A90009091C304B3010E94BE2B882351F487E2B6
:102AA0009BE00E946C45C2010E945F458AE00E9443
:102AB00070446091CD0C7091CE0C8091C2049091C5
:102AC000C304A701930101E00E94350A8823F1F6AF
:102AD000B9CCC80163E27BE043E050E00E94BC4710
:102AE000892BF1F482E0B2010E948908882309F061
:102AF000A9CC81E00E941509BC01009709F4A2CC81
:102B00008091CD0C9091CE0CA3010E94253C88238E
:102B100009F098CC8DE09BE00E946C45C201E6C0B4
:102B2000C80167E07BE045E050E00E94BC47892B8C
:102B300009F08FC081E00E9415095C01009709F43B
:102B400081CC82E00E9415098C010097C9F0FC013C
:102B500001900020E9F73197E81B20E030E04E2F8C
:102B600050E00BC0F801E20FF31F808190E0C097A6
:102B70000A9708F067CC2F5F3F4F2417350794F36F
:102B80006091CD0C7091CE0C8091C2049091C304E1
:102B9000A5010E94650A7C01009729F020E030E041
:102BA00040E050E01DC088EF9AE00E946C45C501EE
:102BB0009DC0CA01B9012AE030E040E050E00E9427
:102BC000D14A9B01AC018D2D90E0C097AA2797FDBB
:102BD000A095BA2F280F391F4A1F5B1F0F5F1F4F89
:102BE000F801D0808D2D80538A3018F32A833B83DF
:102BF0004C835D83C701BE016E5F7F4F40E00E9442
:102C0000ED3E882359F486EE9AE00E946C45C5019A
:102C10000E945F458AE00E94704419C08CE30E94C4
:102C20007044C20168E10E944009182F882379F09E
:102C3000C701B201412F50E00E94553F212F30E0E3
:102C40008217930759F38FEC9AE00E946C45C701F5
:102C5000A7CDC80168EC7AE046E050E00E94BC478E
:102C6000892B81F482E0B2010E948908882309F04F
:102C7000E9CB81E00E941509009709F4E3CB0E949B
:102C8000960AE0CBC80165EC7AE042E050E00E9491
:102C9000BC47892BA9F481E00E9415098C0100979B
:102CA00009F4D0CB8091CD0C9091CE0CB801A3014A
:102CB0000E943C3A882309F0C5CB8AEA9AE013C007
:102CC000C80165EA7AE00E94B347892B51F40E945B
:102CD0009B1C882309F0B6CB81E99AE00E946C45E1
:102CE000B1CB8FE79AE00E946C45C8010E945F4516
:102CF0008AE00E947044A6CB4F925F926F927F92BF
:102D00008F929F92AF92BF92CF92DF92EF92FF92FB
:102D10000F931F93DF93CF93CDB7DEB7C555D04048
:102D20000FB6F894DEBF0FBECDBF58E0E52EF12CF4
:102D3000EC0EFD1EC70169E171E00E94F947609148
:102D4000CD0C7091CE0C8091C2049091C304A70168
:102D50009E012B5D3F4F00E00E94350A882309F455
:102D6000F8C06091CD0C7091CE0C8091C20490910E
:102D7000C304A7010E94650A7C01009729F487EB30
:102D80009CE00E946C45E7C045E1C42ED12CCC0EDE
:102D9000DD1EB60140E150E00E945B27682EC701AE
:102DA0000E94552711E099243AE1832E23E0722EE8
:102DB000BB24AA247E010894E11CF11C260197E0A3
:102DC000C92ED12CCC0EDD1E85C0ED93B3948A2F75
:102DD0008E19F201EB0DF11DE081EC3229F0B614F1
:102DE00018F4AC15BD0589F7F701E80FF11D108245
:102DF000AA2009F047C0C7016DE571E00E94F047C5
:102E0000009711F410E064C0C70162E671E00E940F
:102E1000F047009711F414E05BC0C70167E671E06A
:102E20000E94F047009709F452C0C7016CE671E0B8
:102E30000E94F047009711F415E04AC0C70162E70D
:102E400071E00E94F047009711F416E041C0C701FD
:102E500068E771E00E94F047009711F412E038C073
:102E6000C7016EE771E00E94F047009711F413E08C
:102E70002FC0C70165E871E00E94F047009739F55F
:102E800017E026C081E0A81649F4C7010E949547C3
:102E9000882E1816ECF08AE1882E1AC082E0A81657
:102EA00051F4C7010E949547782E81508A3080F0F6
:102EB00003E0702E0DC083E0A81681F4C7010E94C4
:102EC0009547982E8150853018F0992401C011E063
:102ED000A394B394B61410F4D70179CF8091CA04A7
:102EE000181769F0F999FECF12BC81E081BD10BDC1
:102EF000FA9AF99A1093CA04812F0E943C44809157
:102F0000C404981651F09092C404F999FECF12BCF3
:102F100082E081BD90BCFA9AF99A8091CF0C881614
:102F200051F08092CF0CF999FECF12BC85E081BDA3
:102F300080BCFA9AF99A8091C704781651F0709281
:102F4000C704F999FECF12BC86E081BD70BCFA9A25
:102F5000F99A0E94310ECB5ADF4F0FB6F894DEBFBC
:102F60000FBECDBFCF91DF911F910F91FF90EF90DA
:102F7000DF90CF90BF90AF909F908F907F906F9099
:102F80005F904F9008950F931F9382E085BD8091CD
:102F90006400896C8093640083B7817F83BF83B7AB
:102FA000816083BF209A219A0E9490078823A9F00C
:102FB0000E94BF060E94D8090E94310E289A299AC1
:102FC00001E012E084EF91E00E94640785B1802760
:102FD00085B985B1812785B9F5CF0E94E206809138
:102FE000CA040E943C4483ED9CE00E946C450E9410
:102FF000D80981ED9CE00E946C450E947C161F91CF
:103000000F9108950E94C3178091C404882311F47E
:103010000E94110D8091C404813011F40E94E40DCE
:103020000E94F81180E090E00895FC01009711F4EF
:1030300080E00895108681E008954F925F926F922C
:103040007F928F929F92BF92CF92DF92EF92FF92E8
:103050000F931F93DF93CF93CDB7DEB760970FB673
:10306000F894DEBF0FBECDBF6C014B013A012901C0
:10307000B02E009709F49CC06115710509F498C041
:1030800083E080170CF494C007FD25C0802F99279A
:1030900087FD9095B4E0880F991FBA95E1F78254A7
:1030A0009E4FFC01FF0FEE0BFE2F9C014E2F5E2F5B
:1030B0006E2F7E2F8E2F9E2F8E010F5F1F4FE0E110
:1030C000EE2EF12CF6010995882309F471C08D814B
:1030D000882309F46DC08091D001882309F068C06D
:1030E00080C08D818093D0012A8530E040E050E09F
:1030F000542F432F322F22278B8590E0A0E0B0E0A1
:10310000DC0199278827282B392B4A2B5B2B8985B3
:1031100090E0A0E0B0E0282B392B4A2B5B2B8C856C
:1031200090E0A0E0B0E0B82FAA2799278827282BA5
:10313000392B4A2B5B2B2093D1013093D201409342
:10314000D3015093D4012E8530E040E050E0542F5D
:10315000432F322F22278F8590E0A0E0B0E0DC01E2
:1031600099278827282B392B4A2B5B2B8D8590E0BC
:10317000A0E0B0E0282B392B4A2B5B2B888990E00C
:10318000A0E0B0E0B82FAA2799278827282B392B51
:103190004A2B5B2B2093D5013093D6014093D70166
:1031A0005093D80103C08FEF8093D0019F0102C0DC
:1031B00020E030E0C90160960FB6F894DEBF0FBE84
:1031C000CDBFCF91DF911F910F91FF90EF90DF90D6
:1031D000CF90BF909F908F907F906F905F904F9017
:1031E0000895E8ECF1E081E1DF011D928A95E9F7AD
:1031F000D092C901C092C8019092CB018092CA01BD
:103200007092CD016092CC015092CF014092CE01DC
:10321000B7FE67CFC8CF81E0089580E00895282FDA
:103220008FEF8EBD0DB407FEFDCF8DB58F778DBDB1
:103230008EB5822F80648EBD0DB407FEFDCF8DB597
:103240008F778DBD872F9927AA27BB278EBD0DB4F9
:1032500007FEFDCF8DB58F778DBDCB01AA27BB278C
:103260008EBD0DB407FEFDCF8DB58F778DBDBB270D
:10327000A72F962F852F8EBD0DB407FEFDCF8DB5E0
:103280008F778DBD4EBD0DB407FEFDCF8DB58F7709
:103290008DBD222319F0283069F406C085E98EBD62
:1032A0000DB407FEFDCF0BC087E88EBD0DB407FE41
:1032B000FDCF05C08FEF8EBD0DB407FEFDCF8DB5E0
:1032C0008F778DBD90E02FEF2EBD0DB407FEFDCFA3
:1032D0008DB58F778DBD8EB58F3F19F49F5F9A3076
:1032E00099F708958F929F92AF92BF92CF92DF92FB
:1032F000EF92FF920F931F93CF93DF93EC01009710
:1033000091F08DE1FE0111928A95E9F7299A2C98A6
:103310008AE040E050E060E070E00E940F198823EE
:1033200021F029982C9A80E022C19FEF9EBD0DB418
:1033300007FEFDCF8DB58F778DBD8EB58E3FB1F772
:103340001C2FCE01FC0160E670E00FEF9E2F911B59
:103350000EBD0DB407FEFDCF8DB58F778DBD2EB59B
:10336000983028F4933088F4992359F00CC09D309C
:1033700018F4993070F40BC09D3019F19E3069F546
:1033800024C028832AC0208328C0218326C02A87FE
:1033900024C030E040E050E0062E04C0220F331F6E
:1033A000441F551F0A94D2F78B859C85AD85BE8539
:1033B000822B932BA42BB52B8B879C87AD87BE8745
:1033C0000CC02295207F2F8708C0922F92959F7066
:1033D0008F85892B8F872F70288B3196685070408E
:1033E0008FEF603D780709F0B1CF89E040E050E011
:1033F00060E070E00E940F19882309F092CF9FEFE0
:103400009EBD0DB407FEFDCF8DB58F778DBD8EB5FA
:103410008E3FB1F78091E203C82EDD24E2E0CE2298
:10342000DD249924BB24EE24FF2410E088248A9410
:10343000AA24A3948EBC0DB407FEFDCF8DB58F7763
:103440008DBD2EB51E3081F4822F90E026FDA98E11
:1034500085FDAA8E84FDAB8E8C70907095958795B6
:10346000959587958C8F7CC0C114D10439F11730A4
:1034700029F0173050F01A3040F401C02F739E2D00
:103480008827E22EFF24E82AF92A193009F068C0BB
:103490000894E11CF11C970140E050E060E070E00E
:1034A00080E090E003E10E941647298B3A8B4B8B1A
:1034B0005C8B6D8B7E8B8F8B988F52C01730D9F0C1
:1034C000183030F4153061F0163009F049C00CC0E6
:1034D000193031F11930C0F01A3009F041C025C05F
:1034E0007FE0972E92223CC0822F90E083709070F4
:1034F000F82EEE2435C0822F90E0E82AF92AEE0C4F
:10350000FF1CEE0CFF1C2CC02295269526952370DF
:10351000822F90E0E82AF92A0894E11CF11C20C0CF
:1035200043E0B42EB222BB0C1BC0221F2227221F55
:10353000B22A970140E050E0E92DF0E03296EB0D21
:10354000F11D04C0220F331F441F551FEA95D2F707
:10355000298B3A8B4B8B5C8B1D8A1E8A1F8A188E97
:103560001F5F123109F066CF29982C9A81E0DF9114
:10357000CF911F910F91FF90EF90DF90CF90BF9070
:10358000AF909F908F9008952F923F924F925F92AD
:103590006F927F928F929F92AF92BF92CF92DF9263
:1035A000EF92FF920F931F93DF93CF93CDB7DEB7C8
:1035B0002C970FB6F894DEBF0FBECDBF39014A017C
:1035C0005B016C011A830983FC82EB8293C1BFEF1C
:1035D0004B2EB1E05B2E462057209201A62DA41958
:1035E000AA87E1E06A1608F0E0E0872D831B21E05E
:1035F000781608F020E0B82FBE1BBD8391E08B1732
:1036000008F090E0292BE82DE21BEE8331E08E16C6
:1036100008F030E0F92DF31BFF8361E09F1608F0FE
:1036200060E02A2D261B288771E0A21608F070E0C2
:103630002B2C271A91E0B21408F090E03C2C391A98
:1036400091E0C31408F090E03D2D391B398780E0EC
:1036500092E0841995099C878B87AB81BC81A81760
:10366000B90710F4BC87AB878091D903BA858B1753
:1036700009F58091DA03ED818E17E1F48091DB0387
:10368000FE818F17B9F48091DC032F81821791F4AA
:103690008091DD033885831769F48091DE038215FC
:1036A00049F48091DF03831529F48091E003998523
:1036B0008917A9F10E949B1C882309F422C1411497
:1036C000510429F4AB85BC85A050B24090F42A8502
:1036D0003D814E815F816885722D832D998509ED2D
:1036E00011E0E12CA2E0FA2E0E94C61C882309F406
:1036F00008C1FA85F093D9032D812093DA033E8126
:103700003093DB038F818093DC0398859093DD03F6
:103710002092DE033092DF03A985A093E003E981C4
:10372000FA81E95DF140A1F0920127523E4FC901B3
:1037300069817A814B855C850E94CA471092E103BA
:103740008B819C81AB85BC858A179B0709F4D7C008
:10375000299A2C988091E20382FF0FC02A853D812F
:103760004E815F816885722D832D998509E00E94C5
:103770009746BA01A9019B0105C08A859D812E81CA
:103780003F81AC0188E1B9010E940F19882319F02B
:1037900029982C9AB6C0BEEFBEBD0DB407FEFDCF72
:1037A0008DB58F778DBDE9EDF1E081918EBD0DB4C2
:1037B00007FEFDCF8DB58F778DBD23E0E93DF20784
:1037C000A1F73FEF3EBD0DB407FEFDCF8DB58F775E
:1037D0008DBD8FEF8EBD0DB407FEFDCF8DB58F77FC
:1037E0008DBD9FEF9EBD0DB407FEFDCF8DB58F77CC
:1037F0008DBD8EB58F3FA9F78EBD0DB407FEFDCFF1
:103800008DB58F778DBD8EB529982C9AA981BA81F7
:10381000EB85FC85AE0FBF1FBA83A9839F0140E0F3
:1038200050E060E070E080E090E0462C4E0EF1E069
:10383000461408F0F0E0E72DE30FA1E0E71508F0EB
:10384000A0E05F2E5E0EF1E05E1608F0F0E0AF2B18
:10385000E82DE40FB1E0E81508F0B0E0EA2EEE0E36
:10386000F1E0EE1608F0F0E0BF2BE92DE50FA1E046
:10387000E91508F0A0E0FB2EFE0EF1E0FE1608F0C0
:10388000F0E0AF2BEA2DE60FB1E0EA1508F0B0E06A
:103890000A2F0E0FF1E00E1708F0F0E0BF2BEB2D12
:1038A000E70FA1E0EB1508F0A0E01B2F1E0FF1E0E1
:1038B0001E1708F0F0E0AF2BEC2DE80FB1E0EC158F
:1038C00008F0B0E0AE0FF1E0AE1708F0F0E0BF2B6B
:1038D0008D2D890F3201470158016D01D80E2B81C2
:1038E0003C818B859C85281B390B3C832B8391E085
:1038F0009093E103AB81BC81AB2B09F068CE81E0F2
:1039000001C080E02C960FB6F894DEBF0FBECDBF8D
:10391000CF91DF911F910F91FF90EF90DF90CF90AB
:10392000BF90AF909F908F907F906F905F904F90DF
:103930003F902F900895EF92FF920F931F938091E5
:10394000E103882311F081E01CC02091D90330915C
:10395000DA034091DB035091DC036091DD03709149
:10396000DE038091DF039091E00309ED11E0E12C8B
:10397000E2E0FE2E0E94C41A882319F081E08093B1
:10398000E1031F910F91FF90EF9008952F923F92C6
:103990004F925F926F927F928F929F92AF92BF925F
:1039A000CF92DF92EF92FF920F931F93DF93CF930B
:1039B000CDB7DEB729970FB6F894DEBF0FBECDBFE7
:1039C00039014A015B016C012801FA82E9826EC16A
:1039D000FFEFEF2EF1E0FF2EE620F7209701A62D56
:1039E000AE19AF83E1E06A1608F0E0E0872D831B93
:1039F00021E0781608F020E0B82FBE1BBB8391E0D1
:103A00008B1708F090E0292B382C321A31E0831400
:103A100008F030E0192D131B61E0911608F060E00A
:103A2000EA2DE61BEC8371E0AE1608F070E0FB2D8A
:103A3000F71BFD8391E0BF1608F090E02C2C291AAB
:103A400091E0C21408F090E02D2D291B2E8380E018
:103A500092E08E199F0999878887A981BA81A81752
:103A6000B90710F4B987A8878091D903BF818B1754
:103A700009F58091DA03EB818E17E1F48091DB0385
:103A80008315C1F48091DC038117A1F48091DD03DB
:103A9000FC818F1779F48091DE032D81821751F418
:103AA0008091DF03821531F48091E0033E8183171A
:103AB00009F486C00E949B1C882309F4FDC0299A42
:103AC0002C988091E20382FF0FC02F813B81432D10
:103AD000512F6C817D81822D9E8109E00E94974645
:103AE000BA01A9019B0105C08F819B81232D312F34
:103AF000AC0181E1B9010E940F19882321F02998B6
:103B00002C9A80E0D9C08FEF8EBD0DB407FEFDCF9B
:103B10008DB58F778DBD8EB58E3FA9F7E9EDF1E0BC
:103B20009FEF9EBD0DB407FEFDCF8DB58F778DBD88
:103B30008EB58083A3E0E83DFA0711F03196F0CF0F
:103B4000BF81B093D903EB81E093DA033092DB03BA
:103B50001093DC03FC81F093DD032D812093DE03C1
:103B60002092DF033E813093E003970127523E4FBE
:103B7000C201B901488559850E94CA478FEF8EBDA1
:103B80000DB407FEFDCF8DB58F778DBD8EB59FEF40
:103B90009EBD0DB407FEFDCF8DB58F778DBD8EB563
:103BA00029982C9AAFEFAEBD0DB407FEFDCFE88586
:103BB000F9854E0E5F1E8DB58F778DBD8EB50DC00C
:103BC000970127523E4FC201B901488559850E948D
:103BD000CA4728853985420E531E89819A81A88556
:103BE000B9858A1B9B0B9A838983AD0160E070E0E5
:103BF00080E090E0A0E0B0E0262C240E31E0261416
:103C000008F030E0272D250FE1E0271508F0E0E06F
:103C1000332E320E31E0321608F030E0E32B282D3F
:103C2000260FF1E0281508F0F0E0EE2EE20E31E06C
:103C3000E21608F030E0F32B292D270FE1E02915DB
:103C400008F0E0E0FF2EF20E31E0F21608F030E06E
:103C5000E32B2A2D280FF1E02A1508F0F0E00E2FB3
:103C6000020F31E0021708F030E0F32B2B2D290F63
:103C7000E1E02B1508F0E0E01F2F120F31E01217E2
:103C800008F030E0E32B2C2D2A0FF1E02C1508F082
:103C9000F0E0E20F31E0E21708F030E0F32B8D2D79
:103CA0008B0F3101470158016F01D80EE981FA816C
:103CB000EF2B09F08DCE81E029960FB6F894DEBF88
:103CC0000FBECDBFCF91DF911F910F91FF90EF906D
:103CD000DF90CF90BF90AF909F908F907F906F902C
:103CE0005F904F903F902F9008952F923F924F9268
:103CF0005F926F927F928F929F92AF92BF92CF927C
:103D0000DF92EF92FF920F931F93DF93CF93CDB784
:103D1000DEB760970FB6F894DEBF0FBECDBF522E50
:103D2000432E4B835C836D837E838F83988718013A
:103D300037019A8289820115110509F488C0E114BE
:103D4000F10409F484C0CE14DF0408F480C0A11487
:103D5000B10409F47CC0882499248E189F08CE18D9
:103D6000DF08970140E050E060E070E080E090E024
:103D7000E9863A874B875C876D877E878F87988B2C
:103D8000252D342D4B815C816D817E818F819885BD
:103D9000810173010E94C61C882309F458C0C10127
:103DA000052D142D2B813C814D815E816F8178859D
:103DB000E980FA80F5010995882309F44AC0C80C06
:103DC000D91CC601860D971D8615970508F441C0BC
:103DD0003985350D91E0351508F090E08A85840D20
:103DE00021E0841508F020E0192F180F91E0181732
:103DF00008F090E0922B4B81940F81E0941708F02B
:103E000080E06C81680F81E05C81651708F080E0DC
:103E10005D81580F81E07D81571708F080E04E8169
:103E2000480F81E02E81421708F080E07F81870FE4
:103E300021E0871708F020E0532E412E9B836C83EE
:103E40005D834E838F838885820F888799CF80E03A
:103E500001C081E060960FB6F894DEBF0FBECDBF03
:103E6000CF91DF911F910F91FF90EF90DF90CF9056
:103E7000BF90AF909F908F907F906F905F904F908A
:103E80003F902F9008958F929F92BF92CF92DF9292
:103E9000EF92FF920F931F93CF93DF93259A279A68
:103EA000249A269829982C9A83E58CBD8DB58E7F0F
:103EB0008DBD1092E20390E02FEF2EBD0DB407FEF2
:103EC000FDCF8DB58F778DBD8EB59F5F9A30A9F7E9
:103ED000299A2C9800E010E080E040E050E060E09B
:103EE00070E00E940F19F82E81E0F81641F081E091
:103EF0000F3F180709F4C3C00F5F1F4FEDCF88E0D5
:103F00004AEA51E060E070E00E940F1982FD2DC086
:103F10008FEF8EBD0DB407FEFDCF8DB58F778DBDB4
:103F20008EB58FEF8EBD0DB407FEFDCF8DB58F77AB
:103F30008DBD8EB58FEF8EBD0DB407FEFDCF8DB557
:103F40008F778DBD0EB400FECCC08FEF8EBD0DB44B
:103F500007FEFDCF8DB58F778DBD8EB58A3A09F0FE
:103F6000C0C082E08093E20312C087E340E050E0EB
:103F700060E070E00E940F1989E240E050E060E0EC
:103F800070E00E940F1982FD02C0F092E203B0902F
:103F9000E2038B2D90E003E0802E912C8822992261
:103FA00012E0C12ED12CC822D922C0E0D0E0811469
:103FB0009104B9F0C114D10431F0E12CF12C012DA0
:103FC000B0E41B2F03C0EE24FF24870187E340E009
:103FD00050E060E070E00E940F1989E2B801A7018B
:103FE00005C081E040E050E060E070E00E940F1901
:103FF00080FF07C08FE7CF3FD80709F440C0219664
:10400000D6CFCD2899F18AE340E050E060E070E03F
:104010000E940F19882399F58FEF8EBD0DB407FE0E
:10402000FDCF8DB58F778DBD0EB406FE04C084E044
:10403000B82AB092E2038FEF8EBD0DB407FEFDCF1C
:104040008DB58F778DBD8EB58FEF8EBD0DB407FE0C
:10405000FDCF8DB58F778DBD8EB58FEF8EBD0DB435
:1040600007FEFDCF8DB58F778DBD8EB580E140E029
:1040700052E060E070E00E940F19882319F029983F
:104080002C9A2FC029982C9A8CB58C7F8CBD8DB51D
:1040900081608DBD8FEF8093D9038093DA03809385
:1040A000DB038093DC038093DD038093DE03809346
:1040B000DF038093E00381E08093E10320E030E0C0
:1040C00040E050E060E070E080E090E009ED11E059
:1040D000E12CA2E0FA2E0E94C61C882319F081E090
:1040E00001C080E0DF91CF911F910F91FF90EF9081
:1040F000DF90CF90BF909F908F9008952F923F9226
:104100004F925F926F927F928F929F92AF92BF92E7
:10411000CF92DF92EF92FF920F931F93DF93CF9393
:10412000CDB7DEB728970FB6F894DEBF0FBECDBF70
:10413000922E832E542E452E362E272E8D839E832F
:104140003801F886EF82DA82C982BC82AB8201151F
:10415000110509F47EC0CD2809F47BC0BB24EF28EB
:1041600009F06EC0BB24B3946BC0C301092D182D98
:10417000252D342D432D522D6D817E81EB80FC80C9
:10418000A981BA81FD0109956C01009709F463C00A
:10419000BB2031F4EF81F885E817F90708F459C01E
:1041A000292D382D452D542D632D722D8D819E8105
:1041B000830176010E94C41A882309F44AC096013B
:1041C000F92DFC0DE1E0F91508F0E0E0882D830FF2
:1041D00021E0881508F020E01E2F180F91E0181735
:1041E00008F090E0922B950D81E0951508F080E0A5
:1041F000682F640D81E0641508F080E0582F530D9E
:1042000081E0531508F080E0482F420D81E042150F
:1042100008F080E02D81820F21E03D81831708F0B6
:1042200020E09F2E812E592E462E1A018D838E81DD
:10423000820F8E83AF81B885AC19BD09B887AF8373
:10424000BB2009F092CFEF81F885EF2B09F08DCFDD
:1042500002C080E001C081E028960FB6F894DEBF6E
:104260000FBECDBFCF91DF911F910F91FF90EF90C7
:10427000DF90CF90BF90AF909F908F907F906F9086
:104280005F904F903F902F900895FC01009711F0A0
:104290001182108208958F929F92AF92BF92CF9217
:1042A000DF92EF92FF920F931F93DF93CF9300D093
:1042B00000D000D0CDB7DEB7DC01009709F4F0C024
:1042C000423051056105710508F4EAC0ED91FC9199
:1042D000119780858B3009F09DC012E0440F551F67
:1042E000661F771F1A95D1F75A016B01EE24FF2440
:1042F00087011A969C901A971B968C911B971C9677
:104300006C911C971D967C911D971E969C911E97F3
:104310001F962C911F9750968C9050975196BC9158
:104320009A0C31E09A1408F030E08B0D41E08B15C7
:1043300008F040E0380F51E0381708F050E0452B06
:104340008C2D860F51E08C1508F050E0480F61E08D
:10435000481708F060E0562B8D2D870F61E08D1512
:1043600008F060E0580F71E0581708F070E0672B14
:1043700071E09E1508F070E0690F81E0691708F0A0
:1043800080E0782B81E02F1508F080E0720FA1E02B
:10439000721708F0A0E08A2B91E0801608F090E0F8
:1043A000880DA1E0881508F0A0E09A2B0190F0811B
:1043B000E02D292D9B0F8E010D5F1F4FA4E0EA2EEB
:1043C000F12C0995882309F46BC02B813C814D8128
:1043D0005E81211531054105510509F465C0273F6E
:1043E0008FEF38078FEF48078FE0580709F458C060
:1043F000DA01C901805F9F4FAF4FBF400797A1050A
:10440000B10508F44DC0DA01C901885F9F4FAF4F75
:10441000BF4042C0440F551F661F771F1A96AD90CC
:10442000BD90CD90DC901D97A40EB51EC61ED71E64
:104430000190F081E02D9501A60160E070E080E040
:1044400090E08E010F5F1F4FA2E0EA2EF12C09953C
:10445000882331F189819A819C0140E050E0211547
:1044600031054105510501F1273F8FEF380780E005
:10447000480780E05807A1F0DA01C901805F9F4F2B
:10448000A040B0400797A105B10550F0DA01C9017D
:10449000885F9F4FA040B0400897A105B10520F468
:1044A00020E030E040E050E0B901CA0126960FB6A6
:1044B000F894DEBF0FBECDBFCF91DF911F910F915A
:1044C000FF90EF90DF90CF90BF90AF909F908F9034
:1044D00008952F923F924F925F926F927F928F92A8
:1044E0009F92AF92BF92CF92DF92EF92FF920F9383
:1044F0001F93DF93CF93CDB7DEB760970FB6F894D5
:10450000DEBF0FBECDBF4C01009709F482C142301F
:1045100051056105710508F47CC1DC011A96BC9156
:10452000B887FC01F385F987DC011C96BC91BA873A
:10453000FC01F585FB87DC011E96BC91BC87FC0164
:10454000F785FD87DC015096BC91BE87FC01F1899F
:10455000FF87DC01ED91FC9180858B3009F0BAC0BA
:1045600012E0440F551F661F771F1A95D1F780E0A0
:1045700090E0A0E0B0E0E885E40FE88B31E0E417DC
:1045800008F030E02985250FE1E0251708F0E0E08C
:10459000320F3F8331E0FF81F21708F030E0E32B68
:1045A0002A85260FF1E0261708F0F0E02E2E220EC5
:1045B00031E0221608F030E0F32B2B85270F31E095
:1045C000271708F030E03F2E320EE1E0321608F0F7
:1045D000E0E03E2B21E0EC85E81708F020E04C8479
:1045E000430E31E0FC854F1608F030E0232B31E01C
:1045F000ED85E91708F030E05D84520E21E0FD857D
:104600005F1608F020E0322B21E0EE85EA1708F073
:1046100020E06E84630E91E0FE856F1608F090E056
:10462000722E792A2F85720ED401ED91FC910190A2
:10463000F081E02D28893F81A101B201C3018E01E3
:104640000D5F1F4FB4E0EB2EF12C0995882309F480
:10465000E0C0AB80BC80CD80DE80A114B104C10479
:10466000D10409F4D8C0D601C501805F9F4FAF4F78
:10467000BF400897A105B10508F4CBC0D601C5011C
:10468000885F9F4FAF4FBF400897A105B10518F451
:10469000AA24BB2465011B821C821D821E82D401B8
:1046A000ED91FC910480F581E02D28893F81A101E5
:1046B000B201C3018E010D5F1F4FA4E0EA2EF12C61
:1046C0000995B601A501A114B104C104D10409F0F2
:1046D00047CFA1C0440F551F661F771F80E090E0B1
:1046E000A0E0B0E02884240E31E0241608F030E089
:1046F0002985250FE1E0251708F0E0E0332E320E82
:1047000031E0321608F030E0E32B2A85260FF1E085
:10471000261708F0F0E04E2E420E31E0421608F067
:1047200030E0F32B2B85270F31E0271708F030E01E
:104730005F2E520EE1E0521608F0E0E03E2B21E041
:10474000EC85E81708F020E06C84630E31E0FC850E
:104750006F1608F030E0232B31E0ED85E91708F003
:1047600030E07D84720E21E0FD857F1608F020E0A8
:10477000322B21E0EE85EA1708F020E0AE84A30E8C
:1047800091E0FE85AF1608F090E0B22EB92A2F8591
:10479000B20ED401ED91FC910190F081E02D9101D8
:1047A000A201B301C5018E010F5F1F4FB2E0EB2ED6
:1047B000F12C0995882369F1C980DA80C114D104EC
:1047C00051F1C6014096089720F1B8EFCB16BFEF24
:1047D000DB0610F0CC24DD241A821982D401ED917D
:1047E000FC910480F581E02D9101A201B301C50186
:1047F0008E010F5F1F4FA2E0EA2EF12C0995A60152
:1048000060E070E0411551056105710509F062CF66
:1048100002C080E001C081E060960FB6F894DEBF70
:104820000FBECDBFCF91DF911F910F91FF90EF9001
:10483000DF90CF90BF90AF909F908F907F906F90C0
:104840005F904F903F902F9008952F923F924F92FC
:104850005F926F927F928F929F92AF92BF92CF9210
:10486000DF92EF92FF920F931F93DF93CF93CDB719
:10487000DEB7AD970FB6F894DEBF0FBECDBF9D8FEC
:104880008C8F3A014B01B901009709F4EDC2DC01AC
:10489000ED91FC911197E080F180FB8EEA8E2481EE
:1048A0003581398F288F1A963C911A973CA31B9615
:1048B0004C911B974DA31C965C911C975EA31D9673
:1048C0008C911D978FA31E969C911E9798A71F965B
:1048D000AC91A9A7AC8DBD8D5096BC91BAA7AC8DFB
:1048E000BD8D5196BC91BBA71F8680858B3011F47E
:1048F000E1E0EF87EC8DFD8D82899389A489B589EC
:10490000FF85FF2351F09C01AD0182E0569547954C
:10491000379527958A95D1F706C09C01AD0156952C
:10492000479537952795288B398B4A8B5B8BC80128
:10493000DB018C8B9D8BAE8BBF8BAA24BB246501C6
:1049400082E090E0A0E0B0E08B879C87AD87BE87D7
:10495000A4E0EA2EF12C012D112DEF82F8860987B3
:104960001A8778C1FF84FF2009F47BC08F81988566
:10497000A985BA85880F991FAA1FBB1F9C01AD018D
:1049800060E070E080E090E00CA1020F0CA7F1E085
:10499000021708F0F0E0EDA1E30FA1E0E31708F043
:1049A000A0E0FE0FFE8FF1E01E8D1E1708F0F0E074
:1049B000AF2BEEA1E40FB1E0E41708F0B0E0AE0FCA
:1049C000AF8FF1E0AE1708F0F0E0BF2BEFA1E50FDD
:1049D000F1E0E51708F0F0E0BE0FB8A3A1E0BE17C4
:1049E00008F0A0E0FA2BE1E0A8A5A61708F0E0E0A7
:1049F00028A42F0EF1E0B8A52B1608F0F0E0EF2B5D
:104A0000F1E0E9A4E71608F0F0E039A43E0EE1E099
:104A1000F9A43F1408F0E0E0FE2BE1E00AA5081736
:104A200008F0E0E04AA44F0E91E01AA5411608F004
:104A300090E05E2E592A2BA5520E2CA53E8D4F8D4F
:104A400058A1B101C2018E010D5F1F4FE4E0EE2EAF
:104A5000F12CAA8DBB8DFD010995882309F07EC03C
:104A600003C2EF80F88409851A85A801970160E0E8
:104A700070E080E090E0FCA0F20EFDA6F1E0F216FE
:104A800008F0F0E0EDA1E30FA1E0E31708F0A0E0EB
:104A9000FE0FF9A3F1E009A10E1708F0F0E0AF2B2B
:104AA000EEA1E40FB1E0E41708F0B0E0AE0FAAA366
:104AB000F1E0AE1708F0F0E0BF2BEFA1E50FA1E0A9
:104AC000E51708F0A0E0BE0FBBA3F1E0BE1708F0A9
:104AD000F0E0AF2BE8A5E60FB1E0E61708F0B0E094
:104AE0002A2E2E0EF1E02E1608F0F0E0BF2BE9A5DD
:104AF000E70FA1E0E71708F0A0E03B2E3E0EF1E043
:104B00003E1608F0F0E0AF2BEAA5E80FB1E0E81799
:104B100008F0B0E04A2E4E0EF1E04E1608F0F0E03C
:104B20005B2E5F2A8BA5890F580E2DA539A14AA1AE
:104B30005BA1B101C2018E010F5F1F4FB2E0EB2EEE
:104B4000F12CAA8DBB8DFD010995882309F48CC138
:104B500089819A81892B09F066C02CC08B819C8148
:104B6000AD81BE810097A105B10509F05CC0A1141B
:104B7000B104C104D10469F4AFEFEA2EAFEFFA2E0D
:104B8000AFEF0A2FAFE01A2FEB82FC820D831E835A
:104B900004C0AB82BC82CD82DE822CA53E8D4F8DBF
:104BA00058A1B101C2018E010D5F1F4FF4E0EF2E3D
:104BB000F12C18C0A114B104C104D10429F4EFEF01
:104BC000FFEFFA83E98302C0BA82A9822DA539A139
:104BD0004AA15BA1B101C2018E010F5F1F4FE2E04C
:104BE000EE2EF12CA88DB98DFD010995882309F4CD
:104BF0003FC00C891D892E893F89015010402040FB
:104C000030400C8B1D8B2E8B3F8B01151105210520
:104C1000310529F4AB84BC84CD84DE8432C0AB84FE
:104C2000BC84CD84DE842B853C854D855E852F5FDD
:104C30003F4F4F4F5F4F2B873C874D875E878F815C
:104C40009885A985BA850296A11DB11D8F83988785
:104C5000A987BA87EB84FC840D851E85288939894C
:104C60004A895B89E216F3060407150708F47ACE31
:104C70008C899D89AE89BF890097A105B10509F08E
:104C8000EDC092E0691671048104910408F4EFC04C
:104C9000AF85AA2309F471C0AB82BC82CD82DE82CB
:104CA000B2E0660C771C881C991CBA95D1F7B40148
:104CB000A30180E090E0A0E0B0E02CA1260D31E05F
:104CC000261508F030E0EDA1E50F11E0E51708F03A
:104CD00010E03E0FF1E03E1708F0F0E01F2BEEA1D0
:104CE000E60F01E0E61708F000E0912E9E0EF1E0DD
:104CF0009E1608F0F0E00F2BEFA1E70FF1E0E717A9
:104D000008F0F0E0E02EEE0E11E0EE1608F010E0F4
:104D1000F12BE1E0F8A4F81608F0E0E0F8A4FF0EAB
:104D2000F1E008A5F01608F0F0E0EF2BF1E019A58E
:104D3000191708F0F0E009A50E0FE1E019A5011719
:104D400008F0E0E0FE2B11E0EAA5EA1708F010E019
:104D50008AA58F0FE1E0FAA58F1708F0E0E01E2B7F
:104D6000492D5E2D6F2D702F9BA5910F8E010D5F2C
:104D70001F4FA4E0EA2EF12C6BC0BA82A982660C08
:104D8000771C881C991CB401A30180E090E0A0E08E
:104D9000B0E02CA1260D31E0261508F030E0EDA1A1
:104DA000E50F11E0E51708F010E03E0FF1E03E17C7
:104DB00008F0F0E01F2BEEA1E60F01E0E61708F087
:104DC00000E0912E9E0EF1E09E1608F0F0E00F2B11
:104DD000EFA1E70FF1E0E71708F0F0E0E02EEE0EAC
:104DE00011E0EE1608F010E0F12BE1E0F8A4F8165F
:104DF00008F0E0E0F8A4FF0EF1E008A5F01608F0D6
:104E0000F0E0EF2BF1E019A5191708F0F0E009A583
:104E10000E0FE1E019A5011708F0E0E0FE2B11E00C
:104E2000EAA5EA1708F010E08AA58F0FE1E0FAA5DD
:104E30008F1708F0E0E01E2B492D5E2D6F2D702F8F
:104E40009BA5910F8E010F5F1F4FE2E0EE2EF12C1C
:104E5000A88DB98DFD010995882349F48C8D9D8D10
:104E6000B601A5010E946922AA24BB246501B501EF
:104E7000C601AD960FB6F894DEBF0FBECDBFCF9181
:104E8000DF911F910F91FF90EF90DF90CF90BF9037
:104E9000AF909F908F907F906F905F904F903F90DA
:104EA0002F90089580E190E00895FC01009711F0A3
:104EB0001182108208952F923F924F925F926F92CB
:104EC0007F928F929F92AF92BF92CF92DF92EF929A
:104ED000FF920F931F93DF93CF93CDB7DEB7689701
:104EE0000FB6F894DEBF0FBECDBF988F8F8B7E8735
:104EF0006D87588B4F87009709F41EC3672B09F401
:104F00001BC34115510509F417C3DC01D396AC90BE
:104F1000D397D496BC90D497D596CC90D597D69667
:104F2000DC90D697D796EC90D797D896FC90D897E8
:104F3000D9960C91D997DA961C91DA9797962D907D
:104F40003D904D905C909A979A0140E050E060E06F
:104F500070E080E090E0B22FBA0DBA8BF1E0B217AA
:104F600008F0F0E0E32FEB0D99249394E31708F099
:104F70009924FE0FF98BF1E0A989AE1708F0F0E053
:104F80009F2AE42FEC0DB1E0E41708F0B0E0692CA3
:104F90006E0EF1E06E1608F0F0E0BF2BE52FED0D80
:104FA000A1E0E51708F0A0E07B2E7E0EF1E07E1672
:104FB00008F0F0E0AF2BE62FEE0DB1E0E61708F0B9
:104FC000B0E08A2E8E0EF1E08E1608F0F0E0BF2BD6
:104FD000E72FEF0DA1E0E71708F0A0E09B2E9E0E53
:104FE000F1E09E1608F0F0E0AF2BE82FE00FB1E003
:104FF000E81708F0B0E0AE0FF1E0AE1708F0F0E00F
:10500000EB2FEF2B892F810FE80FA201910160E0B8
:1050100070E080E090E09E17F0F0E91721F58A1724
:10502000D0F0A81701F57915B0F09716E1F46815DE
:1050300090F08616C1F4571570F07516A1F4461558
:1050400050F0641681F4B9893B1728F0B31759F46E
:10505000EA892E1640F491012A193B09388B2F87D3
:10506000232B09F46CC2AF89B88DED91FC91119797
:10507000208D318D3C872B87DB968D919D910D90F6
:10508000BC91A02D8F839887A987BA870097A10527
:10509000B10509F059C0AF89B88D93962D913D9116
:1050A0004D915C9196972F83388749875A872115B0
:1050B00031054105510559F48A2D8B298C298D29FB
:1050C0008E298F29802B812B09F439C235C28A2D74
:1050D0008B298C298D298E298F29802B812BA1F159
:1050E00035014601EB85FC851F0144245524222708
:1050F0003327A90122193309440955092B8B3C8B0D
:105100004D8B5E8B1CC0AF89B88D8D919C914F816A
:10511000588569857A850E944B216F8378878987B6
:105120009A87611571058105910509F405C22B89DE
:105130003C894D895E89620E731E841E951E621421
:10514000730484049504F8F64B855C854150504007
:105150005C874B874A215B215C834B838B859C85D5
:1051600001969C878B87AF85B889BE83AD83EF8915
:10517000F88D0190F081E02DFA83E983309709F4EE
:105180008EC02F81388549855A85223031054105E9
:10519000510508F484C0225030404040504059012D
:1051A0006A012E5F3F4F4F4F5F4F2F8338874987EC
:1051B0005A87208C318C9501A60160E070E080E078
:1051C00090E05101CC24DD24EE24FF2400E010E027
:1051D0000E949C45E981FA81A28DF38CB48D058DE6
:1051E000E68CD78CC0A011A1A20FF1E0A21708F0A5
:1051F000F0E0232F2F0DE1E0231708F0E0E0FF2E71
:10520000F20E31E0F21608F030E0E32B242F2B0FE2
:10521000F1E0241708F0F0E0BE2FB20F31E0B21732
:1052200008F030E0F32B252F200F41E0251708F080
:1052300040E0F20F31E0F21708F030E0432B262F68
:105240002E0D51E0261708F050E0E42FE20F31E078
:10525000E21708F030E0532B272F2D0D41E02717E0
:1052600008F040E0520F31E0521708F030E0432BD5
:10527000282F2C0D31E0281708F030E0420F81E094
:10528000421708F080E0732E782A190F2A2F9F2DDD
:105290006B2F7F2FAE2FB52F342E710E08C020E05C
:1052A00090E060E070E0A0E0B0E0332477248B84ED
:1052B0009C844B815C81841A950AED81FE81E815FE
:1052C000F90508F44F01E981FA81408051804B8152
:1052D0005C815A01CC24DD24EE24FF248701622E58
:1052E000640E31E0621608F030E0892F8B0D41E04A
:1052F000891708F040E0380F91E0381708F090E087
:10530000492B862F8C0D51E0861708F050E0480F8E
:1053100091E0481708F090E0592B872F8D0D61E040
:10532000871708F060E0580F91E0581708F090E0F8
:10533000692B8A2F8E0D71E08A1708F070E0680FD4
:1053400091E0681708F090E0792B9B2F9F0D81E08A
:105350009B1708F080E0790FA1E0791708F0A0E032
:105360008A2BA32DA00F91E0A31508F090E08A0FDF
:10537000B1E08A1708F0B0E09B2B710ED201ED91DD
:10538000FC91262D970D0D851E85740109958823A6
:1053900009F4AFC02D813E81281939093E832D8340
:1053A000940140E050E060E070E080E090E0AF8980
:1053B000B88DD3961C91D397D496DC90D497D5967C
:1053C000BC91EF89F88D06A9E7A8A0AC71ACF2AC4E
:1053D000180DF1E0181508F0F0E0ED2DE30FA1E055
:1053E000E31708F0A0E0BF2EBE0EF1E0BE1608F0F5
:1053F000F0E0AF2BE42FEB0FB1E0E41708F0B0E0E2
:10540000CA2ECE0EF1E0CE1608F0F0E0BF2BE52F4D
:10541000E00FA1E0E51708F0A0E0DB2EDE0EF1E0E2
:10542000DE1608F0F0E0AF2BE62FEE0DB1E0E61748
:1054300008F0B0E0EA2EEE0EF1E0EE1608F0F0E033
:10544000BF2BE72FEA0DA1E0E71708F0A0E00B2F34
:105450000E0FF1E00E1708F0F0E0AF2BE82FE70D8C
:10546000F1E0E81708F0F0E0AA2EAE0EA1E0AE16CB
:1054700008F0A0E0FA2BF90EFF0DAF89B88DD39696
:105480001C93D397D496BC92D497D596CC92D597AB
:10549000D696DC92D697D796EC92D797D8960C935F
:1054A000D897D996AC92D997DA96FC93DA978B81F4
:1054B0009C81880D991DEB85FC858E179F0710F147
:1054C0008D919C914F81588569857A850E944B21E9
:1054D0006F83788789879A876115710581059105A2
:1054E00079F4AF89B88DDB961D921D921D921C92A6
:1054F000DE974F855889ED81FE814E1B5F0B21C0E1
:105500001C821B822F81388549855A85AF89B88DC9
:10551000DB962D933D934D935C93DE97ED81FE8159
:10552000EF2B39F02D853E85280D391D3E872D87BF
:105530001ECE4F85588905C04FEF5FEF02C040E097
:1055400050E0CA0168960FB6F894DEBF0FBECDBF1B
:10555000CF91DF911F910F91FF90EF90DF90CF904F
:10556000BF90AF909F908F907F906F905F904F9083
:105570003F902F900895FC01009711F01182108246
:105580000895FC01009711F480E0089583A194A18F
:10559000A5A1B6A183AB94ABA5ABB6AB10AE17AAD1
:1055A00081E00895CF92DF92EF92FF920F931F93C5
:1055B000CF93DF936C01FB01B701D701CD91DC9153
:1055C000119712968D919C911397809613969C93A8
:1055D0008E931297D6018C91853E09F4C3C088231F
:1055E00009F4C0C089A59AA5892B9BA5892B9CA5E8
:1055F000892B9DA5892B9EA5892B9FA5892B98A9D1
:10560000892B41F409A71AA72BA73CA74DA75EA792
:10561000EFA7F8AB209709F4A7C0C114D10409F48F
:10562000A3C0F6019081992309F49EC083858F3031
:1056300029F5892F90E08F7390702DE030E0829FE4
:10564000A001839F500D929F500D11244D5050404A
:10565000AEEAB1E0C40FD51F0DC08D91F601E80F81
:10566000F11D808189934F5F5F4FF1E0AB3BBF0736
:1056700009F478C04F31510580F374C088818823C4
:1056800009F04DC0A601DE01860120E0F8019081FD
:10569000903299F09C93F601848583FF08C0F8014D
:1056A0008081813420F08B3510F4905E9C932F5FC5
:1056B0000F5F1F4F1196283049F78881853011F40C
:1056C00085EE8883D60118968C91803221F1FE01F7
:1056D000E20FF11D8EE28083322F3F5F2C5FFA01D3
:1056E00090859032B9F0FE01E30FF11D9083D60151
:1056F0001C968C9184FF09C0DA0118968C91813434
:1057000020F08B3510F4905E90833F5F4F5F5F4FCA
:10571000321729F7232FFE01E20FF11D1082F60147
:10572000838588A3228D338D40E050E0848995895C
:10573000A0E0B0E0DC0199278827822B932BA42BD3
:10574000B52B89A39AA3ABA3BCA3848D958DA68DFD
:10575000B78D8DA39EA3AFA3B8A781E0DB011496FC
:105760008C9302C081E001C080E0DF91CF911F9156
:105770000F91FF90EF90DF90CF9008952F923F927E
:105780004F925F926F927F928F929F92AF92BF9251
:10579000CF92DF92EF92FF920F931F93DF93CF93FD
:1057A000CDB7DEB72C970FB6F894DEBF0FBECDBFD6
:1057B0003C016B01009709F49CC06115710509F467
:1057C00098C0DB019996BC9099979A96AC909A975D
:1057D0009B969C909B979C968C909C979D965C909A
:1057E0009D979E964C909E979F963C909F97D096A3
:1057F0002C908B2D8A298929882985298429832918
:10580000822909F476C0D301ED91FC910190F081D9
:10581000E02D2B2D3A2D492D582D652D742D832DDE
:10582000922D8E010F5F1F4FACE0EA2EF12C0995EF
:10583000882309F45EC0B5EEB983D301ED91FC91E4
:105840000480F581E02D2B2D3A2D492D582D652D05
:10585000742D832D922D8E010F5F1F4F0995882384
:1058600009F447C08C858F3079F57B2D705E81E01F
:105870007B1508F080E0682F6A0D81E06A1508F05A
:1058800080E0582F590D81E0591508F080E0482F2D
:10589000480D81E0481508F080E0382F350D81E093
:1058A000351508F080E0282F240D81E0241508F03C
:1058B00080E0830D91E0831508F090E05B014A01E0
:1058C0002901382E290E9FCFF60141A152A163A1D3
:1058D00074A1411551056105710539F0C3010E949C
:1058E000692220E030E0882311F021E030E0822FAF
:1058F00001C080E02C960FB6F894DEBF0FBECDBF7E
:10590000CF91DF911F910F91FF90EF90DF90CF909B
:10591000BF90AF909F908F907F906F905F904F90CF
:105920003F902F9008952F923F924F925F926F92E7
:105930007F928F929F92AF92BF92CF92DF92EF921F
:10594000FF920F931F93DC01009749F420E030E0B1
:1059500040E050E060E070E080E090E030C0ED9129
:10596000FC911197808552962D913D914D915C91BE
:1059700055975896ED91FC9159978B3041F412E070
:1059800056954795379527951A95D1F704C05695A2
:105990004795379527952250304040405040590157
:1059A0006A01A60160E070E080E090E05F01CC2435
:1059B000DD24EE24FF2400E010E00E949C451F91AE
:1059C0000F91FF90EF90DF90CF90BF90AF909F909E
:1059D0008F907F906F905F904F903F902F900895A1
:1059E0002F923F924F925F926F927F928F929F92EF
:1059F000AF92BF92CF92DF92EF92FF920F931F93DD
:105A0000DF93CF93CDB7DEB7E0970FB6F894DEBF44
:105A10000FBECDBF3C01009709F4F8C019821A826D
:105A20001B821C8280E290E09E838D83D3011A96B4
:105A3000BC91B9A7F301F385FAA7D3011C96BC91D9
:105A4000BBA7F301F585FCA7D3011E96BC91BDA7AA
:105A5000F301F785FEA7D3015096BC91BFA7F301D0
:105A6000F189F8ABD30152962D903D904D905C900A
:105A70005597ADC0BEEF2B16BFEF3B06B0E04B060F
:105A8000B0E05B0628F0EEEFFFEFF8A7EFA302C04F
:105A900038A62FA2D301ED91FC91A281B38180851C
:105AA000863019F0EDE4FEE202C0E7E2FEE229A54D
:105AB0003AA54BA55CA56DA57EA58FA598A98E01DD
:105AC000095F1F4FEE24FF246894E5F8CFA0D8A407
:105AD0005F014E010894811C911CFD0109958823EA
