:10F800000C943E7C0C945B7C0C945B7C0C945B7C39
:10F810000C945B7C0C945B7C0C945B7C0C945B7C0C
:10F820000C945B7C0C945B7C0C945B7C0C945B7CFC
:10F830000C945B7C0C945B7C0C945B7C0C945B7CEC
:10F840000C945B7C0C945B7C0C945B7C0C945B7CDC
:10F850000C945B7C0C945B7C0C945B7C0C945B7CCC
:10F860000C945B7C0C945B7C0C945B7C0C945B7CBC
:10F870000C945B7C0C945B7C0C945B7C11241FBE11
:10F88000CFEFD0E1DEBFCDBF11E0A0E0B1E0E6EA0E
:10F89000FFEF02C005900D92A230B107D9F712E038
:10F8A000A2E0B1E001C01D92AC30B107E1F70E94C7
:10F8B000377D0C94D17F0C94007C982F959595956D
:10F8C00095959595905D8F708A307CF0282F295AF8
:10F8D0008091C00085FFFCCF9093C6008091C0004E
:10F8E00085FFFCCF2093C6000895282F205DF0CF20
:10F8F000982F8091C00085FFFCCF9093C60008959B
:10F90000EF92FF920F931F93EE24FF2487018091C3
:10F91000C00087FD17C00894E11CF11C011D111DDA
:10F9200081E0E81680E1F8068EE0080780E018071D
:10F9300070F3E0910301F091040109958091C000FA
:10F9400087FFE9CF8091C6001F910F91FF90EF9044
:10F9500008950E94807C982F8091C00085FFFCCF85
:10F960009093C60091362CF490330CF09053892F6D
:10F9700008959755892F08951F930E94A97C182FE9
:10F980000E94A97C1295107F810F1F9108951F93EB
:10F99000182F882321F00E94807C1150E1F71F91DD
:10F9A00008951F93182F0E94807C803249F0809127
:10F9B00002018F5F809302018530C1F01F9108958D
:10F9C0008091C00085FFFCCF84E18093C6008091C8
:10F9D000C00085FFFCCF1093C6008091C00085FF5A
:10F9E000FCCF80E18093C6001F910895E091030150
:10F9F000F091040109951F9108950E94807C803246
:10FA000041F0809102018F5F80930201853081F087
:10FA100008958091C00085FFFCCF84E18093C600EB
:10FA20008091C00085FFFCCF80E18093C6000895DF
:10FA3000E0910301F09104010995089540E751E038
:10FA40008823A1F0299A28EE33E0FA013197F1F7E3
:10FA500021503040D1F7299828EE33E0FA01319750
:10FA6000F1F721503040D1F7815061F708953F926E
:10FA70004F925F926F927F928F929F92AF92BF92BE
:10FA8000CF92DF92EF92FF920F931F93CF93DF936A
:10FA900000008FE08093C4001092C50088E180933D
:10FAA000C10086E08093C2005098589A219A85E060
:10FAB0000E941E7D44E1F42E3EE1E32E26E9D22E83
:10FAC0009AE0C92E80E1B82EAA24A39401E4902ED6
:10FAD00016E5812EB2E57B2EA0E26A2EF9E45F2EB8
:10FAE000E3E54E2E70E5372E0E94807C8033B1F125
:10FAF0008133B9F1803409F46FC0813409F476C0E0
:10FB0000823409F485C0853409F488C0803531F128
:10FB1000823521F1813511F1853509F485C08635AD
:10FB200009F48DC0843609F496C0843709F409C1FC
:10FB3000853709F479C1863709F466C080910201DE
:10FB40008F5F80930201853079F6E0910301F09197
:10FB5000040109950E94807C803351F60E94FD7C4F
:10FB6000C3CF0E94807C803249F78091C00085FF1E
:10FB7000FCCFF092C6008091C00085FFFCCF909230
:10FB8000C6008091C00085FFFCCF8092C6008091A6
:10FB9000C00085FFFCCF7092C6008091C00085FF39
:10FBA000FCCF6092C6008091C00085FFFCCF5092D0
:10FBB000C6008091C00085FFFCCF4092C6008091B6
:10FBC000C00085FFFCCF3092C6008091C00085FF49
:10FBD000FCCFB092C60088CF0E94807C863808F4A3
:10FBE000BDCF0E94807C0E94FD7C7ECF0E94807CE5
:10FBF000803809F4A2C0813809F412C1823809F4AE
:10FC000037C1883909F495C080E00E94D17C6CCF5F
:10FC100084E10E94C77C0E94FD7C66CF85E00E9443
:10FC2000C77C0E94FD7C60CF0E94807C8093050190
:10FC30000E94807C809306010E94FD7C55CF0E942B
:10FC4000807C803309F418C183E00E94C77C80E087
:10FC50000E94D17C49CF0E94807C809308020E9440
:10FC6000807C8093070280910B028E7F80930B0231
:10FC70000E94807C853409F410C180910702909124
:10FC80000802892B89F000E010E00E94807CF801D6
:10FC9000E95FFE4F80830F5F1F4F809107029091B5
:10FCA00008020817190788F30E94807C803209F047
:10FCB00045CF80910B0280FFFCC04091050150911F
:10FCC0000601440F551F50930601409305016091B2
:10FCD00007027091080261157105F1F080E090E073
:10FCE0009A01280F391FFC01E95FFE4FE081F99965
:10FCF000FECF1FBA32BD21BDE0BD0FB6F894FA9A0F
:10FD0000F99A0FBE01968617970750F3460F571FB3
:10FD100050930601409305018091C00085FFFCCF00
:10FD2000F092C6008091C00085FFFCCFB092C60063
:10FD3000DBCE83E00E94D17CD7CE82E00E94D17CD2
:10FD4000D3CE0E94807C809308020E94807C8093A6
:10FD500007028091050190910601880F991F9093E9
:10FD60000601809305010E94807C853409F49BC0C4
:10FD700080910B028E7F80930B020E94807C8032E8
:10FD800009F0B2CE8091C00085FFFCCFF092C60092
:10FD9000A0910702B0910802109709F438C0809131
:10FDA0000B02082F0170182F16951170E0910501B4
:10FDB000F0910601AF014F5F5F4FBA0120E030E0E4
:10FDC0000023B1F4112339F494918091C00085FF90
:10FDD000FCCF9093C6002F5F3F4FCB010196FA01F5
:10FDE0002A173B0780F4BC014F5F5F4F002351F39C
:10FDF000F999FECFF2BDE1BDF89A90B58091C000AF
:10FE000085FFFCCFE6CF70930601609305018091DA
:10FE1000C00085FDDECE8091C00085FFF8CFD9CE31
:10FE200081E00E94D17C60CE0E94807C803209F00B
:10FE300085CE8091C00085FFFCCFF092C6008091F6
:10FE4000C00085FFFCCFE092C6008091C00085FF16
:10FE5000FCCFD092C6008091C00085FFFCCFC0923D
:10FE6000C6008091C00085FFFCCFB092C6003CCE9A
:10FE700080E10E94D17C38CE0E94807C0E94807CF0
:10FE8000182F0E94807C112309F483C0113009F4DB
:10FE900084C08AE00E94D17C27CE80910B028160D1
:10FEA00080930B02EACE80910B02816080930B025B
:10FEB00064CF809106018823880F880B8A21809364
:10FEC0000A028091050190910601880F991F909375
:10FED0000601809305018091070280FF09C080918F
:10FEE00007029091080201969093080280930702FE
:10FEF000F894F999FECF1127E0910501F0910601E0
:10FF0000C7E0D1E08091070290910802103091F48F
:10FF10000091570001700130D9F303E000935700BE
:10FF2000E8950091570001700130D9F301E1009389
:10FF30005700E89509901990009157000170013021
:10FF4000D9F301E000935700E8951395103898F025
:10FF500011270091570001700130D9F305E000939B
:10FF60005700E8950091570001700130D9F301E185
:10FF700000935700E8953296029709F0C7CF1030EA
:10FF800011F00296E5CF11248091C00085FFC4CE08
:10FF9000C7CE8EE10E94D17CA7CD86E90E94D17C9C
:06FFA000A3CDF894FFCF91
:02FFA6008000D9
:040000030000F80001
:00000001FF
