:10F800000C943E7C0C94507C0C94507C0C94507C5A
:10F810000C94507C0C94507C0C94507C0C94507C38
:10F820000C94507C0C94507C0C94507C0C94507C28
:10F830000C94507C0C94507C0C94507C0C94507C18
:10F840000C94507C0C94507C0C94507C0C94507C08
:10F850000C94507C0C94507C0C94507C0C94507CF8
:10F860000C94507C0C94507C0C94507C0C94507CE8
:10F870000C94507C0C94507C0C94507C11241FBE32
:10F88000CFEFD0E1DEBFCDBF12E0A0E0B1E001C01C
:10F890001D92A930B107E1F70E94BE7D0C94508003
:10F8A0000C94007C282F992787FD9095807F90707D
:10F8B0009595879595958795959587959595879530
:10F8C0008A30C4F0382F395A822F8F708A307CF0FA
:10F8D000982F995A8091C00085FFFCCF3093C600C5
:10F8E0008091C00085FFFCCF9093C6000895982FAB
:10F8F000905DF0CF382F305DE7CF982F8091C0001A
:10F9000085FFFCCF9093C6000895EF92FF920F936E
:10F910001F932898EE24FF2487018091C00087FD63
:10F9200017C00894E11CF11C011D111D81E0E816AF
:10F9300089E0F8068DE3080780E0180770F3E0918E
:10F940000101F091020109958091C00087FFE9CF84
:10F95000289A8091C6001F910F91FF90EF90089513
:10F960001F930E94857C182F8091C00085FFFCCFDB
:10F970001093C6000E94857C982F8091C00085FF5F
:10F98000FCCF9093C600113664F01755913674F48D
:10F9900090330CF090531295107F892F810F1F9197
:10F9A000089510339CF31053913694F397551295A4
:10F9B000107F892F810F1F910895282F882351F0E0
:10F9C00090E08091C00087FFFCCF8091C6009F5FD0
:10F9D0009217B8F308951F93182F0E94857C8032E8
:10F9E00049F0809100018F5F809300018530C1F064
:10F9F0001F9108958091C00085FFFCCF84E1809322
:10FA0000C6008091C00085FFFCCF1093C600809196
:10FA1000C00085FFFCCF80E18093C6001F91089550
:10FA2000E0910101F091020109951F9108950E9452
:10FA3000857C803241F0809100018F5F80930001CE
:10FA4000853081F008958091C00085FFFCCF84E16E
:10FA50008093C6008091C00085FFFCCF80E1809339
:10FA6000C6000895E0910101F09102010995089501
:10FA7000DF93CF9300D000D0CDB7DEB7882309F055
:10FA800076C041E050E020E030E0289A19821A82E6
:10FA90001B821C8289819A81AB81BC8189599943DF
:10FAA000A040B040A0F489819A81AB81BC810196CD
:10FAB000A11DB11D89839A83AB83BC8389819A81FF
:10FAC000AB81BC8189599943A040B04060F328982C
:10FAD00019821A821B821C8289819A81AB81BC8126
:10FAE0008656964EA040B040A0F489819A81AB81A1
:10FAF000BC810196A11DB11D89839A83AB83BC8310
:10FB000089819A81AB81BC818656964EA040B040D7
:10FB100060F32F5F3F4F241735070CF4B6CF1982DF
:10FB20001A821B821C8289819A81AB81BC818050A0
:10FB30009044A240B040A0F489819A81AB81BC81FD
:10FB40000196A11DB11D89839A83AB83BC838981F2
:10FB50009A81AB81BC8180509044A240B04060F358
:10FB60000F900F900F900F90CF91DF910895482F35
:10FB700050E04115510509F086CFD1CF2F923F9229
:10FB80004F925F926F927F928F929F92AF92BF92AD
:10FB9000CF92DF92EF92FF920F931F93CF93DF9359
:10FBA000000094B714BE809160008861809360006B
:10FBB0001092600091FF5AC28FE08093C4001092AF
:10FBC000C50088E18093C10086E08093C200509810
:10FBD000589A209A83E00E94387D81E00E94387D07
:10FBE00044E1D42E3EE1C32E26E9B22E9AE0A92E9E
:10FBF00080E1982E01E4802E16E5712EB2E56B2E81
:10FC0000A0E25A2EF9E44F2EE3E53E2E70E5272EB2
:10FC10000E94857C8033B9F1813309F444C080347B
:10FC200009F47CC0813409F490C0823479F18534C0
:10FC300009F47EC0803539F1813509F4A8C18235D7
:10FC400011F1853509F49EC0863509F490C08436DB
:10FC500009F4A3C0843709F441C1853709F41CC1F4
:10FC6000863709F480C0809100018F5F8093000186
:10FC7000853071F6E0910101F091020109950E9431
:10FC8000857C803349F60E94177DC2CF90E0809139
:10FC9000C00087FFFCCF8091C6009F5F9431B9F709
:10FCA0000E94177DB5CF0E94857C8032E1F680915D
:10FCB000C00085FFFCCFD092C6008091C00085FFB8
:10FCC000FCCF8092C6008091C00085FFFCCF70926F
:10FCD000C6008091C00085FFFCCF6092C600809175
:10FCE000C00085FFFCCF5092C6008091C00085FF08
:10FCF000FCCF4092C6008091C00085FFFCCF3092BF
:10FD0000C6008091C00085FFFCCF2092C600809184
:10FD1000C00085FFFCCF9092C6007ACF0E94857C00
:10FD2000863808F4B0CF0E94857C0E94177D70CF82
:10FD300090E08091C00087FFFCCF8091C6009F5F5C
:10FD40009530B9F70E94177D63CF0E94857C80387B
:10FD500009F49AC0813809F493C0823809F498C034
:10FD6000883909F489C080E00E94EB7C51CF90E093
:10FD70008091C00087FFFCCF8091C6009F5F9430C8
:10FD8000B9F7F1CF0E94857C809303010E94857CA6
:10FD9000809304010E94177D3BCF0E94857C809355
:10FDA00006020E94857C80930502809108028E7F66
:10FDB000809308020E94857C853429F48091080292
:10FDC00081608093080265E0E62E61E0F62EF7017F
:10FDD000119281E0E538F807D9F7809105029091FA
:10FDE0000602892B89F000E010E00E94857CF80172
:10FDF000EB5FFE4F80830F5F1F4F80910502909154
:10FE000006020817190788F30E94857C803209F0E2
:10FE10002ACF8091080280FFC6C0609105027091D0
:10FE2000060261157105E9F040910301509104014A
:10FE30009A01FB01EB5FFE4FF999FECF32BD21BD68
:10FE4000D7018D917D0180BDFA9AF99A2F5F3F4FBE
:10FE5000AE17BF0789F7460F571F50930401409311
:10FE600003018091C00085FFFCCFD092C600809135
:10FE7000C00085FFFCCF4FCF83E00E94EB7CC8CE53
:10FE800081E00E94EB7CC4CE82E00E94EB7CC0CE7D
:10FE900080E10E94EB7CBCCE0E94857C803209F020
:10FEA000E2CE8091C00085FFFCCFD092C600809149
:10FEB000C00085FFFCCFC092C6008091C00085FFC6
:10FEC000FCCFB092C6008091C00085FFFCCFA0920D
:10FED000C6008091C00085FFFCCF1DCF0E94857CAD
:10FEE000809306020E94857C809305020E94857C97
:10FEF000853409F452C0809108028E7F80930802F5
:10FF00008091030190910401880F991F909304013F
:10FF1000809303010E94857C803209F079CE809124
:10FF2000C00085FFFCCFD092C60000910502109161
:10FF300006020115110509F4AEC080910802B82F20
:10FF4000B170A82FA695A170E0910301F091040172
:10FF50009F012F5F3F4FB90140E050E0BB2309F004
:10FF60008BC0AA2339F494918091C00085FFFCCF07
:10FF70009093C6004F5F5F4FCB010196F901401788
:10FF8000510708F084C0BC012F5F3F4FE7CF0E94AC
:10FF9000177D88E080936000FFCF80910802816028
:10FFA00080930802B7CF8091030190910401880FDC
:10FFB000991F90930401809303018091050280FFB3
:10FFC00009C0809105029091060201969093060265
:10FFD00080930502F999FECF1127E0910301F0917A
:10FFE0000401C5E0D1E08091050290910602103035
:10FFF00091F40091570001700130D9F303E00093B0
:020000021000EC
:100000005700E8950091570001700130D9F301E1E4
:1000100000935700E89509901990009157000170DE
:100020000130D9F301E000935700E895139510389B
:1000300098F011270091570001700130D9F305E0C5
:1000400000935700E8950091570001700130D9F3F3
:1000500001E100935700E8953296029709F0C7CF67
:10006000103011F00296E5CF1124FBCEE091010192
:10007000F09102010995A0CDF999FECFF2BDE1BD45
:10008000F89A90B58091C00085FFFCCF71CF709336
:100090000401609303018091C00085FFFCCF3BCE3B
:0400A000F894FFCF02
:040000030000F80001
:00000001FF
