:100000000C9444070C9461070C9461070C946107ED
:100010000C9461070C9461070C9461070C946107C0
:100020000C9461070C9461070C9461070C946107B0
:100030000C9461070C9461070C9461070C946107A0
:100040000C9461070C9461070C9461070C94610790
:100050000C9463070C9461070C9461070C9461077E
:100060000C9461070C9461070C9461070C94610770
:100070000C9461070C9461070C946107293A2000E5
:10008000746F6F206D616E7920617267756D656E3A
:100090007473280045786974696E670A0078000AED
:1000A000000A4E756D626572206F6620657363612C
:1000B00070652063686172616374657273206E6538
:1000C000656465643A2000456E746572206E756DD6
:1000D000626572206F662065736361706520636876
:1000E000617261637465727320746F206C6F6F6BE3
:1000F00020666F723A200036000A000A4E657720AB
:1001000065736361706520636861726163746572B1
:100110003A2000456E7465722061206E6577206517
:100120007363617065206368617261637465723ABC
:10013000200035004E65772066696C65206E756D10
:1001400062657220726573657420746F207A6572BF
:100150006F0A003400436F6D6D616E642070726FC2
:100160006D70740A003300417070656E64206669BA
:100170006C65206C6F6767696E670A0032004E65B8
:10018000772066696C65206C6F6767696E670A0027
:100190003100782920457869740A003629204E7587
:1001A0006D626572206F66206573636170652063A0
:1001B0006861726163746572730A003529204E6547
:1001C0007720657363617065206368617261637431
:1001D00065720A003429205265736574206E657754
:1001E0002066696C65206E756D6265720A00332940
:1001F00020436F6D6D616E642070726F6D70740A54
:1002000000322920417070656E642066696C65203B
:100210006C6F6767696E670A003129204E65772029
:1002200066696C65206C6F6767696E670A00436872
:10023000616E676520746F3A0A000A00207820001A
:1002400043757272656E74206573636170652063B7
:10025000686172616374657220616E6420616D6FA4
:10026000756E743A20000A00436F6D6D616E640014
:10027000417070656E642066696C65004E6577201C
:1002800066696C650043757272656E7420626F6F8B
:1002900074206D6F64653A20000A53797374656D3C
:1002A00020436F6E66696775726174696F6E0A00CC
:1002B0000A45786974696E670A0078000A476F69B1
:1002C0006E6720746F203233303430306270732E9A
:1002D0002E2E0A0038000A476F696E6720746F205F
:1002E0003131353230306270732E2E2E0A003700D5
:1002F0000A476F696E6720746F2035373630306279
:1003000070732E2E2E0A0036000A476F696E672022
:10031000746F2033383430306270732E2E2E0A0002
:1003200035000A476F696E6720746F2031393230AB
:10033000306270732E2E2E0A0034000A476F696EE9
:100340006720746F20393630306270732E2E2E0A7B
:100350000033000A476F696E6720746F20343830AD
:10036000306270732E2E2E0A0032000A476F696EBB
:100370006720746F20323430306270732E2E2E0A54
:10038000003100782920457869740A003829203224
:100390003330343030206270730A00372920313115
:1003A00035323030206270730A00362920353736F6
:1003B0003030206270730A003529203338343030F1
:1003C000206270730A0034292031393230302062C3
:1003D00070730A0033292039363030206270730A76
:1003E0000032292034383030206270730A003129FD
:1003F0002032343030206270730A004368616E67C7
:100400006520746F3A0A003030206270730A00323F
:10041000333034003131353200353736003338343B
:100420000031393200393600323400343800437537
:100430007272656E743A20000A4261756420436FDF
:100440006E66696775726174696F6E3A0A006261FF
:1004500075640909093A204D656E7520746F206333
:100460006F6E66696775726520626175642072617E
:1004700074650A007365740909093A204D656E7543
:1004800020746F20636F6E6669677572652073797B
:100490007374656D20626F6F74206D6F64650A0000
:1004A0000A4D656E75733A0A0073796E630909091E
:1004B0003A20456E737572657320616C6C206275AD
:1004C0006666657265642064617461206973207773
:1004D00072697474656E20746F207468652063613E
:1004E00072640A00696E69740909093A20526569E3
:1004F0006E697469616C697A657320616E642072DB
:10050000656F70656E7320746865206D656D6F72C0
:100510007920636172640A006469736B0909093A9E
:100520002053686F77732063617264206D616E750C
:1005300066616374757265722C207374617475736F
:100540002C2066696C6573797374656D20636170C6
:10055000616369747920616E6420667265652073D9
:10056000746F726167652073706163650A007369F7
:100570007A65203C66696C653E09093A20577269C4
:1005800074652073697A65206F662066696C6520E2
:10059000746F207465726D696E616C0A00726561BA
:1005A00064203C66696C653E203C73746172743EE5
:1005B000203C6C656E6774683E09093A2057726981
:1005C000746573204153434949203C6C656E6774E0
:1005D000683E207061727473206F66203C66696C9F
:1005E000653E20746F20746865207465726D696E55
:1005F000616C207374617274696E67206174203C51
:1006000073746172743E2E204F6D6D6974203C735B
:10061000746172743E20616E64203C6C656E677418
:10062000683E20746F20726561642077686F6C6526
:100630002066696C650A00636174203C66696C65BC
:100640003E09093A20577269746573206120686514
:100650007864756D70206F66203C66696C653E201D
:10066000746F20746865207465726D696E616C0AC0
:10067000006C730909093A2053686F777320746816
:100680006520636F6E74656E74206F662074686594
:100690002063757272656E74206469726563746F2D
:1006A00072792E205573652077696C64636172647A
:1006B00020746F20646F20612077696C64636172BD
:1006C00064206C697374696E67206F662066696C5C
:1006D000657320696E2063757272656E742064693B
:1006E000726563746F72790A006364202E2E0909A3
:1006F0003A204368616E67657320746F206C6F7772
:100700006572206469726563746F727920696E2006
:10071000747265650A006364203C64697265637481
:100720006F72793E09093A204368616E67657320EC
:1007300063757272656E7420776F726B696E672075
:100740006469726563746F727920746F203C6469A8
:10075000726563746F72793E0A006D64203C64694F
:10076000726563746F72793E093A204372656174F1
:1007700065732061206469726563746F72792063A8
:10078000616C6C6564203C6469726563746F727936
:100790003E0A00726D203C66696C653E09093A208C
:1007A00044656C65746573203C66696C653E2E20FB
:1007B0005573652077696C646361726420746F207F
:1007C000646F20612077696C646361726420726574
:1007D0006D6F76616C206F662066696C65730A00C8
:1007E0007772697465203C66696C653E203C6F6673
:1007F000667365743E093A20577269746573207494
:1008000065787420746F203C66696C653E2C20739B
:1008100074617274696E672066726F6D203C6F66DA
:10082000667365743E2E2054686520746578742064
:10083000697320726561642066726F6D20746865EB
:1008400020554152542C206C696E65206279206CD1
:10085000696E652E2046696E6973682077697468D1
:1008600020616E20656D707479206C696E650A0078
:10087000617070656E64203C66696C653E09093A7A
:1008800020417070656E6473207465787420746F95
:1008900020656E64206F66203C66696C653E2E2084
:1008A000546865207465787420697320726561648A
:1008B0002066726F6D20746865205541525420691E
:1008C0006E20612073747265616D20616E642069B1
:1008D00073206E6F74206563686F65642E204669AF
:1008E0006E6973682062792073656E64696E672033
:1008F0004374726C2B7A2028415343494920323685
:10090000290A006E6577203C66696C653E09093AE4
:100910002043726561746573203C66696C653E0AAC
:1009200000417661696C61626C6520636F6D6D6119
:100930006E64733A0A000A53444C6F67676572200D
:1009400076312E340A007E006572726F72207772E3
:100950006974696E6720746F2066696C650A00654A
:1009600072726F722077726974696E6720746F207B
:1009700066696C650A006572726F722077726974BD
:10098000696E6720746F2066696C650A0065727213
:100990006F722077726974696E6720746F20666960
:1009A0006C650A006572726F722077726974696E85
:1009B0006720746F2066696C650A006572726F72D9
:1009C0002077726974696E6720746F2066696C6540
:1009D0000A006572726F722077726974696E67209F
:1009E000746F2066696C650A006572726F72207799
:1009F000726974696E6720746F2066696C650A009D
:100A00006572726F722077726974696E6720746F95
:100A10002066696C650A006572726F722077726970
:100A200074696E6720746F2066696C650A00657270
:100A3000726F722077726974696E6720746F2066B6
:100A4000696C650A006572726F72207772697469E9
:100A50006E6720746F2066696C650A00216572728A
:100A60006F72207365656B696E67206F6E20002161
:100A70006572726F72206F70656E696E67200075A7
:100A80006E6B6E6F776E20636F6D6D616E643A2072
:100A9000006572726F722073796E63696E6720648D
:100AA00069736B0A0073796E63006572726F7220EE
:100AB0006372656174696E67206469726563746FDF
:100AC00072793A20006D6400617070656E64006533
:100AD00072726F722077726974696E6720746F200A
:100AE00066696C650A006572726F72207365656B6A
:100AF000696E67206F6E20006572726F72206F7072
:100B0000656E696E67200077726974650065727240
:100B10006F72206372656174696E672066696C65C7
:100B20003A20006E6577006572726F722064656CA2
:100B30006574696E672066696C653A2000726D00A5
:100B400073697A65006572726F722072656164699B
:100B50006E67206469736B20696E666F0A00646952
:100B6000736B006572726F72207365656B696E6777
:100B7000206F6E20006572726F72206F70656E69F3
:100B80006E67200072656164006572726F72206F1B
:100B900070656E696E672000636174006C73006439
:100BA00069726563746F7279206E6F7420666F75F9
:100BB0006E643A200063640073657400626175645A
:100BC0000068656C70003F0046696C65207379733E
:100BD00074656D20696E697469616C697A65640A0F
:100BE00000436C6F73696E6720646F776E2066696F
:100BF0006C652073797374656D0A00696E697400A1
:100C0000667265653A20202000666F726D61743AE5
:100C1000200077722E70722E3A2000636F70793A3E
:100C2000202020004D420A0073697A653A20202076
:100C300000646174653A2020200073657269616CFC
:100C40003A203078007265763A20202020007072B9
:100C50006F643A202020006F656D3A20202020002C
:100C60006D616E75663A20203078004F4B0A004661
:100C700041494C210A0068656C70003F003800371C
:100C8000003600350034003300320031003F2920A7
:100C90005072696E742054657374206D656E750AA8
:100CA0000038292053442073776974636820746581
:100CB000737420322028696E7365727420777269AC
:100CC00074652D656E61626C6564205344206361B8
:100CD0007264290A003729205344207377697463AA
:100CE00068207465737420312028636F6D706C65A3
:100CF00074656C792072656D6F766520534420634E
:100D0000617264290A003629205465737420312DDC
:100D10003520696E206F6E6520737465700A00352A
:100D20002920493243206C6F6F706261636B2074BD
:100D300065737420286A756D7065722062657477BA
:100D400065656E2053434C20616E642053444129F5
:100D50000A00342920416E616C6F67206C6F6F70E0
:100D60006261636B2074657374203220286A756D2C
:100D7000706572206265747765656E2041494E32F8
:100D800020616E642041494E33290A0033292041F5
:100D90006E616C6F67206C6F6F706261636B207443
:100DA000657374203120286A756D706572206265E4
:100DB000747765656E2041494E3020616E64204134
:100DC000494E31290A0032292053657269616C321B
:100DD000206C6F6F706261636B2074657374202880
:100DE0006A756D706572206265747765656E2052F4
:100DF000583220616E6420545832290A003129206B
:100E0000526564204C454420746F67676C650A0026
:100E10000A54657374206D656E753A0A0021546F2B
:100E20006F206D616E79206C6F67733A32210021FB
:100E3000546F6F206D616E79206C6F67733A31214A
:100E4000004572726F72206372656174696E67200B
:100E50005345514C4F470A004372656174696E6790
:100E6000205345514C4F470A006572726F72206FD4
:100E700070656E696E6720636F6E6669672066696C
:100E80006C6500320031000011241FBECFEFD0E1AD
:100E9000DEBFCDBF11E0A0E0B1E0E4EBFFE902C0AE
:100EA00005900D92AC3BB107D9F71CE0ACEBB1E07B
:100EB00001C01D92AD3EB107E1F70E94B71A0C9434
:100EC000D84F0C9400001F920F920FB60F9211246E
:100ED0002F938F939F93EF93FF93E091C904F09129
:100EE000CA048091C600EF52FB4F80838091C904F1
:100EF0009091CA0401969093CA048093C90485B165
:100F000091E0892785B98091C9049091CA048050E5
:100F1000984021F41092CA041092C904FF91EF91F5
:100F20009F918F912F910F900FBE0F901F9018954A
:100F3000F999FECF12BC82E081BDF89A90B59093EA
:100F4000C804933069F581E08093CE041092C80400
:100F50008AE18093D30C9093CB04F999FECF12BC15
:100F600082E081BD10BCFA9AF99AF999FECF12BCC1
:100F700081E081BD80BDFA9AF99AF999FECF12BC41
:100F800085E081BD8AE180BDFA9AF99AF999FECF90
:100F900012BC86E081BD83E080BDFA9AF99A08957B
:100FA000963050F01092C804F999FECF12BC82E03E
:100FB00081BD10BCFA9AF99AF999FECF12BC91E062
:100FC00091BDF89A80B58093CE048B3050F0909309
:100FD000CE04F999FECF12BC81E081BD80BDFA9AA2
:100FE000F99AF999FECF12BC85E081BDF89A80B5D7
:100FF0008093D30C81508E3F60F08AE18093D30CB4
:10100000F999FECF12BC85E081BD8AE180BDFA9AD4
:10101000F99AF999FECF12BC86E081BDF89A80B5A5
:101020008093CB0481508E3F60F083E08093CB04AB
:10103000F999FECF12BC86E081BD83E080BDFA9AAB
:10104000F99A0895F999FECF92BD81BD60BDFA9AD3
:10105000F99A0895F999FECF92BD81BDF89A80B5AD
:1010600008959C01220F331F91E084E106C095BBD7
:1010700086BDA89BFECF2050314041E0213034078F
:10108000B0F781E085BB822F819586BDA89BFECFFE
:101090000895CF93DF93EC0105C088EE93E00E94A2
:1010A000310821972097C9F7DF91CF9108950F93C9
:1010B0001F93CF93DF93C0E0D0E0082F10E00BC068
:1010C000289A84E690E00E944908289884E690E0F7
:1010D0000E9449082196C017D10794F380ED97E04C
:1010E0000E944908C0E0D0E0F6CFFF920F931F9313
:1010F0005098589A48991CC0299A10E0FF24F394FC
:1011000002E089E190E00E94490885B18F2585B908
:1011100048990EC089E190E00E94490885B1802776
:1011200085B9489905C01F5F183259F781E001C0A1
:1011300080E01F910F91FF900895ECEBF1E020E02B
:1011400080819181892B19F0828181112F5F3396E3
:1011500081E0E83CF807A1F7822F0895AC01ECEBA1
:10116000F1E020E080819181892B19F08281811149
:101170002F5F339681E0E83CF807A1F7243060F454
:10118000822F90E0FC01EE0FFF1FE80FF91FE454DF
:10119000FE4F5183408362830895AC0120E030E02C
:1011A00070E00DC0FA01E20FF31F808190E0C0975C
:1011B0000A9718F040E050E005C02F5F3F4F261718
:1011C000370784F3CA010895FC01DB0108C08917C1
:1011D00021F08F3311F080E00895319611969C91A3
:1011E0009923F1F080818A3291F71AC080818A3286
:1011F00059F431968081882311F481E008959D018E
:101200002F5F3F4FAF0110C0891711F08F3319F4D2
:101210003196119609C0FA01D9012F5F3F4F04C0E2
:1012200020E030E040E050E09C919923F9F601C0C5
:10123000319690819A32E1F380E0992309F481E0BC
:10124000089586E399E00E94D44981E299E00E94E2
:10125000D44983E099E00E94D44980E798E00E9455
:10126000D44980EE97E00E94D44983E997E00E9438
:10127000D4498AE597E00E94D44986E197E00E942C
:10128000D44989EE96E00E94D44981E796E00E9415
:10129000D44987E396E00E94D4498DE995E00E9405
:1012A000D4498EE695E00E94D44988E195E00E94F9
:1012B000D44984EE94E00E94D44989EA94E00E94E3
:1012C000D44980EA94E00E94D44984E794E00E94E3
:1012D000D4498EE494E00E94D4490895882319F0FB
:1012E0008FE69CE002C08BE69CE00E94D449089502
:1012F0001F93CF93DF93282FEB01ECEBF1E010E08D
:1013000080819181892B19F0828181111F5F339631
:1013100081E0E83CF807A1F7211710F080E013C046
:1013200080E890E00E94D449812F90E00E942049FB
:101330008CE790E00E94D449CE010E94C7498AE020
:101340000E94D84881E0DF91CF911F910895CF93FB
:10135000DF93EC018CE0ECEBF1E0DF011D928A956C
:10136000E9F750E041E0A62FB0E039C0242F30E08B
:10137000FE01E20FF31F8081803229F02F5F3F4F83
:101380002A173B0759F5842F90E001968A179B078F
:1013900009F4462FECEBF1E020E080819181892B6C
:1013A00019F0828181112F5F339681E0E83CF807C4
:1013B000A1F7243088F4822F90E0FC01EE0FFF1F8C
:1013C000E80FF91FE454FE4FCE01850F911D918364
:1013D0008083842F851B82834F5F542F4F5F461776
:1013E00028F2ECEBF1E020E080819181892B19F06B
:1013F000828181112F5F3396A1E0E83CFA07A1F7C3
:10140000822FDF91CF910895982F89E1E4EDFCE0E0
:10141000DF011D928A95E9F79430E8F4892F90E076
:10142000FC01EE0FFF1FE80FF91FE454FE4F60812F
:1014300071816115710579F04281442361F04A316F
:1014400018F049E150E001C050E084ED9CE00E94BA
:10145000764C9C0102C020E030E0C9010895BF92A3
:10146000CF92DF92EF92FF920F931F93CF93DF9370
:10147000EC01B62E60E070E04B2D50E00E943B4C3A
:1014800000E0CB2CDD240894C108D10823C00E94C1
:10149000E249182F883011F08F3789F40023D1F0FA
:1014A0000150FE01E00FF11D108288E00E94D84833
:1014B00080E20E94D84888E00E94D8480BC00E9471
:1014C000D848FE01EE0DFF1D1A3011F4108207C03E
:1014D00010830F5FE02EFF24EC14FD04C4F2CE0154
:1014E0006B2D0E94A709802FDF91CF911F910F9143
:1014F000FF90EF90DF90CF90BF9008959F92AF92B2
:10150000BF92CF92DF92EF92FF920F931F93DF93E0
:10151000CF93CDB7DEB768970FB6F894DEBF0FBE96
:10152000CDBF5E010894A11CB11CBCE09B2EA2E0C3
:10153000FA2E80E19EE00E94D4498DEF9DE00E944A
:10154000D44986EC9DE00E94D4498CE89DE00E943D
:10155000D44982E59DE00E94D4498FE19DE00E943C
:10156000D44986E09DE00E94D44985ED9CE00E942C
:10157000D44981EA9CE00E94D4498DE89CE00E9415
:10158000D449F8E0EF2EE1E0CE2ED12C8EE30E947C
:10159000D848C50168E10E942F0A8823B9F380E08A
:1015A0000E94040A8C016BE87CE00E941B4C892B92
:1015B00021F485B18F2585B9E9CFC80169E87CE0C0
:1015C0000E941B4C892BF9F4EAB88AE090E00E9453
:1015D0003108EBB88AE090E00E94310819B11BB8DD
:1015E0008AE090E00E9431084A9B02C081E009C075
:1015F000812F90E096958795969587958C259D25CA
:1016000081701AB802C1C80167E87CE00E941B4CD7
:10161000892BA9F4F1B88AE090E00E943108F2B871
:101620008AE090E00E94310810B112B88AE090E0A0
:101630000E94310800991CC0812F8C2523C0C8014D
:1016400065E87CE00E941B4C892BF9F4E1B88AE044
:1016500090E00E943108E2B88AE090E00E943108F0
:1016600010B112B88AE090E00E943108029B02C0DB
:1016700081E009C0812F90E0969587959695879592
:101680008C259D25817011B8C0C0C80163E87CE03D
:101690000E941B4C892BC9F4F7B88AE090E00E94A5
:1016A0003108F8B88AE090E00E94310816B118B805
:1016B0008AE090E00E943108309B02C081E003C0C4
:1016C000812F8C25817017B8A0C0C80161E87CE02B
:1016D0000E941B4C892B09F068C0289A299A84EF34
:1016E00091E00E944908EAB88AE090E00E9431083F
:1016F000EBB88AE090E00E94310819B11BB88AE08B
:1017000090E00E9431084A9B02C011E00AC0812F7C
:1017100090E096958795969587958C259D25182F11
:1017200011701AB8F1B88AE090E00E943108F2B85E
:101730008AE090E00E943108009B11E012B88AE034
:1017400090E00E943108009911E011B8E1B88AE0F8
:1017500090E00E943108E2B88AE090E00E943108EF
:10176000029B11E012B88AE090E00E9431080299D1
:1017700011E011B8F7B88AE090E00E943108F8B89B
:101780008AE090E00E943108309B11E018B88AE0AE
:1017900090E00E943108309911E017B8113011F42F
:1017A000289801C02998812F30C0C8016FE77CE0DC
:1017B0000E941B4C892B89F417B88AE090E00E94A4
:1017C000310898B88AE090E00E94310886B118B8D4
:1017D00090E08C708C30B9F417C0C8016DE77CE0E4
:1017E0000E941B4C892BA1F417B88AE090E00E945C
:1017F000310898B88AE090E00E94310886B118B8A4
:1018000090E08C7009F091E0892F0E946E09BECEA5
:10181000C8016BE77CE00E941B4C892B09F489CE40
:10182000C80166E77CE00E941B4C892B09F481CE3D
:10183000ADCECF92DF92EF92FF920F931F93CF9393
:10184000DF93EC01162F60E070E0412F50E00E9422
:101850003B4C00E0C12EDD240894C108D10823C010
:101860000E94E249182F883011F08F3789F4002345
:10187000D1F00150FE01E00FF11D108288E00E94BE
:10188000D84880E20E94D84888E00E94D8480BC01F
:101890000E94D848FE01EE0DFF1D1A3111F410828E
:1018A00007C010830F5FE02EFF24EC14FD04C4F288
:1018B000802FDF91CF911F910F91FF90EF90DF90DC
:1018C000CF9008950F931F93DF93CF93CDB7DEB7DB
:1018D000E1970FB6F894DEBF0FBECDBF0E94FE2188
:1018E000882319F483E00E94570881E89FE160E3B0
:1018F00071E24FE75DE129E333E200E00E94D81A8C
:101900009093D0048093CF04892B79F481E89FE1F0
:1019100060E371E24FE75DE129E333E20FEF0E94FC
:10192000D81A9093D0048093CF048091CF049091E3
:10193000D0040E946C359093C7048093C60460E085
:1019400071E08E010F5F1F4FA8010E941348809124
:10195000C6049091C704B8010E948A479093D20CA4
:101960008093D10CE1960FB6F894DEBF0FBECDBFC9
:10197000CF91DF911F910F910895CF92DF92FF9247
:101980000F931F93CF93DF936B01EA01F22E132F76
:1019900015C08F2D912FBE010E94584C009749F021
:1019A000013061F4CE016F2D712F0E94E408813067
:1019B00029F4C6010E941B2E81E007C0C6016F2DCD
:1019C000712F0E94C331882321F7DF91CF911F919E
:1019D0000F91FF90DF90CF900895CF92DF92EF921A
:1019E000FF920F93DF93CF93CDB7DEB7E1970FB69A
:1019F000F894DEBF0FBECDBF7C016E010894C11C00
:101A0000D11C960100E00E94BD0C882319F420E04F
:101A100030E005C0C701B6010E94CB479C01C90157
:101A2000E1960FB6F894DEBF0FBECDBFCF91DF9128
:101A30000F91FF90EF90DF90CF900895DF92EF929B
:101A4000FF920F931F93DF93CF9300D000D0CDB7B9
:101A5000DEB78C016091D10C7091D20C8091C604DC
:101A60009091C704A8010E94ED0C7C01009759F4E5
:101A70008FE69AE00E94D449C8010E94C7498AE0D3
:101A80000E94D84819C019821A821B821C82BE018A
:101A90006F5F7F4F42E00E945543882379F48CE5C5
:101AA0009AE00E94D449C8010E94C7498AE00E9476
:101AB000D848C7010E94AF2A80E02FC28CE30E9461
:101AC000D848289A1092CA041092C9041092CD04E2
:101AD0001092CC0480E090E0FC01EF52FB4F1082AA
:101AE000019628E080309207B9F78091C1008068A4
:101AF0008093C1007894DD2400E010E0F3C00F5F14
:101B00001F4F83E10938180708F4E8C08091CC041E
:101B10009091CD04892B09F4C9C08091CC04909197
:101B2000CD048050924009F4C1C08091CC049091C2
:101B3000CD048050944009F4B9C08091CC049091B8
:101B4000CD048050964009F4B1C08091CC049091AE
:101B5000CD0480509240B8F44091CC045091CD0413
:101B6000C70161ED74E00E94BD432091CC04309127
:101B7000CD048217930721F085E49AE00E94D449AE
:101B800040E050E05EC08091CC049091CD04805044
:101B90009440D8F44091CC045091CD044050524030
:101BA000C70161ED76E00E94BD432091CC043091E5
:101BB000CD04205032408217930721F08EE29AE044
:101BC0000E94D44940E052E03CC08091CC04909106
:101BD000CD0480509640D8F44091CC045091CD046F
:101BE00040505440C70161ED78E00E94BD43209110
:101BF000CC043091CD04205034408217930721F05B
:101C000087E19AE00E94D44940E054E01AC0409134
:101C1000CC045091CD0440505640C70161ED7AE0AC
:101C20000E94BD432091CC043091CD042050364019
:101C30008217930721F080E09AE00E94D44940E0A7
:101C400056E0F894BA011EC08091CC049091CD0466
:101C5000FC01EF52FB4F2081FB01EF52FB4F208331
:101C600001969093CD048093CC048091CC04909104
:101C7000CD048050984020F01092CD041092CC04F6
:101C80006F5F7F4F2091CC043091CD048091C904C7
:101C90009091CA0428173907B9F67093CA04609363
:101CA000C9045093CD044093CC0478940E94561FED
:101CB00008C0289883B7816083BF889583B78E7FDB
:101CC00083BF2091CC043091CD048091C9049091C0
:101CD000CA042817390769F300E010E081E090E0BA
:101CE0000E9449082091CC043091CD048091C90410
:101CF0009091CA042817390709F401CFE091CC0468
:101D0000F091CD04EF52FB4F90818091D30C981746
:101D100061F4D3948091CB04D81641F4F894809167
:101D2000C1008F778093C10061C0DD248091CC0415
:101D30009091CD0401969093CD048093CC04809132
:101D4000CC049091CD048050924069F4C70161EDBC
:101D500074E040E052E00E94BD438050924019F090
:101D600089EE99E041C08091CC049091CD048050DF
:101D7000944069F4C70161ED76E040E052E00E94D2
:101D8000BD438050924019F082ED99E02DC08091C2
:101D9000CC049091CD048050964069F4C70161ED68
:101DA00078E040E052E00E94BD438050924019F03C
:101DB0008BEB99E019C08091CC049091CD048050B8
:101DC000984009F099CE1092CD041092CC04C7012E
:101DD00061ED7AE040E052E00E94BD4380509240C5
:101DE00009F48ACE84EA99E00E94D4498091CC0417
:101DF0009091CD04892B09F487C08091CC049091F7
:101E0000CD048050924009F47FC08091CC04909121
:101E1000CD048050944009F477C08091CC04909117
:101E2000CD048050964009F46FC08091CC0490910D
:101E3000CD0480509240A0F44091CC045091CD0448
:101E4000C70161ED74E00E94BD432091CC04309144
:101E5000CD048217930709F457C08DE899E052C06A
:101E60008091CC049091CD0480509440B8F440917E
:101E7000CC045091CD0440505240C70161ED76E052
:101E80000E94BD432091CC043091CD0420503240BB
:101E900082179307C9F186E799E034C08091CC049A
:101EA0009091CD0480509640B8F44091CC0450916C
:101EB000CD0440505440C70161ED78E00E94BD431D
:101EC0002091CC043091CD042050344082179307E8
:101ED000D9F08FE599E016C04091CC045091CD0423
:101EE00040505640C70161ED7AE00E94BD43209109
:101EF000CC043091CD04205036408217930721F056
:101F000088E499E00E94D449C7010E94AF2A28982A
:101F100086E499E00E94D44981E00F900F900F90E1
:101F20000F90CF91DF911F910F91FF90EF90DF9075
:101F300008959F92AF92BF92CF92DF92EF92FF925D
:101F40000F931F93DF93CF93CDB7DEB7E1970FB613
:101F5000F894DEBF0FBECDBFF999FECF12BC83E06F
:101F600081BDF89A30B5F999FECF12BC84E081BDED
:101F7000F89A20B53F3FA9F42F3F99F4F999FECF85
:101F800012BC83E081BD10BCFA9AF99AF999FECF90
:101F900012BC84E081BD10BCFA9AF99ACC24DD24ED
:101FA0000EC0922F80E0C32EDD24C82AD92A8EEFDE
:101FB000C8168FEFD80619F48FE29EE04CC000D00F
:101FC00000D000D0EDB7FEB7319604ED1CE0ADB700
:101FD000BEB712961C930E93119782E0E82E81E013
:101FE000F82EF382E282D582C4820E94984C8DB78B
:101FF0009EB706960FB6F8949EBF0FBE8DBF902E6B
:10200000012F5E010894A11CB11C1E2DEF2C26C0CF
:10201000690100D000D000D0EDB7FEB73196ADB762
:10202000BEB711969C92119712960C931283E3827D
:10203000358324830E94984C8DB79EB706960FB6C1
:10204000F8949EBF0FBE8DBF9EEFC9169FEFD906B5
:1020500028F08DE19EE00E94D4492CC08091D10CE3
:102060009091D20C64ED7CE0A5010E948D40960118
:102070002F5F3F4F882361F2932FF999FECF12BC57
:1020800083E081BD20BDFA9AF99AF999FECF12BC7E
:1020900084E081BDF89A80B5891741F0F999FECFA7
:1020A00012BC84E081BD90BDFA9AF99A84ED9CE05F
:1020B0000E941E0DE1960FB6F894DEBF0FBECDBF95
:1020C000CF91DF911F910F91FF90EF90DF90CF9014
:1020D000BF90AF909F900895EF92FF920F931F9340
:1020E000DF93CF93CDB7DEB7EE970FB6F894DEBF90
:1020F0000FBECDBF8E010F5F1F4FC8016EE071E0B4
:102100000E94614C6091D10C7091D20C8091C604F8
:102110009091C704A8010E94ED0C7C010097A9F4DE
:1021200088E59EE00E94D4498091D10C9091D20C18
:10213000B801AE01425F5F4F0E948D40882329F4B1
:1021400081E49EE00E94D44907C0C7010E94AF2AE3
:10215000CE0101960E941E0DEE960FB6F894DEBFDA
:102160000FBECDBFCF91DF911F910F91FF90EF90E8
:1021700008957F928F929F92AF92BF92CF92DF92FB
:10218000EF92FF920F931F93DF93CF93CDB7DEB7FC
:10219000C155D0400FB6F894DEBF0FBECDBF8E0143
:1021A0000C5F1F4FC80169E171E00E94614C6091B2
:1021B000D10C7091D20C21E2E22EF12CEC0EFD1E1E
:1021C0008091C6049091C704A801970100E00E9485
:1021D000BD0C882339F08091C6049091C704B701E3
:1021E0000E942C2E8E010C5F1F4F8091D10C90917C
:1021F000D20CB801AE014F5D5F4F0E948D40882325
:1022000019F484E291E010C06091D10C7091D20C6D
:102210008091C6049091C704A8010E94ED0C5C0156
:10222000009729F481E491E00E94C749EEC0F99932
:10223000FECF12BC81E081BDF89A90B5F999FECF2E
:1022400012BC82E081BDF89A70B4F999FECF12BC3D
:1022500085E081BDF89A90B4F999FECF12BC86E072
:1022600081BDF89A80B4992329F4CE0141966DE599
:1022700071E030C0943029F4CE01419662E671E0FD
:1022800029C0913029F4CE01419667E671E022C061
:10229000953029F4CE0141966CE671E01BC0963072
:1022A00029F4CE01419662E771E014C0923029F41E
:1022B000CE01419668E771E00DC0933029F4CE015C
:1022C00041966EE771E006C0973031F4CE01419639
:1022D00065E871E00E94614C8E010F5E1F4FC801DE
:1022E0006CE871E00E94424C00D000D000D0EDB705
:1022F000FEB731967E010894E11CF11CADB7BEB764
:102300001296FC92EE9211979EE8C92E91E0D92E7A
:10231000D382C282948215820E94984C8DB79EB758
:1023200006960FB6F8949EBF0FBE8DBFC801B701C9
:102330000E94424CC8016CE871E00E94424C00D0FF
:1023400000D000D0EDB7FEB73196ADB7BEB712964C
:10235000FC92EE921197D382C282848215820E94EF
:10236000984C8DB79EB706960FB6F8949EBF0FBED9
:102370008DBFC801B7010E94424CC8016CE871E0F2
:102380000E94424C00D000D000D0EDB7FEB731968D
:10239000ADB7BEB71296FC92EE921197D382C2826D
:1023A000748215820E94984C8DB79EB706960FB620
:1023B000F8949EBF0FBE8DBFC801B7010E94424C6A
:1023C00081ED94E0B8010E94614CF8010190002079
:1023D000E9F73197E01BF10BC50161ED74E0AF0146
:1023E0000E94BD43F80101900020E9F73197E01BFE
:1023F000F10B8E179F0721F081E991E00E94C749F8
:10240000C5010E94AF2A0E94561FCF5ADF4F0FB658
:10241000F894DEBF0FBECDBFCF91DF911F910F911A
:10242000FF90EF90DF90CF90BF90AF909F908F90F4
:102430007F900895FF920F931F93DF93CF9300D067
:1024400000D00F92CDB7DEB7F999FECF12BC82E073
:1024500081BDF89AF0B48E010F5F1F4F89E992E0B9
:102460000E94D44985E892E00E94D449FF2019F4E3
:102470008CE792E00BC081E0F81619F480E792E057
:1024800005C082E0F81621F488E692E00E94D44963
:1024900086E692E00E94D44980E492E00E94D4490A
:1024A0006091D30C70E080E090E00E945E498CE384
:1024B00092E00E94D4496091CB0470E080E090E00B
:1024C0000E945E498AE392E00E94D4498EE292E043
:1024D0000E94D44989E192E00E94D44981E092E0CF
:1024E0000E94D4498EEE91E00E94D44984ED91E09F
:1024F0000E94D4498BEB91E00E94D4498BE991E092
:102500000E94D44982E991E00E94D4498EE30E945E
:10251000D848C80165E00E942F0A882309F49ECF9D
:10252000C80160E971E00E941B4C892B59F48EE7C9
:1025300091E00E94D449F999FECF12BC82E081BD9E
:1025400010BC12C0C8016CE771E00E941B4C892BC3
:1025500081F487E691E00E94D449F999FECF12BC3C
:1025600082E081BD81E080BDFA9AF99A0E94B9109B
:102570008CC0C80165E671E00E941B4C892B51F4A8
:1025800085E591E00E94D449F999FECF12BC82E022
:1025900081BDE9CFC80163E571E00E941B4C892B26
:1025A000A9F484E391E00E94D449F999FECF12BCCA
:1025B00083E081BD10BCFA9AF99AF999FECF12BC5A
:1025C00084E081BD10BCFA9AF99A5FC0C80162E349
:1025D00071E00E941B4C892B09F583E191E00E9478
:1025E000D4490E94E249982F8093D30CF999FECFE9
:1025F00012BC85E081BD90BDFA9AF99A0E94B9108B
:102600008BEF90E00E94D4496091D30C70E080E0A1
:1026100090E00E945E4989EF90E035C0C80167EF05
:1026200070E00E941B4C892B21F587EC90E00E9402
:10263000D4490E94E249982F90539A30B0F7909372
:10264000CB04F999FECF12BC86E081BD90BDFA9A09
:10265000F99A0E94B91081EA90E00E94D4496091F1
:10266000CB0470E080E090E00E945E498FE990E04A
:102670000AC0C8016DE970E00E941B4C892B09F06B
:10268000EDCE84E990E00E94D4490F900F900F9016
:102690000F900F90CF91DF911F910F91FF900895B0
:1026A000FF920F931F93DF93CF9300D000D00F9230
:1026B000CDB7DEB7F999FECF12BC81E081BDF89AA3
:1026C000F0B48E010F5F1F4F88E394E00E94D4495D
:1026D0008EE294E00E94D44984E0F81619F48BE26B
:1026E00094E028C0FF2019F488E294E023C081E040
:1026F000F81619F485E294E01DC085E0F81619F487
:1027000081E294E017C086E0F81619F48DE194E0B8
:1027100011C082E0F81619F489E194E00BC083E05F
:10272000F81619F484E194E005C087E0F81621F466
:102730008FE094E00E94D44987E094E00E94D4495D
:102740008BEF93E00E94D4498EEE93E00E94D4492F
:1027500081EE93E00E94D44984ED93E00E94D44935
:1027600086EC93E00E94D44988EB93E00E94D44920
:102770008AEA93E00E94D4498BE993E00E94D4490D
:102780008CE893E00E94D44983E893E00E94D44906
:102790008EE30E94D848C80165E00E942F0A882372
:1027A00009F492CFC80161E873E00E941B4C892BA9
:1027B00059F48BE693E00E94D449F999FECF12BCFC
:1027C00081E081BD10BC7DC0C80169E673E00E9454
:1027D0001B4C892B59F483E593E00E94D449F99965
:1027E000FECF12BC81E081BD84E06AC0C80161E512
:1027F00073E00E941B4C892B51F48BE393E00E9401
:10280000D449F999FECF12BC81E081BD59C0C801FD
:1028100069E373E00E941B4C892B59F482E293E038
:102820000E94D449F999FECF12BC81E081BD85E0B8
:1028300047C0C80160E273E00E941B4C892B59F429
:1028400089E093E00E94D449F999FECF12BC81E05F
:1028500081BD86E035C0C80167E073E00E941B4C73
:10286000892B59F480EF92E00E94D449F999FECF68
:1028700012BC81E081BD82E023C0C8016EEE72E02F
:102880000E941B4C892B59F486ED92E00E94D4499A
:10289000F999FECF12BC81E081BD83E011C0C8016F
:1028A00064ED72E00E941B4C892B99F48CEB92E052
:1028B0000E94D449F999FECF12BC81E081BD87E026
:1028C00080BDFA9AF99A0E94B91085E00E945708D3
:1028D0000CC0C8016AEB72E00E941B4C892B09F006
:1028E000F3CE80EB92E00E94D4490F900F900F90AE
:1028F0000F900F90CF91DF911F910F91FF9008954E
:102900002F923F924F925F926F927F928F929F92FF
:10291000AF92BF92CF92DF92EF92FF920F931F93ED
:10292000DF93CF93CDB7DEB7C357D0400FB6F8943F
:10293000DEBF0FBECDBF6EE0462E512C4C0E5D1E8D
:1029400053E4652E712C6C0E7D1E46E0242E312C36
:102950002C0E3D1E8EE30E94D848C20168E10E9401
:102960002F0A8823B9F380E00E94040A8C016BEFE0
:102970007BE00E941B4C892BA9F481EE9BE00E9416
:10298000D4498091C6049091C7040E94002480918C
:10299000CF049091D0040E94D01A0E94620C88EC5F
:1029A0009BE024C4C80166EC7BE00E941B4C892B91
:1029B00039F0C80161EC7BE00E941B4C892B19F4B3
:1029C0000E942109C7CFC8016CEB7BE00E941B4C21
:1029D000892B19F40E945013BDCFC80168EB7BE02E
:1029E0000E941B4C892B19F40E941A12B3CFC80104
:1029F00065EB7BE042E050E00E94244C892BC1F55E
:102A000082E0B2010E947809882309F0A3CF81E017
:102A10000E94040A7C01009709F49CCF6091D10CBC
:102A20007091D20C8091C6049091C704A7019301C4
:102A300000E00E94BD0C8823A9F08091C60490910B
:102A4000C704B3010E948A478C01009759F0809116
:102A5000D10C9091D20C0E94152E1093D20C0093A1
:102A6000D10C78CF8FE99BE00E94D449C701C6C33F
:102A7000C8016CE97BE00E941B4C892B09F044C023
:102A800081E00E94040A7C0134E2D32E33C0E114B9
:102A9000F10431F0C701B3010E94E408882351F129
:102AA000D3010D900020E9F78D0101501040061967
:102AB0001709C3010E94C749F30180A184FD02C028
:102AC00080E201C08FE21D2D101B0E94D84804C077
:102AD00080E20E94D84811501123D1F7D301959676
:102AE0006D917D918D919C9198970E945E498AE0AD
:102AF0000E94D8488091D10C9091D20CB3010E94D1
:102B0000C331882321F626CFC80168E97BE043E082
:102B100050E00E94244C892B09F04DC082E0B201A4
:102B20000E947809882309F015CF81E00E94040AE9
:102B30008C01009709F40ECF6091D10C7091D20CEA
:102B40008091C6049091C704A8010E94ED0C5C011D
:102B5000009721F0CC24DD24760122C089E89BE097
:102B60004AC3C701B6010E940D498AE30E94D848B2
:102B7000810180E20E94D848F80181918F010E9472
:102B8000E748802F82198915A0F38AE00E94D8486F
:102B900088E090E0A0E0B0E0C80ED91EEA1EFB1E5F
:102BA000C501B10148E050E00E94B52A982E882363
:102BB000C1F6C5017DC0C80164E87BE044E050E097
:102BC0000E94244C892B09F0E2C081E00E94040A93
:102BD0008C01009709F4BECE6091D10C7091D20C9B
:102BE0008091C6049091C704A8010E94ED0C4C018D
:102BF000009719F485E79BE0FEC282E00E94040A78
:102C0000AC01009709F457C0FC0101900020E9F7DE
:102C10003197E81B20E030E06E2F70E00BC0FA0126
:102C2000E20FF31F808190E0C0970A9708F043C03D
:102C30002F5F3F4F2617370794F38A0120E030E0DB
:102C400040E050E017C0CA01B9012AE030E040E09E
:102C500050E00E94394F9B01AC018F2D90E0C0974E
:102C6000AA2797FDA095BA2F280F391F4A1F5B1F6F
:102C70000F5F1F4FD801FC908F2D80538A3018F3BF
:102C80002A833B834C835D83C401BE016E5F7F4F0B
:102C900040E00E945543882371F483E69BE00E9444
:102CA000D449C2010E94C7498AE00E94D848C401A1
:102CB0000E94AF2A4FCE83E00E94040AAC01009725
:102CC000E1F1FC0101900020E9F73197E81B20E0D9
:102CD00030E06E2F70E00AC0FA01E20FF31F80812E
:102CE00090E0C0970A9748F52F5F3F4F26173707A8
:102CF0009CF36A01EE24FF24870118C0C801B701C4
:102D00002AE030E040E050E00E94394F7B018C0126
:102D10008B2D90E0C097AA2797FDA095BA2FE80EBB
:102D2000F91E0A1F1B1F0894C11CD11CF601B0809C
:102D30008B2D80538A3010F318C0EE24EA94FE2CB9
:102D4000870113C09981892F80528F3510F4892F04
:102D500005C09A3011F48AE001C08EE20E94D84882
:102D60000894E108F10801091109C401BE016F5F6F
:102D70007F4F41E050E00E94B52A181619060CF06A
:102D800093CFE114F10401051105E1F68DCFC801DF
:102D90006EE57BE00E941B4C892B09F0B4C0E090EB
:102DA000C604F090C704E114F10409F4A9C0CE01EF
:102DB00086960E942D1C882309F4A2C080E69CE020
:102DC0000E94D4498EA10E94E7488AE00E94D84818
:102DD00087E59CE00E94D449CE0187960E94C749AE
:102DE0008AE00E94D8488EE49CE00E94D449CE013B
:102DF0008A960E94C7498AE00E94D84885E49CE0F0
:102E00000E94D44988A90E94E7488AE00E94D848D5
:102E10008AE39CE00E94D44969A97AA98BA99CA95C
:102E20000E940D498AE00E94D84881E39CE00E94FC
:102E3000D4498EA990E00E9420498FE20E94D84890
:102E40008DA990E00E9420498AE00E94D84888E23B
:102E50009CE00E94D4492FA938AD49AD5AAD6BAD65
:102E60007CAD8DAD9EAD04E10E94FF4AB901CA015F
:102E70000E945E4984E29CE00E94D4498BE19CE080
:102E80000E94D4498FAD90E00E9420498AE00E94C0
:102E9000D84882E19CE00E94D44922968FAD2297C7
:102EA00090E00E9420498FE20E94D84821968FAD81
:102EB000219790E00E9420498AE00E94D84889E04A
:102EC0009CE00E94D44923968FAD239790E00E9406
:102ED00020498AE00E94D84880E09CE00E94D449C2
:102EE000C7010E945E2FB901CA010E945E498FE2AC
:102EF0000E94D848C7010E94012FB901CA012FC002
:102F000085E49BE073C1C80160E47BE044E050E0ED
:102F10000E94244C892B59F582E0B2010E94780965
:102F2000882309F017CD81E00E94040AAC010097C4
:102F300009F410CD6091D10C7091D20C8091C6042F
:102F40009091C704930100E00E94BD0C882351F0CA
:102F5000D30195966D917D918D919C9198970E944A
:102F60005E494EC18AEA91E00E94C749F3CCC8018C
:102F70006DE37BE042E050E00E94244C892B89F510
:102F800083E0B2010E947809882309F0E3CC81E054
:102F90000E94040A7C010097A1F4DCCC8091C60455
:102FA0009091C704B3010E942C2E882351F487E22C
:102FB0009BE00E94D449C2010E94C7498AE00E9456
:102FC000D8486091D10C7091D20C8091C604909138
:102FD000C704A701930101E00E94BD0C8823F1F60C
:102FE000B9CCC80163E27BE043E050E00E94244C8E
:102FF000892BF1F482E0B2010E947809882309F05C
:10300000A9CC81E00E94040ABC01009709F4A2CC7B
:103010008091D10C9091D20CA3010E948D40882305
:1030200009F098CC8DE09BE00E94D449C201E6C033
:10303000C80167E07BE045E050E00E94244C892B0A
:1030400009F08FC081E00E94040A5C01009709F436
:1030500081CC82E00E94040A8C010097C9F0FC0137
:1030600001900020E9F73197E81B20E030E04E2F77
:1030700050E00BC0F801E20FF31F808190E0C09791
:103080000A9708F067CC2F5F3F4F2417350794F35A
:103090006091D10C7091D20C8091C6049091C704BC
:1030A000A5010E94ED0C7C01009729F020E030E0A2
:1030B00040E050E01DC088EF9AE00E94D449C5016D
:1030C0009DC0CA01B9012AE030E040E050E00E9412
:1030D000394F9B01AC018D2D90E0C097AA2797FD39
:1030E000A095BA2F280F391F4A1F5B1F0F5F1F4F74
:1030F000F801D0808D2D80538A3018F32A833B83CA
:103100004C835D83C701BE016E5F7F4F40E00E942C
:103110005543882359F486EE9AE00E94D449C501AC
:103120000E94C7498AE00E94D84819C08CE30E94D7
:10313000D848C20168E10E942F0A182F882379F02D
:10314000C701B201412F50E00E94BD43212F30E062
:103150008217930759F38FEC9AE00E94D449C70174
:10316000A7CDC80168EC7AE046E050E00E94244C0C
:10317000892B81F482E0B2010E947809882309F04A
:10318000E9CB81E00E94040A009709F4E3CB0E9496
:103190001E0DE0CBC80165EC7AE042E050E00E94F1
:1031A000244C892BA9F481E00E94040A8C01009729
:1031B00009F4D0CB8091D10C9091D20CB801A3012D
:1031C0000E94A43E882309F0C5CB8AEA9AE013C086
:1031D000C80165EA7AE00E941B4C892B51F40E94D9
:1031E000561F882309F0B6CB81E99AE00E94D449A2
:1031F000B1CB8FE79AE00E94D449C8010E94C74929
:103200008AE00E94D848A6CB4F925F926F927F923D
:103210008F929F92AF92BF92CF92DF92EF92FF92E6
:103220000F931F93DF93CF93CDB7DEB7C555D04033
:103230000FB6F894DEBF0FBECDBF08E0E02EF12C34
:10324000EC0EFD1EC70169E171E00E94614C6091C6
:10325000D10C7091D20C8091C6049091C704A70143
:103260009E012B5D3F4F00E00E94BD0C882309F4B6
:1032700005C16091D10C7091D20C8091C6049091DF
:10328000C704A7010E94ED0C7C01009729F489E690
:103290009EE00E94D449F4C015E1C12ED12CCC0E81
:1032A000DD1EB60140E150E00E94B52A682EC7013C
:1032B0000E94AF2A11E0AA24BAE19B2EA3E08A2E35
:1032C000BB2477247E010894E11CF11C2601F7E061
:1032D000CF2ED12CCC0EDD1E85C0ED93B3948A2F5A
:1032E0008E19F201EB0DF11DE081EC3229F0B614DC
:1032F00018F4AC15BD0589F7F701E80FF11D108230
:10330000772009F047C0C7016DE571E00E94584C75
:10331000009711F410E064C0C70162E671E00E94FA
:10332000584C009711F414E05BC0C70167E671E0E8
:103330000E94584C009709F452C0C7016CE671E036
:103340000E94584C009711F415E04AC0C70162E78B
:1033500071E00E94584C009711F416E041C0C7017B
:1033600068E771E00E94584C009711F412E038C0F1
:10337000C7016EE771E00E94584C009711F413E00A
:103380002FC0C70165E871E00E94584C009739F5DD
:1033900017E026C081E0781649F4C7010E94FD4B72
:1033A000982E1816ECF0EAE19E2E1AC082E07816EC
:1033B00051F4C7010E94FD4B882E81508A3080F065
:1033C00073E0872E0DC083E0781681F4C7010E9458
:1033D000FD4BA82E8150853018F0AA2401C011E0C1
:1033E0007394B394B61410F4D70179CF8091CE04BE
:1033F000181769F48091C804A816B1F48091D30C11
:10340000981691F48091CB04881671F439C0F9991B
:10341000FECF12BC81E081BD10BDFA9AF99A1093DB
:10342000CE04812F0E94A4488091C804A81651F0B0
:10343000A092C804F999FECF12BC82E081BDA0BC65
:10344000FA9AF99A8091D30C981651F09092D30C75
:10345000F999FECF12BC85E081BD90BCFA9AF99A29
:103460008091CB04881651F08092CB04F999FECF5D
:1034700012BC86E081BD80BCFA9AF99A0E94B9100C
:10348000CB5ADF4F0FB6F894DEBF0FBECDBFCF9142
:10349000DF911F910F91FF90EF90DF90CF90BF9041
:1034A000AF909F908F907F906F905F904F90089516
:1034B0000F931F9382E085BD80916400896C809397
:1034C000640083B7817F83BF83B7816083BF209A05
:1034D000219A0E9475088823A9F1F999FECF12BCA0
:1034E00081E081BD80BDFA9AF99AF999FECF12BCAC
:1034F00082E081BD10BCFA9AF99AF999FECF12BC0C
:1035000085E081BD8AE180BDFA9AF99AF999FECFEA
:1035100012BC86E081BD83E080BDFA9AF99A0E94D0
:10352000620C0E94B910289A299A01E012E084EFF7
:1035300091E00E94490885B1802785B985B181272E
:1035400085B9F5CF0E9498078091CE040E94A448C7
:1035500085E89EE00E94D4490E94620C83E89EE0C8
:103560000E94D4490E9404191F910F9108950E944E
:10357000581A8091C804882311F40E94990F8091F1
:10358000C804813011F40E946C108091C80483300B
:1035900011F40E947E0A0E94801480E090E0089559
:1035A000FC01009711F480E00895108681E00895F1
:1035B0004F925F926F927F928F929F92BF92CF9223
:1035C000DF92EF92FF920F931F93DF93CF93CDB7CC
:1035D000DEB760970FB6F894DEBF0FBECDBF6C01AB
:1035E0004B013A012901B02E009709F49CC06115E6
:1035F000710509F498C083E080170CF494C007FDAE
:1036000025C0802F992787FD9095B4E0880F991FDA
:10361000BA95E1F782549E4FFC01FF0FEE0BFE2F8F
:103620009C014E2F5E2F6E2F7E2F8E2F9E2F8E0190
:103630000F5F1F4FE0E1EE2EF12CF6010995882374
:1036400009F471C08D81882309F46DC08091D00187
:10365000882309F068C080C08D818093D0012A85BD
:1036600030E040E050E0542F432F322F22278B854B
:1036700090E0A0E0B0E0DC0199278827282B392BC7
:103680004A2B5B2B898590E0A0E0B0E0282B392BFA
:103690004A2B5B2B8C8590E0A0E0B0E0B82FAA27E6
:1036A00099278827282B392B4A2B5B2B2093D10174
:1036B0003093D2014093D3015093D4012E8530E052
:1036C00040E050E0542F432F322F22278F8590E087
:1036D000A0E0B0E0DC0199278827282B392B4A2B62
:1036E0005B2B8D8590E0A0E0B0E0282B392B4A2B96
:1036F0005B2B888990E0A0E0B0E0B82FAA2799273B
:103700008827282B392B4A2B5B2B2093D50130930C
:10371000D6014093D7015093D80103C08FEF809317
:10372000D0019F0102C020E030E0C90160960FB6D1
:10373000F894DEBF0FBECDBFCF91DF911F910F91E7
:10374000FF90EF90DF90CF90BF909F908F907F90F1
:103750006F905F904F900895E8ECF1E081E1DF0118
:103760001D928A95E9F7D092C901C092C801909242
:10377000CB018092CA017092CD016092CC0150922F
:10378000CF014092CE01B7FE67CFC8CF81E0089548
:1037900080E00895282F8FEF8EBD0DB407FEFDCF7A
:1037A0008DB58F778DBD8EB5822F80648EBD0DB4A3
:1037B00007FEFDCF8DB58F778DBD872F9927AA275F
:1037C000BB278EBD0DB407FEFDCF8DB58F778DBDA8
:1037D000CB01AA27BB278EBD0DB407FEFDCF8DB54B
:1037E0008F778DBDBB27A72F962F852F8EBD0DB44C
:1037F00007FEFDCF8DB58F778DBD4EBD0DB407FE95
:10380000FDCF8DB58F778DBD222319F0283069F457
:1038100006C085E98EBD0DB407FEFDCF0BC087E85D
:103820008EBD0DB407FEFDCF05C08FEF8EBD0DB46C
:1038300007FEFDCF8DB58F778DBD90E02FEF2EBDAC
:103840000DB407FEFDCF8DB58F778DBD8EB58F3F43
:1038500019F49F5F9A3099F708958F929F92AF92D3
:10386000BF92CF92DF92EF92FF920F931F93CF936D
:10387000DF93EC01009791F08DE1FE0111928A95A2
:10388000E9F7299A2C988AE040E050E060E070E087
:103890000E94CA1B882321F029982C9A80E022C11B
:1038A0009FEF9EBD0DB407FEFDCF8DB58F778DBD0B
:1038B0008EB58E3FB1F71C2FCE01FC0160E670E0A3
:1038C0000FEF9E2F911B0EBD0DB407FEFDCF8DB5E2
:1038D0008F778DBD2EB5983028F4933088F49923D6
:1038E00059F00CC09D3018F4993070F40BC09D3025
:1038F00019F19E3069F524C028832AC0208328C08E
:10390000218326C02A8724C030E040E050E0062E04
:1039100004C0220F331F441F551F0A94D2F78B8512
:103920009C85AD85BE85822B932BA42BB52B8B87D5
:103930009C87AD87BE870CC02295207F2F8708C04B
:10394000922F92959F708F85892B8F872F70288B50
:103950003196685070408FEF603D780709F0B1CF25
:1039600089E040E050E060E070E00E94CA1B8823DC
:1039700009F092CF9FEF9EBD0DB407FEFDCF8DB530
:103980008F778DBD8EB58E3FB1F78091E203C82E43
:10399000DD24E2E0CE22DD249924BB24EE24FF24A2
:1039A00010E088248A94AA24A3948EBC0DB407FE48
:1039B000FDCF8DB58F778DBD2EB51E3081F4822F52
:1039C00090E026FDA98E85FDAA8E84FDAB8E8C70BD
:1039D000907095958795959587958C8F7CC0C1142F
:1039E000D10439F1173029F0173050F01A3040F473
:1039F00001C02F739E2D8827E22EFF24E82AF92A82
:103A0000193009F068C00894E11CF11C970140E0EE
:103A100050E060E070E080E090E003E10E947E4BC7
:103A2000298B3A8B4B8B5C8B6D8B7E8B8F8B988F1E
:103A300052C01730D9F0183030F4153061F016301C
:103A400009F049C00CC0193031F11930C0F01A30FA
:103A500009F041C025C07FE0972E92223CC0822F02
:103A600090E083709070F82EEE2435C0822F90E0A5
:103A7000E82AF92AEE0CFF1CEE0CFF1C2CC0229544
:103A8000269526952370822F90E0E82AF92A08943B
:103A9000E11CF11C20C043E0B42EB222BB0C1BC0C1
:103AA000221F2227221FB22A970140E050E0E92D71
:103AB000F0E03296EB0DF11D04C0220F331F441FBE
:103AC000551FEA95D2F7298B3A8B4B8B5C8B1D8A5D
:103AD0001E8A1F8A188E1F5F123109F066CF29983F
:103AE0002C9A81E0DF91CF911F910F91FF90EF9081
:103AF000DF90CF90BF90AF909F908F9008952F92BE
:103B00003F924F925F926F927F928F929F92AF926D
:103B1000BF92CF92DF92EF92FF920F931F93DF93AA
:103B2000CF93CDB7DEB72C970FB6F894DEBF0FBE9C
:103B3000CDBF39014A015B016C011A830983FC8204
:103B4000EB8293C1BFEF4B2EB1E05B2E4620572096
:103B50009201A62DA419AA87E1E06A1608F0E0E018
:103B6000872D831B21E0781608F020E0B82FBE1BBC
:103B7000BD8391E08B1708F090E0292BE82DE21B24
:103B8000EE8331E08E1608F030E0F92DF31BFF8351
:103B900061E09F1608F060E02A2D261B288771E05F
:103BA000A21608F070E02B2C271A91E0B21408F04E
:103BB00090E03C2C391A91E0C31408F090E03D2DC0
:103BC000391B398780E092E0841995099C878B879F
:103BD000AB81BC81A817B90710F4BC87AB87809173
:103BE000D903BA858B1709F58091DA03ED818E1719
:103BF000E1F48091DB03FE818F17B9F48091DC033F
:103C00002F81821791F48091DD033885831769F441
:103C10008091DE03821549F48091DF03831529F436
:103C20008091E00399858917A9F10E94561F882386
:103C300009F422C14114510429F4AB85BC85A0507C
:103C4000B24090F42A853D814E815F816885722D56
:103C5000832D998509ED11E0E12CA2E0FA2E0E9456
:103C6000811F882309F408C1FA85F093D9032D81B7
:103C70002093DA033E813093DB038F818093DC0352
:103C800098859093DD032092DE033092DF03A985AF
:103C9000A093E003E981FA81E95DF140A1F092018E
:103CA00027523E4FC90169817A814B855C850E940C
:103CB000324C1092E1038B819C81AB85BC858A17C5
:103CC0009B0709F4D7C0299A2C988091E20382FFC0
:103CD0000FC02A853D814E815F816885722D832DBD
:103CE000998509E00E94FF4ABA01A9019B0105C01C
:103CF0008A859D812E813F81AC0188E1B9010E94B6
:103D0000CA1B882319F029982C9AB6C0BEEFBEBDF5
:103D10000DB407FEFDCF8DB58F778DBDE9EDF1E0D8
:103D200081918EBD0DB407FEFDCF8DB58F778DBD12
:103D300023E0E93DF207A1F73FEF3EBD0DB407FEDA
:103D4000FDCF8DB58F778DBD8FEF8EBD0DB407FE86
:103D5000FDCF8DB58F778DBD9FEF9EBD0DB407FE56
:103D6000FDCF8DB58F778DBD8EB58F3FA9F78EBDF9
:103D70000DB407FEFDCF8DB58F778DBD8EB529981B
:103D80002C9AA981BA81EB85FC85AE0FBF1FBA833F
:103D9000A9839F0140E050E060E070E080E090E0A7
:103DA000462C4E0EF1E0461408F0F0E0E72DE30F4C
:103DB000A1E0E71508F0A0E05F2E5E0EF1E05E16D0
:103DC00008F0F0E0AF2BE82DE40FB1E0E81508F0C3
:103DD000B0E0EA2EEE0EF1E0EE1608F0F0E0BF2BB8
:103DE000E92DE50FA1E0E91508F0A0E0FB2EFE0E9D
:103DF000F1E0FE1608F0F0E0AF2BEA2DE60FB1E09F
:103E0000EA1508F0B0E00A2F0E0FF1E00E1708F0E7
:103E1000F0E0BF2BEB2DE70FA1E0EB1508F0A0E0E1
:103E20001B2F1E0FF1E01E1708F0F0E0AF2BEC2D5A
:103E3000E80FB1E0EC1508F0B0E0AE0FF1E0AE171E
:103E400008F0F0E0BF2B8D2D890F3201470158019A
:103E50006D01D80E2B813C818B859C85281B390BED
:103E60003C832B8391E09093E103AB81BC81AB2B2E
:103E700009F068CE81E001C080E02C960FB6F8947E
:103E8000DEBF0FBECDBFCF91DF911F910F91FF908D
:103E9000EF90DF90CF90BF90AF909F908F907F90EA
:103EA0006F905F904F903F902F900895EF92FF9208
:103EB0000F931F938091E103882311F081E01CC0D0
:103EC0002091D9033091DA034091DB035091DC0358
:103ED0006091DD037091DE038091DF039091E00338
:103EE00009ED11E0E12CE2E0FE2E0E947F1D882307
:103EF00019F081E08093E1031F910F91FF90EF9003
:103F000008952F923F924F925F926F927F928F927D
:103F10009F92AF92BF92CF92DF92EF92FF920F9358
:103F20001F93DF93CF93CDB7DEB729970FB6F894E1
:103F3000DEBF0FBECDBF39014A015B016C01280114
:103F4000FA82E9826EC1FFEFEF2EF1E0FF2EE6204C
:103F5000F7209701A62DAE19AF83E1E06A1608F0AD
:103F6000E0E0872D831B21E0781608F020E0B82FD1
:103F7000BE1BBB8391E08B1708F090E0292B382CF7
:103F8000321A31E0831408F030E0192D131B61E080
:103F9000911608F060E0EA2DE61BEC8371E0AE16A6
:103FA00008F070E0FB2DF71BFD8391E0BF1608F0D1
:103FB00090E02C2C291A91E0C21408F090E02D2DED
:103FC000291B2E8380E092E08E199F0999878887AC
:103FD000A981BA81A817B90710F4B987A887809179
:103FE000D903BF818B1709F58091DA03EB818E1716
:103FF000E1F48091DB038315C1F48091DC03811728
:10400000A1F48091DD03FC818F1779F48091DE03A8
:104010002D81821751F48091DF03821531F4809154
:10402000E0033E81831709F486C00E94561F88234F
:1040300009F4FDC0299A2C988091E20382FF0FC0F9
:104040002F813B81432D512F6C817D81822D9E815B
:1040500009E00E94FF4ABA01A9019B0105C08F81B6
:104060009B81232D312FAC0181E1B9010E94CA1B34
:10407000882321F029982C9A80E0D9C08FEF8EBD3B
:104080000DB407FEFDCF8DB58F778DBD8EB58E3FFC
:10409000A9F7E9EDF1E09FEF9EBD0DB407FEFDCF5E
:1040A0008DB58F778DBD8EB58083A3E0E83DFA078F
:1040B00011F03196F0CFBF81B093D903EB81E0933B
:1040C000DA033092DB031093DC03FC81F093DD0311
:1040D0002D812093DE032092DF033E813093E003A5
:1040E000970127523E4FC201B901488559850E9468
:1040F000324C8FEF8EBD0DB407FEFDCF8DB58F779F
:104100008DBD8EB59FEF9EBD0DB407FEFDCF8DB565
:104110008F778DBD8EB529982C9AAFEFAEBD0DB4BB
:1041200007FEFDCFE885F9854E0E5F1E8DB58F77B2
:104130008DBD8EB50DC0970127523E4FC201B9010A
:10414000488559850E94324C28853985420E531E78
:1041500089819A81A885B9858A1B9B0B9A8389835B
:10416000AD0160E070E080E090E0A0E0B0E0262CDF
:10417000240E31E0261408F030E0272D250FE1E071
:10418000271508F0E0E0332E320E31E0321608F049
:1041900030E0E32B282D260FF1E0281508F0F0E0A1
:1041A000EE2EE20E31E0E21608F030E0F32B292D7E
:1041B000270FE1E0291508F0E0E0FF2EF20E31E0D4
:1041C000F21608F030E0E32B2A2D280FF1E02A1533
:1041D00008F0F0E00E2F020F31E0021708F030E097
:1041E000F32B2B2D290FE1E02B1508F0E0E01F2F1A
:1041F000120F31E0121708F030E0E32B2C2D2A0FBC
:10420000F1E02C1508F0F0E0E20F31E0E21708F0E1
:1042100030E0F32B8D2D8B0F3101470158016F01D9
:10422000D80EE981FA81EF2B09F08DCE81E0299635
:104230000FB6F894DEBF0FBECDBFCF91DF911F91B7
:104240000F91FF90EF90DF90CF90BF90AF909F9035
:104250008F907F906F905F904F903F902F90089538
:104260002F923F924F925F926F927F928F929F9286
:10427000AF92BF92CF92DF92EF92FF920F931F9374
:10428000DF93CF93CDB7DEB760970FB6F894DEBF5C
:104290000FBECDBF522E432E4B835C836D837E8336
:1042A0008F839887180137019A8289820115110539
:1042B00009F488C0E114F10409F484C0CE14DF04C9
:1042C00008F480C0A114B10409F47CC088249924A6
:1042D0008E189F08CE18DF08970140E050E060E09C
:1042E00070E080E090E0E9863A874B875C876D87D5
:1042F0007E878F87988B252D342D4B815C816D8136
:104300007E818F819885810173010E94811F88239E
:1043100009F458C0C101052D142D2B813C814D811C
:104320005E816F817885E980FA80F501099588239F
:1043300009F44AC0C80CD91CC601860D971D861504
:10434000970508F441C03985350D91E0351508F021
:1043500090E08A85840D21E0841508F020E0192F73
:10436000180F91E0181708F090E0922B4B81940FF2
:1043700081E0941708F080E06C81680F81E05C8137
:10438000651708F080E05D81580F81E07D81571747
:1043900008F080E04E81480F81E02E81421708F03E
:1043A00080E07F81870F21E0871708F020E0532EFF
:1043B000412E9B836C835D834E838F838885820F20
:1043C000888799CF80E001C081E060960FB6F894AD
:1043D000DEBF0FBECDBFCF91DF911F910F91FF9038
:1043E000EF90DF90CF90BF90AF909F908F907F9095
:1043F0006F905F904F903F902F9008958F929F9273
:10440000BF92CF92DF92EF92FF920F931F93CF93C1
:10441000DF93259A279A249A269829982C9A83E53F
:104420008CBD8DB58E7F8DBD1092E20390E02FEF95
:104430002EBD0DB407FEFDCF8DB58F778DBD8EB52A
:104440009F5F9A30A9F7299A2C9800E010E080E04D
:1044500040E050E060E070E00E94CA1BF82E81E06E
:10446000F81641F081E00F3F180709F4C3C00F5F51
:104470001F4FEDCF88E04AEA51E060E070E00E9413
:10448000CA1B82FD2DC08FEF8EBD0DB407FEFDCF80
:104490008DB58F778DBD8EB58FEF8EBD0DB407FEB8
:1044A000FDCF8DB58F778DBD8EB58FEF8EBD0DB4E1
:1044B00007FEFDCF8DB58F778DBD0EB400FECCC04D
:1044C0008FEF8EBD0DB407FEFDCF8DB58F778DBDFF
:1044D0008EB58A3A09F0C0C082E08093E20312C030
:1044E00087E340E050E060E070E00E94CA1B89E290
:1044F00040E050E060E070E00E94CA1B82FD02C014
:10450000F092E203B090E2038B2D90E003E0802E66
:10451000912C8822992212E0C12ED12CC822D922B6
:10452000C0E0D0E081149104B9F0C114D10431F09D
:10453000E12CF12C012DB0E41B2F03C0EE24FF244D
:10454000870187E340E050E060E070E00E94CA1B12
:1045500089E2B801A70105C081E040E050E060E0D9
:1045600070E00E94CA1B80FF07C08FE7CF3FD807CB
:1045700009F440C02196D6CFCD2899F18AE340E0D6
:1045800050E060E070E00E94CA1B882399F58FEF2D
:104590008EBD0DB407FEFDCF8DB58F778DBD0EB4EA
:1045A00006FE04C084E0B82AB092E2038FEF8EBD0D
:1045B0000DB407FEFDCF8DB58F778DBD8EB58FEF16
:1045C0008EBD0DB407FEFDCF8DB58F778DBD8EB539
:1045D0008FEF8EBD0DB407FEFDCF8DB58F778DBDEE
:1045E0008EB580E140E052E060E070E00E94CA1BBE
:1045F000882319F029982C9A2FC029982C9A8CB5C9
:104600008C7F8CBD8DB581608DBD8FEF8093D9037C
:104610008093DA038093DB038093DC038093DD03D4
:104620008093DE038093DF038093E00381E0809337
:10463000E10320E030E040E050E060E070E080E046
:1046400090E009ED11E0E12CA2E0FA2E0E94811F1A
:10465000882319F081E001C080E0DF91CF911F91A4
:104660000F91FF90EF90DF90CF90BF909F908F9031
:1046700008952F923F924F925F926F927F928F9206
:104680009F92AF92BF92CF92DF92EF92FF920F93E1
:104690001F93DF93CF93CDB7DEB728970FB6F8946B
:1046A000DEBF0FBECDBF922E832E542E452E362E4A
:1046B000272E8D839E833801F886EF82DA82C982A5
:1046C000BC82AB820115110509F47EC0CD2809F426
:1046D0007BC0BB24EF2809F06EC0BB24B3946BC031
:1046E000C301092D182D252D342D432D522D6D81FB
:1046F0007E81EB80FC80A981BA81FD0109956C0166
:10470000009709F463C0BB2031F4EF81F885E81706
:10471000F90708F459C0292D382D452D542D632D46
:10472000722D8D819E81830176010E947F1D8823D9
:1047300009F44AC09601F92DFC0DE1E0F91508F0E5
:10474000E0E0882D830F21E0881508F020E01E2F7F
:10475000180F91E0181708F090E0922B950D81E06A
:10476000951508F080E0682F640D81E0641508F06D
:1047700080E0582F530D81E0531508F080E0482F5A
:10478000420D81E0421508F080E02D81820F21E08A
:104790003D81831708F020E09F2E812E592E462E52
:1047A0001A018D838E81820F8E83AF81B885AC19FB
:1047B000BD09B887AF83BB2009F092CFEF81F885A0
:1047C000EF2B09F08DCF02C080E001C081E0289678
:1047D0000FB6F894DEBF0FBECDBFCF91DF911F9112
:1047E0000F91FF90EF90DF90CF90BF90AF909F9090
:1047F0008F907F906F905F904F903F902F90089593
:10480000FC01009711F01182108208957F928F921F
:104810009F92AF92BF92CF92DF92EF92FF920F934F
:104820001F93DF93CF9300D000D000D0CDB7DEB779
:10483000DC01009709F441C1423051056105710561
:1048400008F43BC1ED91FC91119780851A962C914B
:104850001A971B961C911B971C96CC901C971D9623
:10486000BC901D971E96FC901E971F96EC901F976C
:104870005096DC90509751967C908B3009F090C008
:10488000B2E0440F551F661F771FBA95D1F780E03D
:1048900090E0A0E0B0E0822E840E31E0841608F0B3
:1048A00030E0150F21E0151708F020E0932E910E4F
:1048B00001E0911608F000E0202B1C2D160F31E0CE
:1048C000161708F030E0A22EA10E01E0A11608F0A4
:1048D00000E0302B1B2D170F01E0171708F000E048
:1048E000B32EB10E21E0B11608F020E0022B11E04A
:1048F000F81608F010E0C02ECF0C01E0CF1408F03D
:1049000000E0102B01E0E91608F000E0F12EFE0CAB
:1049100011E0FE1408F010E0012B11E0DA1608F0A7
:1049200010E0802F8D0DA1E08D1508F0A0E01A2B6E
:104930000190F081E02D9401A5016C2D7F2D912F28
:10494000970D8E010D5F1F4FA4E0EA2EF12C099503
:10495000882309F4B2C02B813C814D815E812115F1
:1049600031054105510509F4ACC0273F8FEF3807E9
:104970008FEF48078FE0580709F49FC0DA01C9019B
:10498000805F9F4FAF4FBF400797A105B10508F467
:1049900094C0DA01C901885F9F4FAF4FBF4089C003
:1049A000440F551F661F771F80E090E0A0E0B0E045
:1049B000822E840E31E0841608F030E0150F21E0DD
:1049C000151708F020E0932E910E01E0911608F0E3
:1049D00000E0202B1C2D160F31E0161708F030E0F8
:1049E000A22EA10E01E0A11608F000E0302B1B2D35
:1049F000170F01E0171708F000E0B32EB10E21E009
:104A0000B11608F020E0022B11E0F81608F010E0D3
:104A1000C02ECF0C01E0CF1408F000E0102B01E015
:104A2000E91608F000E0F12EFE0C11E0FE1408F08B
:104A300010E0012B11E0DA1608F010E0802F8D0D48
:104A4000A1E08D1508F0A0E01A2B0190F081E02D77
:104A50009401A5016C2D7F2D912F970D8E010F5F75
:104A60001F4FA2E0EA2EF12C0995882331F18981AC
:104A70009A819C0140E050E0211531054105510526
:104A800001F1273F8FEF380780E0480780E05807A3
:104A9000A1F0DA01C901805F9F4FA040B0400797A5
:104AA000A105B10550F0DA01C901885F9F4FA04010
:104AB000B0400897A105B10520F420E030E040E0C7
:104AC00050E0B901CA0126960FB6F894DEBF0FBEBA
:104AD000CDBFCF91DF911F910F91FF90EF90DF90AD
:104AE000CF90BF90AF909F908F907F9008952F921E
:104AF0003F924F925F926F927F928F929F92AF926E
:104B0000BF92CF92DF92EF92FF920F931F93DF93AA
:104B1000CF93CDB7DEB764970FB6F894DEBF0FBE64
:104B2000CDBF2C013A014B01009709F49EC14230E0
:104B300051056105710508F498C1D2011A96BC911E
:104B4000BC87F201F385FD87D2011C96BC91BE871C
:104B5000F201F585FF87D2011E96BC91B88BF20158
:104B6000F785F98BD2015096BC91BA8BF201F1898D
:104B7000FB8BD201ED91FC9180858B3009F0D4C084
:104B8000D401C30112E0880F991FAA1FBB1F1A95F9
:104B9000D1F79C01AD0160E070E080E090E0BC8561
:104BA000B20FBC8BF1E0B21708F0F0E0ED85E30F37
:104BB000A1E0E31708F0A0E0FE0FFF83F1E0BF8162
:104BC000BE1708F0F0E0AF2BEE85E40FB1E0E4177C
:104BD00008F0B0E0AE0FA887F1E0AE1708F0F0E003
:104BE000BF2BEF85E50FF1E0E51708F0F0E0BE0F11
:104BF000B987A1E0BE1708F0A0E0FA2BE1E0A88990
:104C0000A61708F0E0E0B889BF0FBA87F1E0A889DD
:104C1000BA1708F0F0E0EF2BF1E0B989B71708F008
:104C2000F0E0A989AE0FAB87E1E0B989AB1708F0D6
:104C3000E0E0FE2BE1E0AA89A81708F0E0E02A886E
:104C40002F0E91E0BA892B1608F090E03E2E392AFB
:104C5000EB893E0ED201ED91FC910190F081E02DA7
:104C60002C893F81488559856A857B85C1018E01E4
:104C70000D5F1F4FB4E0EB2EF12C0995882309F44A
:104C8000F4C0AB80BC80CD80DE80A114B104C1042F
:104C9000D10409F4ECC0D601C501805F9F4FAF4F2E
:104CA000BF400897A105B10508F4DFC0D601C501D2
:104CB000885F9F4FAF4FBF400897A105B10518F41B
:104CC000AA24BB246501F20186A597A5A0A9B1A9D4
:104CD0000097A105B10539F4D2019E966D927D929F
:104CE0008D929C92D1971B821C821D821E82D201C2
:104CF000ED91FC910480F581E02D2C893F81488560
:104D000059856A857B85C1018E010D5F1F4FA4E027
:104D1000EA2EF12C099535014601A114B104C10414
:104D2000D10409F02DCFA3C0660C771C881C991CF8
:104D3000B401A30180E090E0A0E0B0E02C84260C58
:104D400031E0261408F030E02D85250FE1E025172D
:104D500008F0E0E0332E320E31E0321608F030E099
:104D6000E32B2E85260FF1E0261708F0F0E06E2EDB
:104D7000620E31E0621608F030E0F32B2F85270F2A
:104D800031E0271708F030E07F2E720EE1E0721656
:104D900008F0E0E03E2B21E0E889E81708F020E089
:104DA0008888830E31E0F8898F1608F030E0232BD5
:104DB00031E0E989E91708F030E09988920E21E0A6
:104DC000F9899F1608F020E0322B21E0EA89EA17E2
:104DD00008F020E0AA88A30E91E0FA89AF1608F047
:104DE00090E0B22EB92A8B89B80ED201ED91FC91D8
:104DF0000190F081E02D9101A301B401C5018E0164
:104E00000F5F1F4FB2E0EB2EF12C0995882369F15B
:104E1000C980DA80C114D10451F1C60140960897C7
:104E200020F1B8EFCB16BFEFDB0610F0CC24DD2469
:104E30001A821982D201ED91FC910480F581E02D56
:104E40009101A301B401C5018E010F5F1F4FA2E0C4
:104E5000EA2EF12C099536018824992461147104F5
:104E60008104910409F060CF02C080E001C081E0BC
:104E700064960FB6F894DEBF0FBECDBFCF91DF9121
:104E80001F910F91FF90EF90DF90CF90BF90AF9068
:104E90009F908F907F906F905F904F903F902F905A
:104EA00008952F923F924F925F926F927F928F92CE
:104EB0009F92AF92BF92CF92DF92EF92FF920F93A9
:104EC0001F93DF93CF93CDB7DEB7E1970FB6F8947A
:104ED000DEBF0FBECDBF998F888F1A012B01B9019C
:104EE000009709F41BC3DC01ED91FC91119720811F
:104EF00031813F8B2E8B448155815D8B4C8B1A9673
:104F00005C911A9758A71B968C911B9789A71C96A2
:104F10009C911C979AA71D96AC91ABA7A88DB98DB3
:104F20001E96BC91BCA7A88DB98D1F96BC91BDA73C
:104F3000A88DB98D5096BC91BEA7A88DB98D5196FC
:104F4000BC91BFA7A88DB98D9E966D907D908D90D8
:104F50009C90D1971B8680858B3011F4B1E0BB8784
:104F6000E88DF98D82899389A489B589FB85FF2312
:104F700051F09C01AD0182E05695479537952795F4
:104F80008A95D1F706C09C01AD0156954795379596
:104F900027952C873D874E875F87A88DB98D9E9674
:104FA0001D921D921D921C92D197C801DB01888B26
:104FB000998BAA8BBB8B2C853D854E855F852F8376
:104FC000388749875A87AA24BB246501A0C132E0EB
:104FD000631671048104910448F08C859D85AE852B
:104FE000BF85681679068A069B0628F0A2E06A2E1D
:104FF000712C812C912C9B85992309F481C0D401BB
:10500000C301F2E0880F991FAA1FBB1FFA95D1F7C1
:105010009C01AD0160E070E080E090E0A8A5A20FE7
:10502000A8ABF1E0A21708F0F0E0E9A5E30FA1E0DA
:10503000E31708F0A0E0FE0FFA8FF1E0BA8DBE177B
:1050400008F0F0E0AF2BEAA5E40FB1E0E41708F0B8
:10505000B0E0AE0FAB8FF1E0AE1708F0F0E0BF2B81
:10506000EBA5E50FF1E0E51708F0F0E0BE0FBC8F0F
:10507000A1E0BE1708F0A0E0FA2BE1E01CA516178E
:1050800008F0E0E0ACA5AF0FAD8FF1E0BCA5AB1729
:1050900008F0F0E0EF2BF1E01DA5171708F0F0E0A5
:1050A000ADA5AE0FAE8FE1E0BDA5AB1708F0E0E017
:1050B000FE2BE1E01EA5181708F0E0E02EA52F0F4B
:1050C0002F8F91E03EA5231708F090E0E92B4FA524
:1050D000E40FE8A328A93A8D4B8D5C8D6D8D7E8DF4
:1050E0008F8D9E2F8E010D5F1F4FE4E0EE2EF12C71
:1050F000AE89BF89FD010995882309F084C00EC2DD
:10510000D401C301880F991FAA1FBB1F9C01AD01C9
:1051100060E070E080E090E0B8A5B20FB9ABF1E0DC
:10512000B21708F0F0E0E9A5E30FA1E0E31708F0FB
:10513000A0E0FE0FF9A3F1E019A11E1708F0F0E0BE
:10514000AF2BEAA5E40FB1E0E41708F0B0E0AE0F32
:10515000AAA3F1E0AE1708F0F0E0BF2BEBA5E50F36
:10516000F1E0E51708F0F0E0BE0FBBA3A1E0BE1729
:1051700008F0A0E0FA2BE1E0ACA5A61708F0E0E00B
:10518000BCA5BF0FBCA3F1E01CA5B11708F0F0E06F
:10519000EF2BF1E0ADA5A71708F0F0E0BDA5BE0F1D
:1051A000BDA3E1E01DA5B11708F0E0E0FE2BE1E0B2
:1051B000AEA5A81708F0E0E0BEA5BF0FBEA391E022
:1051C000FEA5BF1708F090E0E92B1FA5E10FEFA3A4
:1051D00029A939A14AA15BA16CA17DA18EA19E2F15
:1051E0008E010F5F1F4FA2E0EA2EF12CAE89BF891E
:1051F000FD010995882309F491C189819A81892B40
:1052000009F075C033C08B819C81AD81BE81009750
:10521000A105B10509F06BC0288939894A895B89E4
:10522000211531054105510551F1A114B104C10405
:10523000D10449F42FEF3FEF4FEF5FE02B833C8326
:105240004D835E8304C0AB82BC82CD82DE8228A9FE
:105250003A8D4B8D5C8D6D8D7E8D8F8D98A18E01DD
:105260000D5F1F4FF4E0EF2EF12C2CC028893989F7
:105270004A895B89211531054105510549F4A88DFD
:10528000B98D9E966D927D928D929C92D19752C0CF
:10529000A114B104C104D10429F4EFEFFFEFFA83A4
:1052A000E98302C0BA82A98229A939A14AA15BA1D6
:1052B0006CA17DA18EA19FA18E010F5F1F4FE2E027
:1052C000EE2EF12CAC89BD89FD010995882309F4E6
:1052D0001FC1288939894A895B8921503040404063
:1052E0005040288B398B4A8B5B8B640153018F8133
:1052F0009885A985BA850197A109B1098F839887F7
:10530000A987BA870894611C711C811C911C2F818C
:10531000388549855A85211531054105510509F022
:1053200056CE88899989AA89BB890097A105B105BC
:1053300009F0EEC092E0291631044104510408F44A
:10534000F0C0AB85AA2309F471C0AB82BC82CD82C8
:10535000DE82B2E0220C331C441C551CBA95D1F7F6
:10536000B201A10180E090E0A0E0B0E028A5220D0C
:1053700031E0221508F030E0E9A5E50F11E0E5176E
:1053800008F010E03E0FF1E03E1708F0F0E01F2BB0
:10539000EAA5E60F01E0E61708F000E0912E9E0E68
:1053A000F1E09E1608F0F0E00F2BEBA5E70FF1E01F
:1053B000E71708F0F0E0E02EEE0E11E0EE1608F030
:1053C00010E0F12BE1E01CA5181708F0E0E0FCA4C8
:1053D000FF0EF1E01CA5F11608F0F0E0EF2BF1E074
:1053E0001DA5191708F0F0E00DA50E0FE1E01DA5B1
:1053F000011708F0E0E0FE2B11E0EEA5EA1708F037
:1054000010E08EA58F0FE1E0FEA58F1708F0E0E019
:105410001E2B492D5E2D6F2D702F9FA5910F8E0194
:105420000D5F1F4FA4E0EA2EF12C6CC0C501A982CC
:105430009A83220C331C441C551CB201A10180E04C
:1054400090E0A0E0B0E028A5220D31E0221508F0A0
:1054500030E0E9A5E50F11E0E51708F010E03E0F98
:10546000F1E03E1708F0F0E01F2BEAA5E60F01E09F
:10547000E61708F000E0912E9E0EF1E09E1608F06F
:10548000F0E00F2BEBA5E70FF1E0E71708F0F0E0F5
:10549000E02EEE0E11E0EE1608F010E0F12BE1E048
:1054A0001CA5181708F0E0E0FCA4FF0EF1E01CA515
:1054B000F11608F0F0E0EF2BF1E01DA5191708F048
:1054C000F0E00DA50E0FE1E01DA5011708F0E0E0EA
:1054D000FE2B11E0EEA5EA1708F010E08EA58F0F65
:1054E000E1E0FEA58F1708F0E0E01E2B492D5E2DB0
:1054F0006F2D702F9FA5910F8E010F5F1F4FE2E060
:10550000EE2EF12CAC89BD89FD010995882349F463
:10551000888D998DB601A5010E947725AA24BB2408
:105520006501B501C601E1960FB6F894DEBF0FBE66
:10553000CDBFCF91DF911F910F91FF90EF90DF9042
:10554000CF90BF90AF909F908F907F906F905F9023
:105550004F903F902F90089580E190E00895FC01D6
:10556000009711F01182108208952F923F924F926E
:105570005F926F927F928F929F92AF92BF92CF92E3
:10558000DF92EF92FF920F931F93DF93CF93CDB7EC
:10559000DEB768970FB6F894DEBF0FBECDBF988F09
:1055A0008F8B7E876D87588B4F87009709F41EC3BA
:1055B000672B09F41BC34115510509F417C3DC011E
:1055C000D396AC90D397D496BC90D497D596CC90E4
:1055D000D597D696DC90D697D796EC90D797D89655
:1055E000FC90D897D9960C91D997DA961C91DA97B6
:1055F00097962D903D904D905C909A979A0140E03F
:1056000050E060E070E080E090E0B22FBA0DBA8B1D
:10561000F1E0B21708F0F0E0E32FEB0D992493943A
:10562000E31708F09924FE0FF98BF1E0A989AE1772
:1056300008F0F0E09F2AE42FEC0DB1E0E41708F049
:10564000B0E0692C6E0EF1E06E1608F0F0E0BF2BB2
:10565000E52FED0DA1E0E51708F0A0E07B2E7E0E12
:10566000F1E07E1608F0F0E0AF2BE62FEE0DB1E092
:10567000E61708F0B0E08A2E8E0EF1E08E1608F0E4
:10568000F0E0BF2BE72FEF0DA1E0E71708F0A0E057
:105690009B2E9E0EF1E09E1608F0F0E0AF2BE82F57
:1056A000E00FB1E0E81708F0B0E0AE0FF1E0AE17A0
:1056B00008F0F0E0EB2FEF2B892F810FE80FA2010C
:1056C000910160E070E080E090E09E17F0F0E91753
:1056D00021F58A17D0F0A81701F57915B0F09716C3
:1056E000E1F4681590F08616C1F4571570F0751640
:1056F000A1F4461550F0641681F4B9893B1728F0DF
:10570000B31759F4EA892E1640F491012A193B097E
:10571000388B2F87232B09F46CC2AF89B88DED919C
:10572000FC911197208D318D3C872B87DB968D91D5
:105730009D910D90BC91A02D8F839887A987BA87E2
:105740000097A105B10509F059C0AF89B88D9396AE
:105750002D913D914D915C9196972F833887498784
:105760005A87211531054105510559F48A2D8B2998
:105770008C298D298E298F29802B812B09F439C200
:1057800035C28A2D8B298C298D298E298F29802B32
:10579000812BA1F135014601EB85FC851F014424D5
:1057A000552422273327A901221933094409550911
:1057B0002B8B3C8B4D8B5E8B1CC0AF89B88D8D9134
:1057C0009C914F81588569857A850E9406246F8354
:1057D000788789879A87611571058105910509F494
:1057E00005C22B893C894D895E89620E731E841E19
:1057F000951E6214730484049504F8F64B855C8549
:10580000415050405C874B874A215B215C834B832E
:105810008B859C8501969C878B87AF85B889BE83D5
:10582000AD83EF89F88D0190F081E02DFA83E98353
:10583000309709F48EC02F81388549855A852230EA
:1058400031054105510508F484C0225030404040E4
:10585000504059016A012E5F3F4F4F4F5F4F2F83DA
:10586000388749875A87208C318C9501A60160E0E2
:1058700070E080E090E05101CC24DD24EE24FF2490
:1058800000E010E00E94044AE981FA81A28DF38CC5
:10589000B48D058DE68CD78CC0A011A1A20FF1E0CC
:1058A000A21708F0F0E0232F2F0DE1E0231708F0F6
:1058B000E0E0FF2EF20E31E0F21608F030E0E32BCC
:1058C000242F2B0FF1E0241708F0F0E0BE2FB20FC9
:1058D00031E0B21708F030E0F32B252F200F41E024
:1058E000251708F040E0F20F31E0F21708F030E041
:1058F000432B262F2E0D51E0261708F050E0E42F01
:10590000E20F31E0E21708F030E0532B272F2D0D86
:1059100041E0271708F040E0520F31E0521708F03D
:1059200030E0432B282F2C0D31E0281708F030E011
:10593000420F81E0421708F080E0732E782A190F99
:105940002A2F9F2D6B2F7F2FAE2FB52F342E710E48
:1059500008C020E090E060E070E0A0E0B0E0332418
:1059600077248B849C844B815C81841A950AED8119
:10597000FE81E815F90508F44F01E981FA814080BC
:1059800051804B815C815A01CC24DD24EE24FF241C
:105990008701622E640E31E0621608F030E0892F34
:1059A0008B0D41E0891708F040E0380F91E038177F
:1059B00008F090E0492B862F8C0D51E0861708F0F7
:1059C00050E0480F91E0481708F090E0592B872FDE
:1059D0008D0D61E0871708F060E0580F91E05817CF
:1059E00008F090E0692B8A2F8E0D71E08A1708F07D
:1059F00070E0680F91E0681708F090E0792B9B2F1A
:105A00009F0D81E09B1708F080E0790FA1E07917E6
:105A100008F0A0E08A2BA32DA00F91E0A31508F0B9
:105A200090E08A0FB1E08A1708F0B0E09B2B710E6E
:105A3000D201ED91FC91262D970D0D851E857401E7
:105A40000995882309F4AFC02D813E8128193909B1
:105A50003E832D83940140E050E060E070E080E000
:105A600090E0AF89B88DD3961C91D397D496DC90F3
:105A7000D497D596BC91EF89F88D06A9E7A8A0AC7C
:105A800071ACF2AC180DF1E0181508F0F0E0ED2D56
:105A9000E30FA1E0E31708F0A0E0BF2EBE0EF1E097
:105AA000BE1608F0F0E0AF2BE42FEB0FB1E0E417E7
:105AB00008F0B0E0CA2ECE0EF1E0CE1608F0F0E00D
:105AC000BF2BE52FE00FA1E0E51708F0A0E0DB2EEB
:105AD000DE0EF1E0DE1608F0F0E0AF2BE62FEE0D63
